:100000000C946E010C9496010C9496010C9496013C
:100010000C9496010C9496010C9496010C94960104
:100020000C9496010C9496010C9496010C949601F4
:100030000C9496010C9496010C9496010C949601E4
:100040000C9444170C9496010C9412170C94EC1613
:100050000C9496010C9496010C9496010C949601C4
:100060000C948E170C949601084AD73B3BCE016E38
:1000700084BCBFFDC12F3D6C74319ABD56833DDAFF
:100080003D00C77F11BED9E4BB4C3E916BAAAABE0E
:10009000000000803F07634236B79BD8A71A396833
:1000A0005618AEBAAB558C1D3CB7CC5763BD6DED41
:1000B000FD753EF6177231BF000000803F0800005A
:1000C00000BE922449123EABAAAA2ABECDCCCC4C8B
:1000D0003E00000080BEABAAAAAA3E00000000BFFE
:1000E000000000803F0000000000084178D3BB43BF
:1000F00087D1133D190E3CC3BD4282AD2B3E68EC47
:100100008276BED98FE1A93E4C80EFFFBE01C4FFCD
:100110007F3F00000000000045000082000040001A
:100120002000010800060400010000000024002750
:10013000002A0000000000250028002B000000001D
:10014000002300260029000404040404040404021B
:100150000202020202030303030303010204081064
:100160002040800102040810200102040810200031
:100170000000080002010000030407000000000066
:100180000000002053572056657273696F6E20502F
:10019000617463683A2030780020535720427569B3
:1001A0006C64204E756D6265723A20307800205381
:1001B000572050617274204E756D6265723A20301E
:1001C00078002053572056657273696F6E204D6911
:1001D0006E6F723A203078005357205665727369FB
:1001E0006F6E204D616A6F723A2030780046616907
:1001F0006C656420746F206163636573732045745C
:100200006865726E657420636F6E74726F6C6C6576
:10021000720053504920494E542074696D656F75C2
:1002200074005350492057616974004779726F2DEB
:10023000766563746F720057616B652D7265706FC0
:1002400072740053656E736F722D7265706F727485
:1002500000436F6E74726F6C0045786563757461EE
:10026000626C6500436F6D6D616E64002043686170
:100270006E6E656C3A00204C656E6774683A0020BB
:100280005B436F6E74696E756564207061636B6546
:10029000745D20003000200020426F64793A003005
:1002A0000020004865616465723A00300020004813
:1002B00065616465723A004932432074696D656F07
:1002C0007574004D452043616C207265706F7274C7
:1002D00020666F756E6421002100AD1811241FBEC9
:1002E000CFEFD8E0DEBFCDBF13E0A0E0B1E0ECEC93
:1002F000FEE402C005900D92A636B107D9F727E0BB
:10030000A6E6B3E001C01D92A136B207E1F711E005
:10031000CEE6D1E004C02197FE010E944827CD36E9
:10032000D107C9F70E9445190C9464270C9400006A
:1003300008950895CF93DF9320912D052223C1F0D6
:10034000FC0120812223A1F0CDE2D5E0A9E2B5E0B5
:100350009C012C5F3F4F899141919D918427892376
:1003600039F4E217F307B9F781E0DF91CF910895EF
:1003700080E0FBCF80E480937C0080917A008064F1
:1003800080937A0080917A0086FDFCCF809178007E
:10039000909179000895DC01ED91FC910190F0813C
:1003A000E02D0994EF92FF920F931F93CF93DF9369
:1003B0008C017B01D0E0C0E0F701EC0FFD1F6491E0
:1003C000662361F0D801ED91FC910190F081E02D60
:1003D000C8010995892B11F02196EECFCE01DF914E
:1003E000CF911F910F91FF90EF900895AF92BF9220
:1003F000CF92DF92EF92FF920F931F93CF93DF93F1
:100400006C017B018B01040F151FEB015E01AE181F
:10041000BF08C017D10759F06991D601ED91FC9141
:100420000190F081E02DC6010995892B79F7C5016E
:10043000DF91CF911F910F91FF90EF90DF90CF90C0
:10044000BF90AF900895FC01538D448D252F30E06F
:10045000842F90E0821B930B541710F0CF960895D1
:1004600001970895FC01918D828D981761F0A28DFE
:10047000AE0FBF2FB11D5D968C91928D9F5F9F73C4
:10048000928F90E008958FEF9FEF0895FC01918D7A
:10049000828D981731F0828DE80FF11D858D90E0E7
:1004A00008958FEF9FEF0895FC01918D228D892F84
:1004B00090E0805C9F4F821B91098F73992708956C
:1004C0008FE795E00E94540221E0892B09F420E097
:1004D000822F089580E090E0892B29F00E9460022D
:1004E00081110C9400000895FC01A48DA80FB92F70
:1004F000B11DA35ABF4F2C91848D90E001968F734C
:100500009927848FA689B7892C93A089B1898C916A
:10051000837080648C93938D848D981306C00288B9
:10052000F389E02D80818F7D80830895EF92FF9283
:100530000F931F93CF93DF93EC0181E0888F9B8D06
:100540008C8D98131AC0E889F989808185FF15C0C0
:100550009FB7F894EE89FF896083E889F9898081E3
:100560008370806480839FBF81E090E0DF91CF91B2
:100570001F910F91FF90EF900895F62E0B8D10E0D4
:100580000F5F1F4F0F731127E02E8C8D8E110CC043
:100590000FB607FCFACFE889F989808185FFF5CF8E
:1005A000CE010E947402F1CFEB8DEC0FFD2FF11DF7
:1005B000E35AFF4FF0829FB7F8940B8FEA89FB89CB
:1005C00080818062CFCFCF93DF93EC01888D882329
:1005D000B9F0AA89BB89E889F9898C9185FD03C0A6
:1005E000808186FD0DC00FB607FCF7CF8C9185FF8B
:1005F000F2CF808185FFEDCFCE010E947402E9CF5A
:10060000DF91CF910895833081F028F4813099F003
:100610008230A9F008958730A9F08830C9F084307D
:10062000B1F4809180008F7D03C0809180008F772E
:1006300080938000089584B58F7784BD089584B534
:100640008F7DFBCF8091B0008F778093B0000895AD
:100650008091B0008F7DF9CFCF93DF93282F30E0CA
:10066000F901E159FE4F8491F901E55AFE4FD49109
:10067000F901E95BFE4FC491CC23A1F081110E94E6
:100680000303EC2FF0E0EE0FFF1FE35CFE4FA5919C
:10069000B491EC91ED2381E090E009F480E0DF91EA
:1006A000CF91089580E090E0FACF1F93CF93DF932E
:1006B000282F30E0F901E159FE4F8491F901E55A04
:1006C000FE4FD491F901E95BFE4FC491CC23A9F010
:1006D000162F81110E940303EC2FF0E0EE0FFF1F95
:1006E000ED5CFE4FA591B4918FB7F894EC91111188
:1006F00008C0D095DE23DC938FBFDF91CF911F918F
:100700000895DE2BF8CFCF93DF9390E0FC01E55AFC
:10071000FE4F2491895B9E4FFC0184918823C9F090
:1007200090E0880F991FFC01E75DFE4FA591B49101
:10073000FC01ED5CFE4FC591D49161110DC09FB7D6
:10074000F8948C91209582238C9388812823288388
:100750009FBFDF91CF910895623051F49FB7F89415
:100760003C91822F809583238C93E8812E2BEFCFB1
:100770008FB7F894EC912E2B2C938FBFEACF1F9359
:10078000CF93DF93182FEB0161E00E948303209742
:1007900039F460E0812FDF91CF911F910C945503C4
:1007A000CF3FD10511F461E0F5CFE12FF0E0E15941
:1007B000FE4FE491E33031F140F4E130B1F0E2304A
:1007C000E1F0C038D1057CF7E4CFE73029F1E8301B
:1007D00059F1E430B1F7809180008062809380000D
:1007E000D0938B00C0938A0004C084B5806884BD18
:1007F000C7BDDF91CF911F91089584B5806284BDFC
:10080000C8BDF7CF80918000806880938000D0932E
:100810008900C0938800EDCF8091B00080688093FC
:10082000B000C093B300E5CF8091B00080628093A8
:10083000B000C093B400DDCF3FB7F8948091D303EC
:100840009091D403A091D503B091D60326B5A89B6F
:1008500005C02F3F19F00196A11DB11D3FBFBA2F52
:10086000A92F982F8827BC01CD01620F711D811D12
:10087000911D42E0660F771F881F991F4A95D1F797
:1008800008958F929F92AF92BF92CF92DF92EF9294
:10089000FF924B015C010E941C046B017C010E94D1
:1008A0001C046C197D098E099F09683E73408105FF
:1008B0009105A8F321E0821A9108A108B10888EEF9
:1008C000C80E83E0D81EE11CF11C81149104A10420
:1008D000B10429F7FF90EF90DF90CF90BF90AF90D9
:1008E0009F908F9008952091AF03260F3327331FD9
:1008F00021323105ECF420917905FC0190E080E093
:10090000243069F082E00895A091AF032191AC01F9
:1009100041575C4FA40FB52FB11D2C93019686173C
:1009200098F38091AF03680F6093AF0380E0089560
:1009300081E008951092790581E080935805109226
:10094000530561E082E10E94550361E083E10E946A
:100950005503E9EBF0E080818E7F808380818D7F7D
:10096000808388E48093B80085E48093BC00089578
:10097000CF93DF9391E090938E038823B9F0C091D9
:10098000B800D091BA008091BC008A7B8093BC00F3
:1009900060E082E10E94550360E083E10E9455031C
:1009A0000E949A04D093BA00C093B800DF91CF910F
:1009B0000895CF92DF92EF92FF920F931F93CF9300
:1009C000DF93D82FC62F613208F098C00E941C0414
:1009D0006B017C018091790581116BC081E080936E
:1009E0007905809358059FEF90935705109256050F
:1009F0009C0F909355058093540580915405DD0F0D
:100A0000D82BD093540580915305813009F078C0DC
:100A1000109253050E941C046B017C0180915405C7
:100A20008093BB0080917B0590917C05A0917D0512
:100A3000B0917E05892B8A2B8B2BA1F00E941C0480
:100A400000917B0510917C0520917D0530917E05FC
:100A50006C197D098E099F090617170728073907A2
:100A600008F448C08091BC0083FDD8CF85EC80930A
:100A7000BC000E941C046B017C01809179058130CF
:100A800009F440C0809156058C1710F4C0915605AA
:100A9000E3E3F5E0A9E5B5E080E08C1355C08C2FC9
:100AA000DF91CF911F910F91FF90EF90DF90CF904A
:100AB000089580917B0590917C05A0917D05B09172
:100AC0007E05892B8A2B8B2B09F484CF0E941C0472
:100AD00000917B0510917C0520917D0530917E056C
:100AE0006C197D098E099F09061717072807390712
:100AF00008F070CF80917A050E94B804C0E0CFCF93
:100B000085EEB5CF80917B0590917C05A0917D0508
:100B1000B0917E05892B8A2B8B2B09F4AECF0E94D6
:100B20001C0400917B0510917C0520917D0530917E
:100B30007E056C197D098E099F090617170728077E
:100B4000390708F09ACFD6CF91919D938F5FA5CFAB
:100B50000895E091230680912206E81730F4F0E032
:100B6000E75AFA4F808190E008958FEF9FEF089544
:100B700090912306809122062FEF3FEF981748F4BB
:100B8000E92FF0E0E75AFA4F208130E09F5F909321
:100B90002306C90108958091220690912306891B9E
:100BA000990B0895CF92DF92EF92FF920F931F93CC
:100BB000CF93DF937C01CB018A0120913205222360
:100BC00089F0EB016B01C40ED51ECC15DD0569F073
:100BD0006991D701ED91FC910190F081E02DC70161
:100BE0000995F3CF642F0E947304C801DF91CF9160
:100BF0001F910F91FF90EF90DF90CF900895CF93CA
:100C0000DF931F92CDB7DEB769832091320522238F
:100C1000F9F020912006203258F021E030E0FC016C
:100C20003383228390E080E00F90DF91CF9108958D
:100C300080912106E82FF0E0E259FC4F99819083E2
:100C40008F5F809321068093200681E090E0ECCFB7
:100C500061E0CE0101960E947304F7CFCF92DF923C
:100C6000EF92FF920F931F93CF93DF93D0912006C3
:100C700081E0D13208F09CC0C09131050E941C0473
:100C80006B017C018091790581116CC082E08093B9
:100C9000790581E0809358058FEF80935705109276
:100CA0005605D0935505AEE6B3E0E3E3F5E080E00A
:100CB000D8138DC01092540580915405CC0FC82BC9
:100CC000C093540580915305813009F084C010927F
:100CD00053050E941C046B017C0180915405809394
:100CE000BB0080917B0590917C05A0917D05B09122
:100CF0007E05892B8A2B8B2BA1F00E941C0400916E
:100D00007B0510917C0520917D0530917E056C1945
:100D10007D098E099F09061717072807390708F468
:100D200042C08091BC0083FDD8CF85EC8093BC008D
:100D30000E941C046B017C0180917905823009F4CA
:100D40004CC0809157058F3F09F469C080915705C9
:100D5000803209F466C080915705803309F463C07E
:100D600084E026C080917B0590917C05A0917D0553
:100D7000B0917E05892B8A2B8B2B09F483CF0E949F
:100D80001C0400917B0510917C0520917D0530911C
:100D90007E056C197D098E099F090617170728071C
:100DA000390708F06FCF80917A050E94B80485E07A
:100DB000109221061092200610923205DF91CF91F9
:100DC0001F910F91FF90EF90DF90CF9008959D912C
:100DD00091938F5F6DCF85EEA9CF80917B05909128
:100DE0007C05A0917D05B0917E05892B8A2B8B2BEC
:100DF00009F4A2CF0E941C0400917B0510917C0590
:100E000020917D0530917E056C197D098E099F0921
:100E1000061717072807390708F08ECFC4CF80E0E0
:100E2000C7CF82E0C5CF83E0C3CF0F931F93CF938B
:100E3000DF9370E0605D7B4F2130A9F48A01075F8A
:100E40001F4F30E020E0EB01FA01E230F10578F0CD
:100E5000A991B991BA27AB27BA270A0F1B1F211DE9
:100E6000311D3297F2CF00E010E09801ECCFFA018B
:100E7000EE7F6E0F7F1F4E175F0769F0FB01408109
:100E800050E070E060E0762F652F542F4427040F68
:100E9000151F261F371FA901662777274115510502
:100EA0006105710519F022273327F1CF00951095C0
:100EB000E82FF0E0E05DFB4F10830183DF91CF91DD
:100EC0001F910F9108958EBD0DB407FEFDCF0895BB
:100ED00061E08091D7030E94550378940895F894B7
:100EE00060E08091D7030C9455030F931F93CF9329
:100EF000DF93EC018B010E946F072097B9F08AE322
:100F00000E9463071EBCF801CE01019739F00DB4B1
:100F100007FEFDCF2EB51EBC2193F7CF2197C00F42
:100F2000D11F0DB407FEFDCF8EB58883DF91CF9121
:100F30001F910F910C9468071F93CF93DF93182F85
:100F4000C62FD42F0E946F078C2F8F71812B0E9488
:100F500063078D2F0E946307DF91CF911F910C943F
:100F60006807CF93C82FC07680916D038C1799F0D6
:100F700043E06FE180EA0E949C07C0936D034C2F11
:100F800050E085E0559547958A95E1F76FE180E857
:100F9000CF910C949C07CF910895CF93DF93C82FE6
:100FA000D62F0E94B1074D2F6C2F80E4DF91CF9197
:100FB0000C949C07CF93DF93C82FD72F0E94CD07A7
:100FC0006D2F81E08C0FDF91CF910C94CD07CF93E3
:100FD000C82F0E94B1070E946F078C2F8F710E944B
:100FE000630780E00E946307C7FF03C080E00E94A0
:100FF0006307CEB50E9468078C2FCF910895CF93D9
:10100000DF93EC0140E86FE180E80E949C0740E834
:101010006FE180EA0E949C074AE06CE180EA0E944E
:101020009C0760E07CE082E00E94DA07BE01745F0A
:1010300086E00E94DA0740E060E08AE70E949C07B1
:101040000E946F072097B1F08AE70E9463078091A2
:1010500030048EBDE1E3F4E0C05DDB4FEC17FD072B
:1010600031F081910DB407FEFDCF8EBDF7CF0DB4E9
:1010700007FEFDCF0E94680748E06FE180E80E940C
:101080009C07D0E0C0E08CE10E94E7078A7029F459
:101090002196C83E83E0D807B1F78CE10E94E707AC
:1010A00081FD03C0C83ED34039F448E06FE180EAD7
:1010B000DF91CF910C949C07DF91CF91089590E040
:1010C00080E0089508958EBD00000DB407FEFDCFA9
:1010D0008EB508958CBD9DBD0895CF93DF93C091CB
:1010E0000C05D0910D05809153018823F9F0D7FDAF
:1010F00010C05C9AC0910C05D0910D05BE0183E033
:101100000E94BF03D0936C03C0936B03DF91CF9118
:1011100008955C9880910C0590910D0591958195AD
:10112000910990930D0580930C05E4CF1C161D06C4
:1011300094F470E060E089E00E94BF03BE0183E0A8
:101140000E94BF0380910C0590910D0590936C0354
:1011500080936B03DBCFD195C195D109D0930D0559
:10116000C0930C0570E060E083E00E94BF03BE0105
:1011700089E0E6CFDC01ED91FC910190F081E02D5A
:101180000994CF93DF93E5E5F7E085818360C18122
:10119000D28123813481C22BD32BD168C82B80818B
:1011A00091E09093320580933105109221061092C0
:1011B000200661E070E084E296E00E94BA086D2F9C
:1011C00084E296E00E94FF056C2F84E296E00E9484
:1011D000FF0584E296E0DF91CF910C942E060F93E9
:1011E0001F93FC0100E012E12AE730E090E0401795
:1011F00051076207730740F43695279517950795B1
:101200009F5F9630A1F797E0292F286B26952083C2
:101210009095917091831F910F910895CF93DF93D3
:10122000C5E5D7E0888191E0909332058093310540
:10123000109221061092200670E060E084E296E0B1
:101240000E94BA0884E296E00E942E0662E088813D
:101250000E94D904109223068093220684E296E02D
:101260000E94B805C82F84E296E00E94B80520E0ED
:10127000822B9C2BDF91CF910895CF92DF92EF923A
:10128000FF92CF93C62FBC01990F880B990B0E9438
:101290000A246B017C016C2F70E0719561957109D6
:1012A000072E000C880B990B0E940A249B01AC01AD
:1012B00060E070E080E090E40E945B259B01AC015F
:1012C000C701B6010E94EE24CF91FF90EF90DF900E
:1012D000CF900895FB0101900020E9F73197AF010D
:1012E000461B570BDC01ED91FC910280F381E02D50
:1012F00009948F929F92AF92BF92EF92FF920F93B9
:101300001F93CF93DF93CDB7DEB7A1970FB6F894B5
:10131000DEBF0FBECDBF7C01FA01CB0119A2223086
:1013200008F42AE08E010F5D1F4F822E912CB12C04
:10133000A12CBF01A50194010E940727F901CA0150
:101340006A300CF5605DD8016E938D01232B242B40
:10135000252B79F790E080E0109721F0BD01C701BF
:101360000E946A09A1960FB6F894DEBF0FBECDBFEA
:10137000DF91CF911F910F91FF90EF90BF90AF90B1
:101380009F908F900895695CDECF242F462F50E008
:1013900070E060E00C9479098F929F92AF92BF92B7
:1013A000CF92DF92EF92FF920F931F93CF93DF9331
:1013B0007C018B014C0182E0880E911C5701E5E015
:1013C000AE0EB11CD0E0C0E0F40161914F014AE0E3
:1013D00050E0C8010E94C5096C016EE2C8010E947C
:1013E000CB018C0D9D1DC80FD91F8A149B0461F77A
:1013F0004AE050E0F7016581C8010E94C5098C0FE1
:101400009D1FDF91CF911F910F91FF90EF90DF9083
:10141000CF90BF90AF909F908F900895BC018FE7C1
:1014200095E00C946A0963E673E00C946A09CF9323
:10143000DF93BC018FE795E00E946A09EC018FE71A
:1014400095E00E94130A8C0F9D1FDF91CF910895A4
:10145000CF93DF93AB01682F8FE795E00E94C5091A
:10146000EC018FE795E00E94130A8C0F9D1FDF911E
:10147000CF9108950F931F93CF93DF93EC010E94B8
:10148000D2018C01CE010E94130A800F911FDF91BF
:10149000CF911F910F9108951F93CF93DF93E09108
:1014A0003006F09131064091380660913606709111
:1014B0003706209135068091350690913606A09129
:1014C0003706B09138068093230790932407A093A2
:1014D0002507B093260790913B06D0913D06809159
:1014E0003906309132063530B1F590913406322FFD
:1014F000292F3093100720930F07709312076093E2
:101500001107982F842F90931407809313078091CD
:101510003A0690913B0690931607809315078091A9
:101520003C0690913D0690931C0780931B07809189
:101530003E0690913F0690931E0780931D07809171
:101540004006909141069093200780931F07DF91FA
:10155000CF911F910895FF773497C0913E06937005
:1015600060913D0670913E0640913F0650914006C5
:101570002091410630914206EF30F105FCF0A09138
:101580004306B09144067197DCF0E0914506F09176
:1015900046068130C1F4892F90E09093F60680933F
:1015A000F5067093F0066093EF065093F2064093B1
:1015B000F1063093F4062093F306C9CFB0E0A0E023
:1015C000F0E0E0E0E6CF843099F4892F90E090934A
:1015D000FE068093FD067093F8066093F70650931D
:1015E000FA064093F9063093FC062093FB06AFCF32
:1015F000823099F4892F90E0909306078093050735
:10160000709300076093FF06509302074093010711
:1016100030930407209303079ACF833099F4892FDE
:1016200090E090930E0780930D07709308076093E6
:10163000070750930A074093090730930C0720933C
:101640000B0785CF853031F0883021F018ED180F69
:101650001230D8F4892F90E090931A0780931907DD
:101660007093100760930F07509312074093110770
:101670003093140720931307B0931607A093150710
:10168000F0931807E093170762CF813129F4309364
:101690002207209321075BCF833119F4D0932707CA
:1016A00056CF8E3199F4C0932807AFE3B6E090E0AF
:1016B00080E02D91E0912907F0912A07E80FF91FAA
:1016C0002083019689309105A1F741CF843169F4D7
:1016D0007093360760933507509338074093370768
:1016E00030933A072093390732CF853169F47093EC
:1016F0003C0760933B0750933E0740933D07309370
:10170000400720933F0723CF863169F47093420747
:101710006093410750934407409343073093460733
:101720002093450714CF813F09F011CF8091E40643
:10173000882341F068ED72E08091E2069091E30623
:101740000E943A0A80913B06873009F000CF8091D1
:10175000E406882341F063EC72E08091E206909108
:10176000E3060E943A0A80913E0680932B07EFCE53
:10177000CF93C4E68091DF069091E006DC01ED9105
:10178000FC910084F185E02D099518161906BCF02E
:1017900061E070E080E090E00E944104C15051F7A8
:1017A0008091E406882349F067EB72E08091E206BD
:1017B0009091E3060E943A0A80E0CF91089581E07B
:1017C000FCCF8F929F92BF92CF92DF92EF92FF92C7
:1017D0000F931F93CF93DF9300D0CDB7DEB78091E7
:1017E000DF069091E006892B09F067C18091ED0634
:1017F0000E942C03019709F46BC04091E7065091B9
:10180000E8066091E9067091EA06CE0101960E9411
:10181000EF0889819A810E946A0860E08091EB0656
:101820000E94550380E00E946308082F80E00E9418
:101830006308182F80E00E946308F82E80E00E9461
:1018400063080093300610933106F09232068093BD
:101850003306C8019F770097E9F58091E406882355
:10186000B9F16FEA72E08091E2069091E3060E947E
:10187000D20100E316E054E3E52E56E0F52E6DEAC2
:1018800072E08091E2069091E3060E94D201D801B5
:101890008D918D01803140F46BEA72E08091E20617
:1018A0009091E3060E94D20140E150E0F8013197A7
:1018B00060818091E2069091E3060E94C509E016DE
:1018C000F106E9F68091E2069091E3060E94130A80
:1018D000F12C22C08C0104501109F12CE12CE016EE
:1018E000F10678F48FEF0E946308B0E8EB16F1047C
:1018F00020F4F701E05DF94F8483EFEFEE1AFE0A62
:10190000EECF61E08091EB060E945503F090E40673
:10191000F11011C0FF24F3948F2D0F900F90DF91E1
:10192000CF911F910F91FF90EF90DF90CF90BF90DC
:101930009F908F900895009130061091310663EAD0
:1019400072E08091E2069091E3060E94D20140E3AA
:10195000C42E46E0D42E61EA72E08091E2069091B6
:10196000E3060E94D201D6018D916D01803140F4D1
:101970006FE972E08091E2069091E3060E94D20145
:1019800040E150E0F601319760818091E20690914C
:10199000E3060E94C509B4E3CB16B6E0DB06D9F630
:1019A0003CEFB32EB00EE8E2EB1510F428E2B22EB5
:1019B00068E972E08091E2069091E3060E94D2010C
:1019C00094E3C92E96E0D92EE12C8091E206909105
:1019D000E306BE1401F166E972E00E94D2014601FD
:1019E000D6018C91803140F464E972E08091E20686
:1019F0009091E3060E94D201BFEFCB1ADB0A40E1CF
:101A000050E0F40160818091E2069091E3060E942B
:101A1000C509E394DACF17FF05C06FE772E00E94B3
:101A20003A0A1F7766E772E08091E2069091E3063A
:101A30000E94D201A80170E060E02AE08091E206F5
:101A40009091E3060E9479096CE672E08091E206CB
:101A50009091E3060E94D201609132068091E206E5
:101A60009091E30661110BC064E672E00E94D2011E
:101A70008091E2069091E3060E94130A4DCF6130F7
:101A800019F469E572E0F2CF623019F461E572E0B1
:101A9000EDCF633019F463E472E0E8CF643019F4F9
:101AA00067E372E0E3CF653019F46BE272E0DECFFA
:101AB0004AE050E00E94C509DBCF64E08091E10676
:101AC0000E94D90410922306809322060E94B80B2C
:101AD000882309F4FDCE8091DF069091E006DC01B9
:101AE000ED91FC910284F385E02D0995F82E80910B
:101AF000DF069091E006DC01ED91FC910284F38514
:101B0000E02D0995E82E8091DF069091E006DC013A
:101B1000ED91FC910284F385E02D0995182F8091B9
:101B2000DF069091E006DC01ED91FC910284F385E3
:101B3000E02D0995F0923006E092310610933206BE
:101B40008093330600E01E2D0F291F770115110524
:101B500009F4BECE04501109D12CC12C0115110578
:101B600009F4D8CE78010D31110518F08CE1E82E7A
:101B7000F12C64E06E0D8091E1060E94D904109270
:101B80002306809322060E94B80B882309F4C2CE54
:101B90008091DF069091E006DC01ED91FC910284DA
:101BA000F385E02D09958091DF069091E006DC0138
:101BB000ED91FC910284F385E02D09958091DF067B
:101BC0009091E006DC01ED91FC910284F385E02D1B
:101BD00009958091DF069091E006DC01ED91FC9182
:101BE0000284F385E02D0995B12CBE141F04C0F4C6
:101BF0008091DF069091E006DC01ED91FC9102847A
:101C0000F385E02D0995B0E8CB16D10438F4F60140
:101C1000E05DF94F8483F60131966F01B394E5CF0F
:101C20000E191F099BCFCF938091ED068F3F49F48A
:101C30000E94E10BC82F811109C0C0E08C2FCF9109
:101C400008950E942C03019799F7F7CF80913206EF
:101C5000833039F4809134068B3F79F70E944C0A27
:101C6000EDCF8230A1F580913406813FC9F4809197
:101C70003606873019F78091390680932B078091BB
:101C80003A0680932C0780913B0680932D07809124
:101C90003C0680932E0780913D0680932F07CECF80
:101CA0008C3F61F68091350680933007809139062C
:101CB00090913A06A0913B06B0913C068093310783
:101CC00090933207A0933307B0933407B7CF853092
:101CD00009F0B3CFC3CFCF92DF92EF92FF920F9371
:101CE0001F93CF93DF9300D0CDB7DEB7082FF62E2A
:101CF00014E0160F8091DF069091E006009709F03E
:101D000073C02DE7E22E8091ED060E942C03892BF3
:101D100021F18091E406882341F062E272E0809133
:101D2000E2069091E3060E943A0A61E070E080E0EA
:101D300090E00E944104EA94E110E5CF9091E4061E
:101D4000992309F445C062E172E08091E206909126
:101D5000E3060E943A0A90E03BC04091E7065091AA
:101D6000E8066091E9067091EA06CE0101960E94AC
:101D7000EF0889819A810E946A0860E08091EB06F1
:101D80000E945503812F0E94630880E00E9463082F
:101D9000802F0E946308A02FB0E0AC54B94F8C9103
:101DA00091E0980F9C930E94630894E3C92E96E0FB
:101DB000D92E10E0D6018D916D010E9463081F5F3E
:101DC000F112F8CF61E08091EB060E94550391E09B
:101DD000892F0F900F90DF91CF911F910F91FF905E
:101DE000EF90DF90CF9008952091E10631E030939D
:101DF0003205209331051092210610922006612FA2
:101E000070E00E94BA0870E060E08091DF06909177
:101E1000E0060E94BA088091DF069091E006DC019E
:101E2000ED91FC910190F081E02D602F099580915A
:101E3000DF069091E006DC01ED91FC910190F081CC
:101E4000E02DA02FB0E0AC54B94F6C9121E0260FEB
:101E50002C93099584E3C82E86E0D82E10E080915B
:101E6000DF069091E006F60161916F01DC01ED91D2
:101E7000FC910190F081E02D09951F5FF112EFCFE9
:101E80008091DF069091E0060E942E0691E0882363
:101E900009F49ECF60CF0F931F93CF93DF93D62F7C
:101EA000C72F0E940E0A0D2F1C2FC0E0F801619170
:101EB0008F014AE050E08FE795E00E94C509C330EA
:101EC00029F06EE28FE795E00E94CB01CF5FC4302E
:101ED00069F78FE795E0DF91CF911F910F910C94F7
:101EE000130A85ED8093BC0080917B0590917C0561
:101EF000A0917D05B0917E050796A11DB11D23E03F
:101F0000B695A795979587952A95D1F72091BC000E
:101F100024FD03C010927905089540917B055091EE
:101F20007C0560917D0570917E05452B462B472BE6
:101F300069F30097A105B10541F02AE22A95F1F76E
:101F400000C00197A109B109E1CF80917A050C94F5
:101F5000B804DC0196E0FB0101900D929A95E1F73F
:101F60000895CF93DF93EB0144E050E0BC018CE493
:101F700094E00E944E27892B49F466E474E0CE0178
:101F80000E94A90F81E0DF91CF91089580E0FBCFFF
:101F9000BC0180E394E00E94A90F61EF73E086E347
:101FA00094E00C94A90FDC0194E0FB0101900D92E8
:101FB0009A95E1F708950F931F93CF938C018BE6C9
:101FC00091E00E94C80FE0E3F4E088E08487C6E077
:101FD000C58748E050E061E271E08EE394E00E9442
:101FE0005D22E0E5F4E0DF011D92CA95E9F761EFBB
:101FF00073E086E494E00E94A90FB80186E594E0BE
:102000000E94D30F6DE275E08CE494E00E94D30F40
:102010008AE290E0CF911F910F910C94FF07BF923D
:10202000CF92DF92EF92FF920F931F93CF93DF93A4
:102030006C01F62EE42EB52EE901C9010E949A0129
:10204000882309F484C084E294E00E94C80FBE0192
:102050008EE494E00E94D30F6DE275E08AE494E090
:102060000E94D30F8881807F803E91F08881998182
:10207000AA81BB818F3F9F4FAF4FBF4F49F044E0D4
:1020800050E0BE0187EF93E00E944E27892B31F488
:102090006BE671E080E394E00E94A90F88E08093F2
:1020A0003C0410923D0449E050E068E171E08EE3A9
:1020B00094E00E945D221092400481E180934704E5
:1020C0001093540400935504B0925204E0925304C8
:1020D000109256041092580410925904CF2DD0E05B
:1020E000AE01B6018AE594E00E945B278CE18F0D7A
:1020F00080934104109248041092490480E4809334
:102100004404109245048093460420E044E150E0EA
:102110006EE088E10E9415071092560488E08F0D4A
:1021200080935704AE01405F5F4F21E06AE188E28F
:102130000E941507CE018A96DF91CF911F910F91D2
:10214000FF90EF90DF90CF90BF900C94FF078AE252
:1021500094E07BCFFF920F931F93CF93DF93EC011B
:10216000F62E08811981C8010E946622F81621F016
:102170006F2DC8010E946E22CE01DF91CF911F9179
:102180000F91FF900895EF92FF920F931F93CF93BB
:10219000DF9300D0CDB7DEB78BE5E82E81E0F82ED7
:1021A0000AE010E01A830983F70161917F01CE01F3
:1021B00001960E94AA100F5F1F4F0831110591F779
:1021C0008BE591E00F900F90DF91CF911F910F91D0
:1021D000FF90EF900895EF92FF920F931F93CF938C
:1021E000DF9300D0CDB7DEB78FE4E82E81E0F82E84
:1021F00008E210E01A830983F70161917F01CE01A3
:1022000001960E94AA100F5F1F4F0433110591F72A
:102210008FE491E00F900F90DF91CF911F910F917C
:10222000FF90EF9008950F931F93CF93DF9300D00B
:10223000CDB7DEB78CE390E09A8389830CE411E09C
:10224000F8016081CE0101960E94AA108DE390E012
:102250009A838983F8016181CE0101960E94AA10B8
:102260008EE390E09A838983F8016281CE01019622
:102270000E94AA10C8010F900F90DF91CF911F917B
:102280000F9108954F925F926F927F928F929F92DB
:10229000AF92BF92CF92DF92EF92FF920F931F9374
:1022A000CF93DF93CDB7DEB76D970FB6F894DEBF4F
:1022B0000FBECDBFF9018081803809F013C1818143
:1022C000813809F00FC182818F3709F00BC1790184
:1022D0006B0183818E3F09F0A6C2C580D6809091A4
:1022E0002405B780B092240581E09B1101C080E0F5
:1022F00080932505F70160857185072E000C880BFA
:10230000990B0E940A242AE037ED43E25CE30E9425
:10231000EE24609312057093130580931405909337
:102320001505B0FE19C0B601DD0C880B990B0E9493
:102330000A242DEC3CEC4CEC5DE30E94EE242DECE9
:102340003CEC4CEC5DE30E945B2387FD05C0809173
:102350004601813009F0DDC086E68093470120E028
:1023600030E048EC52E460911605709117058091B9
:102370001805909119050E94EE240E94D2236093C3
:102380002201709323018091E303882309F4C4C0E0
:1023900081E08093320580E680933105109221061A
:1023A0001092200662E070E084E296E00E94BA0893
:1023B00084E296E00E942E0662E080E60E94D90444
:1023C00010922306809322068230F0F384E296E096
:1023D0000E94B8058093250184E296E00E94B8052A
:1023E0008093240181E08093320580E6809331055B
:1023F00010922106109220066CE170E084E296E0D3
:102400000E94BA0884E296E00E942E0662E080E60E
:102410000E94D90410922306809322068230F0F3A2
:1024200084E296E00E94B8058093270184E296E05A
:102430000E94B8058093260180911E058093280193
:1024400080916B0380932901EFE1F1E090E080E05F
:1024500022E03191830F911D2F5F2D30D1F78093B2
:102460002A010FE017E223E331E046E054E16EE099
:102470008DE191E00E940F1080915701811104C0FD
:1024800080915801882371F18091660391E0980F43
:1024900090936603833030F160911F0570912005A1
:1024A00080912105909122050E94D9236093140107
:1024B000E1E1F1E090E080E022E03191830F911DB5
:1024C0002F5F2D30D1F780931C010FE017E223E33B
:1024D00031E046E054E16EE08FE091E00E940F10A1
:1024E000109266036D960FB6F894DEBF0FBECDBF97
:1024F000DF91CF911F910F91FF90EF90DF90CF90E0
:10250000BF90AF909F908F907F906F905F904F9013
:1025100008951092470123CF8091E103882309F4A5
:1025200075C10E94130E882309F486CFF0904707E7
:102530006F2D80911507909116070E943D092B0180
:102540003C016F2D80910F07909110070E943D096B
:102550004B015C016F2D80911107909112070E9431
:102560003D096A8B7B8B8C8B9D8B6F2D8091130724
:10257000909114070E943D096E877F87888B998B05
:10258000A3019201C301B2010E94EE246B017C0100
:10259000A5019401C501B4010E94EE249B01AC0188
:1025A000C701B6010E947D226B017C012A893B890B
:1025B0004C895D89CA01B9010E94EE249B01AC01DE
:1025C000C701B6010E947D226B017C012E853F85EB
:1025D00048895989CA01B9010E94EE249B01AC01C6
:1025E000C701B6010E947D220E94B1256B017C01CA
:1025F000AC019B01C301B2010E9460236E8B7F8BF3
:10260000888F998FA7019601C501B4010E946023AC
:102610002B013C01A70196016A897B898C899D89E0
:102620000E9460234B015C01A70196016E857F85A6
:10263000888999890E9460236E877F87888B998B10
:10264000A5019401C501B4010E94EE246A8B7B8B25
:102650008C8B9D8B2E853F8548895989CA01B9018C
:102660000E94EE242A893B894C895D890E947D2243
:102670009B01AC010E947D229B01AC0160E070E0F7
:1026800080E89FE30E947C226A8F7B8F8C8F9D8FD6
:102690002E853F85488959896E897F89888D998DD6
:1026A0000E94EE246B017C01A5019401C301B201DB
:1026B0000E94EE249B01AC01C701B6010E947D225D
:1026C0009B01AC010E947D222A8D3B8D4C8D5D8D3E
:1026D0000E94FC2221EE3EE245E652E40E94EE24F6
:1026E0006B017C01DC01CB01B058809367039093B0
:1026F0006803A0936903B0936A0320E030E0A90166
:10270000C701B6010E94E1241816D4F420E030E09D
:1027100044E353E4C701B6010E945B23181684F01A
:10272000A701960160E070E084EB93E40E947C22B4
:1027300060936703709368038093690390936A03BF
:10274000A3019201C301B2010E94EE242A893B89B0
:102750004C895D890E947D229B01AC010E947D22F3
:102760009B01AC0160E070E080E89FE30E947C2266
:102770006B017C01A30192016E897F89888D998DFF
:102780000E94EE242B013C012E853F854889598902
:10279000C501B4010E94EE249B01AC01C301B2014A
:1027A0000E947D229B01AC010E947D22A70196011F
:1027B0000E94FC224B015C0120E030E040E251E449
:1027C00060916703709168038091690390916A0337
:1027D0000E94EE240E94D2237B0121EE3EE245E6D8
:1027E00052E4C501B4010E94EE2420E030E040E252
:1027F00051E40E94EE240E94D223E0922401F09240
:102800002501609326017093270116CE8FE08093F7
:10281000240187E28093250188EB8093260182E2E0
:102820008093270109CE883C61F520E030E048EC38
:1028300052E46091160570911705809118059091EA
:1028400019050E94EE240E94D2236093090170931F
:102850000A0190911A0580911B0590930B018093BA
:102860000C0180911E0580930D010FE017E223E318
:1028700031E046E054E16BE084E091E00E940F100B
:1028800031CE8C3F09F060C0F901858180935B01F6
:10289000868180936001608560935F0170E090E0C5
:1028A00080E00E9408242AE939E949E95FE30E94AF
:1028B000EE240E94D92360935C01F701618570E0EA
:1028C00090E080E00E9408246093610170936201AF
:1028D0008093630190936401F701828593859093BF
:1028E0005E0180935D01648570E090E080E00E946D
:1028F00008242AE037ED43E25CE30E94EE24609373
:1029000065017093660180936701909368010E944E
:10291000C3106091600180915C01681B770B072EEA
:10292000000C880B990B0E940A2420E030E040E460
:1029300050E40E9460236093E8037093E90380935E
:10294000EA039093EB03CECD8B3F09F065C0F9010C
:10295000858180FF40C091E090934F0181FF3EC090
:1029600091E09093500182FF3CC091E0909351011F
:1029700083FF3AC091E09093520184FF38C091E008
:102980009093530185FF36C091E09093540186FFE8
:1029900034C091E09093550187FF32C081E080936D
:1029A0005601F701868180935901808580FF2BC0F5
:1029B00091E090935A0181FF29C091E090935701D3
:1029C00082FF27C081E0809358010E94EB10F0E065
:1029D000E0E0099587CD10924F01C0CF10925001D1
:1029E000C2CF10925101C4CF10925201C6CF1092A3
:1029F0005301C8CF10925401CACF10925501CCCFC9
:102A000010925601CECF10925A01D5CF1092570195
:102A1000D7CF10925801D9CF893C09F047C0F901AE
:102A20008481853009F05ECD8581893C09F05ACDDD
:102A30008681893C09F056CD878180934C01808541
:102A400080934D01818580934E018BE991E00E9436
:102A50000E0A4AE050E0F70167818FE795E00E9497
:102A6000C50982EB91E00E940E0A4AE050E0F701AE
:102A700060858FE795E00E94C50982EB91E00E9496
:102A80000E0A4AE050E0F70161858FE795E00E9469
:102A9000C5098FE795E00E94130A64E670E080E0C4
:102AA00090E00E9441040E94131191CF8A3C09F0EA
:102AB00019CDF9018481833009F014CD85818A3CD8
:102AC00009F010CD86818A3C09F00CCD80E889831D
:102AD00081E88A838EE78B839BEC9C8397E09D83C0
:102AE000898787E18D8780914C018E8380914D018C
:102AF0008F8380914E018887FB0180818A87818145
:102B00008B8782818C87FE0133969E01235F3F4F26
:102B100090E080E04191840F911D2E173F07D1F77F
:102B20008D8786EB91E00E940E0A4AE050E0F601A4
:102B300060818FE795E00E94C50982EB91E00E94D9
:102B40000E0A4AE050E0F60161818FE795E00E94AD
:102B5000C50982EB91E00E940E0A4AE050E0F601BE
:102B600062818FE795E00E94C50982EB91E00E94A7
:102B70000E0A4AE050E0F60163818FE795E00E947B
:102B8000C5090FE017E220E031E046E054E16DE0D6
:102B9000CE0101960E940F1085EC91E00E940E0A72
:102BA0004AE050E0F60160818FE795E00E94C50998
:102BB00082EB91E00E940E0A4AE050E0F60161814A
:102BC0008FE795E00E94C50982EB91E00E940E0A12
:102BD0004AE050E0F60162818FE795E00E94C50966
:102BE00082EB91E00E940E0A4AE050E0F601638118
:102BF0008FE795E00E94C5098FE795E00E94130AD0
:102C000084ED91E00E940E0AC0901F05D09020052F
:102C1000E0902105F0902205A7019601C701B601B9
:102C20000E94F52564EE71E081111BC04601570139
:102C3000E894B7F82FEF3FEF4FE75FE7C501B40126
:102C40000E94F52581114AC02FEF3FEF4FE75FE764
:102C5000C501B4010E945B2318160CF03FC068EE5A
:102C600071E08FE795E00E946A098FE795E00E9486
:102C7000130A80EF91E00E940E0AC0901A05D090CE
:102C80001B050D2C000CEE08FF082AE0B701A60179
:102C9000F7FE0DC06DE28FE795E00E94CB0144275F
:102CA0005527BA014C195D096E097F092AE08FE7A3
:102CB00095E00E9479098FE795E00E94130A8FEF53
:102CC00091E00E940E0A6AE070E080911E050E9469
:102CD000280A8DE092E00E94170A04CC2FEF3FEF04
:102CE0004FE75FE4C701B6010E94E12418161CF407
:102CF0006CEE71E0B6CF2FEF3FEF4FE75FECC7010F
:102D0000B6010E945B2387FDF3CF20E030E0A901EC
:102D1000C701B6010E945B2387FF09C06DE28FE700
:102D200095E00E94CB01F7FAF094F7F8F0942AE0CE
:102D300037ED43EA5BE3C701B6010E947D224B01F8
:102D40005C010E94D9236B017C010E9408249B0135
:102D5000AC01C501B4010E947C224B015C012AE058
:102D6000B701A6018FE795E00E9479096EE28FE72F
:102D700095E00E94CB0120E030E040E251E4C50143
:102D8000B4010E94EE244B015C010E94D9236B0127
:102D9000F12CE12C2AE0B701A6018FE795E00E9413
:102DA0007909C701B6010E9408249B01AC01C50145
:102DB000B4010E947C2220E030E040E251E40E9415
:102DC000EE240E94D923AB0170E060E02AE08FE797
:102DD00095E00E94790949CF1F920F920FB60F928A
:102DE00011242F933F934F935F936F937F938F9310
:102DF0009F93AF93BF93EF93FF938FE795E00E946C
:102E00007402FF91EF91BF91AF919F918F917F914C
:102E10006F915F914F913F912F910F900FBE0F9047
:102E20001F9018951F920F920FB60F9211242F9397
:102E30008F939F93EF93FF93E0918F05F09190050F
:102E40008081E0919505F091960582FD1BC09081EF
:102E5000809198058F5F8F7320919905821741F0BB
:102E6000E0919805F0E0E158FA4F958F809398052E
:102E7000FF91EF919F918F912F910F900FBE0F9027
:102E80001F9018958081F4CF1F920F920FB60F926A
:102E900011242F933F938F939F93AF93BF93809170
:102EA000E4039091E503A091E603B091E70330912C
:102EB000D20323E0230F2D3758F50196A11DB11D34
:102EC0002093D2038093E4039093E503A093E60359
:102ED000B093E7038091D3039091D403A091D503DD
:102EE000B091D6030196A11DB11D8093D303909399
:102EF000D403A093D503B093D603BF91AF919F9114
:102F00008F913F912F910F900FBE0F901F901895AA
:102F100026E8230F0296A11DB11DD2CF1F920F925A
:102F20000FB60F9211242F933F934F935F936F939C
:102F30007F938F939F93AF93BF93EF93FF93809172
:102F4000B900887F803609F44AC0F0F5883209F468
:102F5000A7C018F5803109F49BC0B8F4882309F4A0
:102F6000F9C0883009F494C0FF91EF91BF91AF91FF
:102F70009F918F917F916F915F914F913F912F9191
:102F80000F900FBE0F901F901895883109F488C0DC
:102F9000803251F78093570514C0803409F49DC0E6
:102FA00040F48033B9F38833F9F68093570585EC04
:102FB000B0C0803509F485C0883509F496C08834DE
:102FC00099F60E94710FD0CF883909F48CC038F57A
:102FD000883729F050F4883611F0803729F683E0DD
:102FE000809379051092D10357C0883809F47BC0CB
:102FF000803919F0803809F0B7CF8091D103803241
:1030000008F071C0E091D10381E08E0F8093D1036D
:103010008091BB00F0E0EF54FC4F80833DC0803BCB
:1030200039F0E0F4803A09F479C0883A09F09CCF8D
:1030300084E0809379051092B0031092AF03E09181
:103040001C06F0911D0609958091AF0381110FC0F8
:1030500081E08093AF0310928F0309C0803C09F494
:10306000A6CF883C09F4A3CF883B09F07DCFE0913F
:10307000B00381E08E0F8093B003F0E0E157FC4F86
:1030800080818093BB009091B0038091AF0329C0F1
:10309000809154058093BB0085EC8093BC0064CF85
:1030A0009091560580915505981758F5E091560571
:1030B00081E08E0F80935605F0E0ED5CFA4F808141
:1030C000E9CFE091560581E08E0F809356058091FF
:1030D000BB00F0E0ED5CFA4F808390915605809143
:1030E00055059817C8F285E8D8CFE091560581E0DC
:1030F0008E0F809356058091BB00F0E0ED5CFA4F97
:1031000080838091580581115CCF81E080935305C5
:1031100084EA8093BC001092790526CF85EC8093D9
:10312000BC00109279058091D103803230F4E09197
:10313000D103F0E0EF54FC4F10826091D10370E0B6
:10314000E0911E06F0911F0681EB93E00995109225
:10315000D1030ACF1092570534CFEFE7F5E0138281
:10316000128288EE93E0A0E0B0E084839583A6838A
:10317000B78325E731E03183208325EC30E03587C4
:10318000248724EC30E03787268720EC30E0318B31
:10319000208B21EC30E0338B228B22EC30E0358B1E
:1031A000248B26EC30E0378B268B118E128E138EFB
:1031B000148EE4E2F6E01382128284839583A68360
:1031C000B78387E891E091838083EBE5F7E089E9B5
:1031D00091E091838083128213821482158210926F
:1031E00023061092220610922106109220060E94B9
:1031F0009A0488E991E090931D0680931C0689E962
:1032000091E090931F0680931E06E5E5F7E088E4C1
:10321000808380E094E0928381831482138280E82B
:103220008583E4EBF6E086E0DF011D928A95E9F7FD
:103230001092BA061092E4068EE090E09093480750
:10324000809347078CE090E090934A07809349076A
:1032500088E090E090934C0780934B0790934E0743
:1032600080934D0789E090E09093500780934F073B
:1032700084E090E090935207809351078AE090E0B9
:1032800090935407809353070895CF93DF9300D012
:1032900000D000D0CDB7DEB7789484B5826084BD0D
:1032A00084B5816084BD85B5826085BD85B581604A
:1032B00085BD80916E00816080936E0010928100C8
:1032C0008091810082608093810080918100816083
:1032D0008093810080918000816080938000809144
:1032E000B10084608093B1008091B00081608093D0
:1032F000B00080917A00846080937A0080917A0097
:10330000826080937A0080917A00816080937A0055
:1033100080917A00806880937A001092C10062E008
:1033200087E00E94830362E086E00E94830362E0FC
:1033300088E00E94830361E084E00E94830380911F
:103340005301882321F061E089E00E9483031092F9
:1033500023061092220610922106109220060E9447
:103360009A0488E991E090931D0680931C0689E9F0
:1033700091E090931F0680931E06E0918F05F091D7
:10338000900582E08083E0918B05F0918C0510829E
:10339000E0918D05F0918E0583E38083109297056F
:1033A000E0919305F091940586E08083E09191058A
:1033B000F0919205808180618083E0919105F09188
:1033C0009205808188608083E0919105F09192055B
:1033D000808180688083E0919105F09192058081E1
:1033E0008F7D808311E01093320580E68093310554
:1033F00084E296E00E942E068111F3C189E192E0F9
:103400000E94170A83E292E00E940E0A20E140E641
:1034100050E060E070E08FE795E00E9479098FE767
:1034200095E00E94130A86E392E00E94170A109327
:10343000E3038091E30381116FC109E611E09BE68C
:10344000892E91E0992EFF24F3942CE0222E3DEF5B
:10345000332E4FE5E42ED8018D918D018093E20348
:103460008BE692E00E940E0A60E170E08091E20338
:103470000E94280A8091E203F09232058093310580
:10348000109221061092200684E296E00E942E06F9
:103490008111BBC189E192E00E94170A85E892E0A0
:1034A0000E940E0A60E170E08091E2030E94280A07
:1034B00088E992E00E94170A8091E2038093E10676
:1034C00084E296E09093E0068093DF06BFEFB0932E
:1034D000ED06F092340661E081E00E946B0E62E33B
:1034E00070E080E090E00E9441040E94E10B8111B5
:1034F000FCCF62E370E080E090E00E9441040E9413
:10350000E10B8111FCCFE9EFE09334061092350610
:1035100062E082E00E946B0E0E94E10B882309F4B6
:103520006BC180913406883F09F066C18091E40642
:10353000882309F470C068ED71E08091E2069091F3
:10354000E3060E94D20140E150E06091360680918E
:10355000E2069091E3060E94C50962EC71E0809159
:10356000E2069091E3060E94D20140E150E06091B2
:1035700037068091E2069091E3060E94C5094090CB
:1035800038065090390660903A0670903B066EEA15
:1035900071E08091E2069091E3060E94D20120E161
:1035A000B301A2018091E2069091E3060E9479099D
:1035B00040903C0650903D0660903E0670903F065D
:1035C00069E971E08091E2069091E3060E94D201E0
:1035D00020E1B301A2018091E2069091E3060E94EE
:1035E0007909A0904006B090410663E871E08091AF
:1035F000E2069091E3060E94D2016090E20670908C
:10360000E306A50170E060E020E1C3010E947909B2
:10361000C3010E94130A2092B80030923406F8E0E9
:10362000F09335061092360610923706109238063F
:1036300020E920933906E0923A06F0923B06109278
:103640003C0610923D0610923E0610923F061092E4
:1036500040061092410610924206109243061092C4
:10366000440661E182E00E946B0E88EEA82E83E0A2
:10367000B82E31E0A31AB10809F493C60E94130EC4
:103680008823B9F3809134068C3F99F76091310714
:103690007091320780913307909134072091300761
:1036A000283039F46039FFE57F07F1E08F07910595
:1036B00081F128EE33E040E050E00E9429274901E3
:1036C0005A0185EA92E00E940E0A60E170E0809162
:1036D00030070E94280A84EB92E00E940E0A2AE03A
:1036E000B501A401B7FE0DC06DE28FE795E00E9421
:1036F000CB0144275527BA01481959096A097B09A2
:103700002AE08FE795E00E94790987EC92E00E9419
:10371000170A81E08093E10390E080E00E94662236
:103720008093DF0381E090E00E9466228093E003B3
:103730008091DF039091E0038837934309F46CC0D4
:103740001A82198268E7CE0101960E94AA1081E0D0
:1037500090E09A83898363E3CE0101960E94AA10C8
:103760000E94C3100E94EB100E941311609160012F
:1037700080915C01681B770B072E000C880B990B5E
:103780000E940A2420E030E040E450E40E946023DC
:103790006093E8037093E9038093EA039093EB034B
:1037A00087E390E0812C912C54018394009709F4D5
:1037B00068C0FC01A3E0F595E795AA95E1F7E8520A
:1037C000FC4F282F2770B501A40104C0440F551FDA
:1037D000661F771F2A95D2F72081242B208301971B
:1037E000E5CF83E492E00E94170A8DE492E00E9404
:1037F000170A1092E3031DCE8BEC92E00E94170A89
:103800008016910609F488CF26CE83E492E00E94C8
:10381000170A85EF92E0F2CF0BE5E02E01E0F02EE3
:103820000AE010E0C8010E946622F70181937F013F
:103830000F5F1F4F08311105A9F71FE4E12E11E0BA
:10384000F12E08E210E0C8010E946622D7018D9394
:103850007D010F5F1F4F04331105A9F78CE390E042
:103860000E94662280934C018DE390E00E946622C4
:1038700080934D018EE390E00E94662280934E017A
:1038800075CF6FE371E081EF93E00E94A90F88ECA0
:1038900090E09093ED038093EC030CB406FC25C0FC
:1038A00061E08AE00E94830361E08AE00E945503A0
:1038B00061E08BE00E94830361E08DE00E9483035E
:1038C00060E08CE00E94830361E08BE00E9455037E
:1038D00060E08BE00E94550360E08DE00E9455039C
:1038E00080E58CBD8DB581608DBD8AE08093D70366
:1038F00061E00E9483030E9468074FEF60E08FEF52
:103900000E949C0762E070E080E090E00E94410429
:103910000E946F078DE10E94630780E00E946307A9
:103920001EB50E946807112399F370E060E088E0FB
:103930000E94DA0770E060E08CE00E94DA076FEF27
:103940007BE08AE00E94DA0760E07CE084E00E948D
:10395000DA076FEF71E186E00E94DA0761EB88E336
:103960000E94CD076FE370E388E20E94DA0769EFF7
:1039700077EF80E30E94DA076DE080EC0E94CD07CC
:1039800060E081EC0E94CD0742E362EC80E80E9497
:103990009C0762E17CE086EC0E94DA0762E184EC3D
:1039A0000E94CD076CED75E08AEC0E94DA07609109
:1039B000F10384EE0E94CD076091F20385EE0E9430
:1039C000CD076091F30382EE0E94CD076091F4036E
:1039D00083EE0E94CD076091F50380EE0E94CD0733
:1039E0006091F60381EE0E94CD0760E184ED0E94B4
:1039F000CD0760E071E086ED0E94DA078AEE0E9452
:103A0000E70780FDFBCF8FE10E94B10740EC6BE13F
:103A100080E80E949C0744E06FE180E80E949C07D8
:103A200082E70E94E707863008F08F5F811106C0A9
:103A30006DEE71E08FE795E00E943A0A20914C010B
:103A400020933B0190914D0190933C0180914E0158
:103A500080933D0120933701909338018093390181
:103A60002093330190933401809335018FE795E0E3
:103A70000E94130A6BE371E08DE295E00E94D30F80
:103A8000109209051092080581E080930A0567E30A
:103A900071E084E095E00E94D30F6FE271E080E076
:103AA00095E00E94D30F6BE271E089E295E00E94FD
:103AB000D30FEDE2F5E029E235E047EF53E09191D5
:103AC000D9018D919D018095892BDA018D93AD01EE
:103AD000B5E0E133FB0799F76DE275E083E193E030
:103AE0000E944B0F64E075E08AE193E00E944B0F67
:103AF00063E371E081E293E00E944B0F8091230425
:103B0000883098F405E0809FF0011124E550FC4FC7
:103B100022E431E13183208328EB32E233832283B4
:103B200091E094838F5F8093230488E293E00E9466
:103B3000170A80E880935A07109257071092560789
:103B400060E0262E60E0362EFF24F39472E0E72E2C
:103B50002FB7F8948091E4039091E503A091E603D8
:103B6000B091E7032FBF4091480150914901609106
:103B70004A0170914B018C019D01041B150B260B12
:103B8000370BB901A801493151056105710508F4E8
:103B900037C28093480190934901A0934A01B093A2
:103BA0004B01F0922805809147018B3F08F09EC29F
:103BB0008F5F8093470187E00E942C03182F80932A
:103BC000270580915401813009F094C286E00E945B
:103BD0002C038093460180915601882361F09091D7
:103BE000590180912305891730F0F0924601F09237
:103BF00045011092260580915701882309F44AC097
:103C00000E94BA013C012AE939E949E15FE3609188
:103C10001F057091200580912105909122050E9439
:103C2000EE244B015C01B301770C880B990B0E94C9
:103C30000A2420E030E040E85EE30E94EE242DEC10
:103C40003CEC4CEC5EE30E94EE249B01AC01C50110
:103C5000B4010E947D222B013C0140921F0550922D
:103C6000200560922105709222056091590170E053
:103C700090E080E00E940A249B01AC01C301B201E4
:103C80000E94E12487FD06C0F0924601F0924501B2
:103C90001092260580915801882309F461C00E9482
:103CA000BA01BC01990F880B990B0E940A249B0151
:103CB000AC0160E070E080E094E40E947C222B0183
:103CC0003C0120E030E0A9010E94E12418160CF02C
:103CD00042C220E030E040E05FE3C301B2010E9455
:103CE000EE242B013C0123E333E343E35FE36091E4
:103CF0001F057091200580912105909122050E9459
:103D0000EE244B015C012AE939E949E95EE3C3018C
:103D1000B2010E94EE249B01AC01C501B4010E94D6
:103D20007D222B013C0140921F055092200560929C
:103D30002105709222056091590170E090E080E0C9
:103D40000E940A249B01AC01C301B2010E94E1243C
:103D500087FD06C0F0924601F092450110922605BB
:103D600088E00E942C03982F990F990F80914601AB
:103D7000880F892B182B10931E05809152018823E0
:103D800009F4F1C120E030E430935907209358073B
:103D90000E940E0990931D0580931C050E94C10886
:103DA00080911C0590911D059595879590931D0513
:103DB00080931C0580599A4190931B0580931A05A6
:103DC00060911C0570911D0565597A4180915D01D6
:103DD00090915E014090610150906201609063019A
:103DE0007090640120914F01222309F4C1C1681B26
:103DF000790B70931D0560931C05072E000C880B32
:103E0000990B0E940A24A301920150580E9460233A
:103E10006093160570931705809318059093190504
:103E20004090160550901705609018057090190580
:103E300020E030E0A901C301B2010E945B2387FFAB
:103E400014C0A30192016091650170916601809197
:103E50006701909168010E94EE24609316057093AB
:103E6000170580931805909319058091530190913F
:103E70004701943608F09BC1882309F488C18091DA
:103E8000500160E0811101C061E089E00E945503AA
:103E9000209112053091130540911405509115059C
:103EA000609116057091170580911805909119057C
:103EB0000E947C222B013C0140920E0550920F057E
:103EC000609210057092110560915B0170E090E0C6
:103ED00080E00E940A24A30192010E94EE240E9425
:103EE000D2234B018B0170930D0560930C0520E0EC
:103EF00030E0A901C301B2010E94E124181624F0A8
:103F000077FA709477F8709420E030E040E450E461
:103F1000C301B2010E945B236091600170E087FFE2
:103F20001DC02091E8033091E9034091EA035091CC
:103F3000EB03C301B2010E94EE242B013C0160910E
:103F40005C0170E090E080E00E940A249B01AC01DB
:103F5000C301B2010E947D220E94D22317FF1AC121
:103F600080915F0190E0881A990A90920D058092E5
:103F70000C0580910C0590910D056817790724F4C4
:103F800070930D0560930C05719561957109809191
:103F90000C0590910D058617970724F470930D0575
:103FA00060930C0580915101882359F080910C0594
:103FB00090910D0591958195910990930D058093B0
:103FC0000C0580915A018823C9F080910C059091CD
:103FD0000D058B3F910514F08AEF90E086303FEF9E
:103FE000930714F486E09FEF9595879595958795AF
:103FF00080589F4F90930D0580930C050E946D088B
:1040000061E070E080E090E00E9441048091F00364
:10401000882379F06091EE037091EF0361157105CB
:1040200009F0DCC06FEF7BE08CE00E94DA071092B1
:10403000F00389E30E94E7078111D3C080910A054C
:10404000857009F087C18091080590910905019656
:10405000909309058093080580E095E00E949A01FD
:10406000882371F08091FF0481110AC08091FE04C1
:10407000811106C080E095E00E94DB0FF092FE0403
:104080008AEF94E00E949A01882371F08091F904EC
:1040900081110AC08091F804811106C08AEF94E072
:1040A0000E94DB0FF092F80480912805882391F09C
:1040B00088E00E942C0390910B05891759F080939A
:1040C0000B05882339F0809123058F5F80932305AA
:1040D000109228052114310409F43ACD0E9460029F
:1040E000882309F435CD0E94000032CD16E61093E6
:1040F000470161CD809155018130C9F486E00E946D
:104100002C03811111C090912605913069F4209102
:104110004501213029F4109245011092460104C056
:1041200090934501909346018093260554CD80914C
:104130002505882309F44FCD80912405813009F0AD
:1041400033C180914601813009F045CD909126051B
:10415000911141CDE2CFC301B201905820E030E08F
:1041600040E05FE3BCCD109259071092580710CE83
:10417000680F791F70931D0560931C05072E000CB6
:10418000880B990B0E940A24A30192013FCE61E0A3
:1041900084E07CCE012B09F4ECCE80915F0190E0AD
:1041A000880D991D90930D0580930C05E2CE882310
:1041B00091F08091500161E0811101C060E089E0DF
:1041C0000E94550310920D0510920C050E946D0877
:1041D0001092230515CF60E084E0F2CF61507109A1
:1041E00023CF6091EE037091EF0380E00E94DA0725
:1041F000BE016F5F7F4F86E090E00E947507898166
:104200009A819093EF038093EE038D819E818C01C0
:104210000078112787FF12C08B819C810497009141
:10422000EC031091ED03015011098017910708F478
:104230008C0160E374E0C8010E947507F801E05D3D
:10424000FB4F1082F092F00340E46EE180E80E94A0
:104250009C070115110509F4F1CE0932110508F486
:1042600023CF80913C04883009F01ECF80913D041B
:10427000863009F0A9C044E050E06DE275E086E5C3
:1042800094E00E944E27892B09F00ECF80914504BF
:10429000813021F586E394E00E94C80F1092440417
:1042A000E092450466E474E080E594E00E94A90F82
:1042B00061EF73E086E494E00E94A90F6CE474E07F
:1042C00086E594E00E94D30F6DE275E08CE494E003
:1042D0000E94D30F8AE290E00E94FF0780910A05B6
:1042E00083FF0DC010914504123049F46AE274E076
:1042F00084E095E00E94B10F811110930A0580912E
:10430000FF04811110C08091FE04882361F064E2F3
:1043100074E080E095E00E94B10F882321F0F092D4
:10432000FF041092FE048091F9048111BDCE8091AA
:10433000F804882309F4B8CE64E274E08AEF94E0CC
:104340000E94B10F882309F4AFCEF092F9041092C5
:10435000F804AACE8091080590910905892B09F0EF
:1043600072CE61E184ED0E94CD0761E082ED0E9492
:10437000CD078AEE0E94E70780FDFBCF60E082ED6B
:104380000E94CD0789ED0E94E70782FF5CCE84E0A2
:1043900095E00E94DB0F80910A05886080930A05F2
:1043A00052CE80E593E02ACA811115CC8091460156
:1043B000811111CC80912605813009F00CCC8093BD
:1043C00046011092260507CC0932110509F46CCE7E
:1043D00081116ACE80913E04853409F065CE44E0B7
:1043E00050E06DE275E08EE494E00E944E27892B48
:1043F000A9F044E050E067EF73E08EE494E00E949F
:104400004E27892B59F044E050E06BE671E08EE4D2
:1044100094E00E944E27892B09F046CE8091230418
:10442000882309F441CE80914704813109F03CCEC4
:104430003BEF632E33E0732E512C412C80912304EB
:104440008415150409F00CF42FCED30112962C918B
:10445000129713969C91139780915404C92ED12CD6
:104460008C151D0419F58091550482131FC01496F4
:104470002C9114972223D1F0409157044850550BAA
:1044800020915604022F10E0102F0027040F151F53
:104490004091520450915304542745275427ED91DD
:1044A000FC912AE534E06AE474E00995BFEF4B1A09
:1044B0005B0AE5E06E0E711CC1CFFB01DC0102C09E
:1044C00005900D9241505040D8F70895F999FECFCC
:1044D00092BD81BDF89A992780B50895262FF99944
:1044E000FECF1FBA92BD81BD20BD0FB6F894FA9AD7
:1044F000F99A0FBE019608955058BB27AA270E942B
:1045000094220C94A7240E94992438F00E94A0249D
:1045100020F039F49F3F19F426F40C946F240EF424
:10452000E095E7FB0C946924E92F0E94B82458F326
:10453000BA17620773078407950720F079F4A6F588
:104540000C94DA240EF4E0950B2EBA2FA02D0B015B
:10455000B90190010C01CA01A0011124FF27591BC8
:1045600099F0593F50F4503E68F11A16F040A22FCE
:10457000232F342F4427585FF3CF4695379527953F
:10458000A795F0405395C9F77EF41F16BA0B620B3E
:10459000730B840BBAF09150A1F0FF0FBB1F661F85
:1045A000771F881FC2F70EC0BA0F621F731F841FC8
:1045B00048F4879577956795B795F7959E3F08F0EE
:1045C000B0CF9395880F08F09927EE0F97958795B0
:1045D00008950E94992460F080E891E009F49EEF2C
:1045E0000E94A02428F040E851E071F45EEF0CC076
:1045F0000C946F240C94DA24E92FE0780E94B824FC
:1046000040F3092E052AB1F3261737074807590743
:1046100038F00E2E07F8E02569F0E025E0640AC0C6
:10462000EF6307F8009407FADB01B9019D01DC0193
:10463000CA01AD01EF930E9477230E94A7240E9434
:104640002C235F91552339F02BED3FE049E450FDD9
:1046500049EC0C947D220895DF93DD27B92FBF77B5
:1046600040E85FE31616170648075B0718F4D92FD2
:104670000E94E6249F938F937F936F930E94F1256E
:10468000E8E6F0E00E9472240E94A7242F913F9157
:104690004F915F910E940125DD2351F09058A2EACD
:1046A0002AED3FE049EC5FE3D0785D270E94942239
:1046B000DF910C94A7240E94452408F481E008951A
:1046C0000E9474230C94A7240E94A02458F00E94F6
:1046D000992440F029F45F3F29F00C94692451118A
:1046E0000C94DB240C946F240E94B82468F3992363
:1046F000B1F3552391F3951B550BBB27AA276217DE
:104700007307840738F09F5F5F4F220F331F441FEA
:10471000AA1FA9F335D00E2E3AF0E0E832D091501E
:104720005040E695001CCAF72BD0FE2F29D0660F0B
:10473000771F881FBB1F261737074807AB07B0E84E
:1047400009F0BB0B802DBF01FF2793585F4F3AF054
:104750009E3F510578F00C9469240C94DB245F3F54
:10476000E4F3983ED4F3869577956795B795F795DA
:104770009F5FC9F7880F911D9695879597F90895C2
:10478000E1E0660F771F881FBB1F6217730784075E
:10479000BA0720F0621B730B840BBA0BEE1F88F76D
:1047A000E09508950E94D9236894B1110C94DB24FC
:1047B00008950E94C02488F09F5798F0B92F992738
:1047C000B751B0F0E1F0660F771F881F991F1AF0FC
:1047D000BA95C9F714C0B13091F00E94DA24B1E063
:1047E00008950C94DA24672F782F8827B85F39F062
:1047F000B93FCCF3869577956795B395D9F73EF495
:1048000090958095709561957F4F8F4F9F4F08953C
:10481000E89409C097FB3EF490958095709561955A
:104820007F4F8F4F9F4F9923A9F0F92F96E9BB2710
:104830009395F695879577956795B795F111F8CF8C
:10484000FAF4BB0F11F460FF1BC06F5F7F4F8F4FF7
:104850009F4F16C0882311F096E911C0772321F0ED
:104860009EE8872F762F05C0662371F096E8862F85
:1048700070E060E02AF09A95660F771F881FDAF7DC
:10488000880F9695879597F90895990F0008550F09
:10489000AA0BE0E8FEEF16161706E807F907C0F0C6
:1048A00012161306E407F50798F0621B730B840BCE
:1048B000950B39F40A2661F0232B242B252B21F4A8
:1048C00008950A2609F4A140A6958FEF811D811D48
:1048D000089597F99F6780E870E060E008959FEF82
:1048E00080EC0895DF93CF931F930F93FF92EF9285
:1048F000DF927B018C01689406C0DA2EEF010E94E2
:104900000125FE01E894A591259135914591559198
:10491000A6F3EF010E949422FE019701A801DA9408
:1049200069F7DF90EF90FF900F911F91CF91DF918A
:10493000089500240A941616170618060906089505
:1049400000240A9412161306140605060895092E6B
:104950000394000C11F4882352F0BB0F40F4BF2BDA
:1049600011F460FF04C06F5F7F4F8F4F9F4F08951A
:1049700057FD9058440F551F59F05F3F71F0479510
:10498000880F97FB991F61F09F3F79F087950895F5
:10499000121613061406551FF2CF4695F1DF08C014
:1049A000161617061806991FF1CF86957105610531
:1049B00008940895E894BB2766277727CB0197F9D9
:1049C00008950E94452408F48FEF08959B01AC01DF
:1049D00060E070E080E89FE30C9460230E94012572
:1049E0000C94A7240E94992438F00E94A02420F05F
:1049F000952311F00C9469240C946F2411240C94C9
:104A0000DB240E94B82470F3959FC1F3950F50E00A
:104A1000551F629FF001729FBB27F00DB11D639F70
:104A2000AA27F00DB11DAA1F649F6627B00DA11D16
:104A3000661F829F2227B00DA11D621F739FB00DBC
:104A4000A11D621F839FA00D611D221F749F33272C
:104A5000A00D611D231F849F600D211D822F762FC5
:104A60006A2F11249F5750409AF0F1F088234AF0A2
:104A7000EE0FFF1FBB1F661F771F881F915050400E
:104A8000A9F79E3F510580F00C9469240C94DB2417
:104A90005F3FE4F3983ED4F3869577956795B79595
:104AA000F795E7959F5FC1F7FE2B880F911D9695AF
:104AB000879597F90895FA01EE0FFF1F30962105AB
:104AC0003105A1F16115710561F48038BFE39B07E1
:104AD00049F168949038810561F08038BFEF9B07F9
:104AE00041F099234AF5FF3FE1053105210519F110
:104AF000E8940894E795D901AA2329F4AB2FBE2F97
:104B0000F85FD0F310C0FF5F70F4A695E0F7F739B7
:104B100050F019F0FF3A38F49F779F930DD00F9023
:104B200007FC9058089546F00C946F2460E070E004
:104B300080E89FE308954FE79F775F934F933F93FC
:104B40002F930E948B262F913F914F915F910E944E
:104B5000EE240C94022619F416F40C946F240C9491
:104B600034260E94C024B8F39923C9F3B6F39F57A3
:104B7000550B87FF0E9442260024A0E640EA9001E0
:104B800080585695979528F4805C660F771F881F8C
:104B900020F026173707480730F4621B730B840B8D
:104BA000202931294A2BA6951794079420253125D1
:104BB0004A2758F7660F771F881F20F026173707F8
:104BC000480730F4620B730B840B200D311D411D1F
:104BD000A09581F7B901842F9158880F96958795F4
:104BE00008959B01AC010C94EE240E944524880B8F
:104BF000990B089529F416F00C9469240C94DA2486
:104C00000C946F240E94C024A8F39638A0F707F8EC
:104C10000F92E8942BE33AEA48EB5FE70E94042501
:104C20000F920F920F924DB75EB70F920E94D3264C
:104C3000E5E9F0E00E9472244F915F91EF91FF91BE
:104C4000E595EE1FFF1F49F0FE57E0684427EE0F81
:104C5000441FFA95E1F74195550B0E944D260F90A0
:104C600007FE0C94E62408959F3F31F0915020F404
:104C7000879577956795B795880F911D9695879538
:104C800097F9089591505040660F771F881FD2F70B
:104C900008950C9469240C9434260E94C024D8F3FF
:104CA0009923C9F3940F511DA3F39150504094F0F0
:104CB00059F0882332F0660F771F881F91505040BB
:104CC000C1F79E3F51052CF7880F911D969587954A
:104CD00097F908955F3FACF0983E9CF0BB2786950E
:104CE00077956795B79508F4B1609395C1F7BB0FB9
:104CF00058F711F460FFE8CF6F5F7F4F8F4F9F4FE2
:104D0000E3CF0C94DB2416F00C9434260C946F241F
:104D100068940C9469240E94C024A8F39923C1F3D9
:104D2000AEF3DF93CF931F930F93FF92C92FDD272D
:104D300088232AF02197660F771F881FDAF720E073
:104D400030E040E85FEB9FE3883920F0803E38F0A8
:104D500021968F770E947D22EDEBF0E004C00E9447
:104D60007D22EAEEF0E00E9472248B01BE01EC018C
:104D7000FB2E6F5771097595771F880B990B0E9451
:104D80000A2428E132E741E35FE30E940125AF2DC9
:104D90009801AE01FF900F911F91CF91DF910E947A
:104DA00094220C94A724FA01DC01AA0FBB1F9B01DB
:104DB000AC01BF5728F4222733274427507820C05E
:104DC000B75190F4AB2F0024469537952795011CD9
:104DD000A395D2F3002071F0220F331F441FB39527
:104DE000DAF30ED00C947C2261307105A0E88A07BA
:104DF000B94630F49B01AC01662777278827907865
:104E0000309621F020833183428353830895A1E2B9
:104E10001A2EAA1BBB1BFD010DC0AA1FBB1FEE1F34
:104E2000FF1FA217B307E407F50720F0A21BB30B7F
:104E3000E40BF50B661F771F881F991F1A9469F7FB
:104E400060957095809590959B01AC01BD01CF0157
:104E50000895052E97FB1EF400940E94402757FDED
:104E600007D00E94072707FC03D04EF40C9440277C
:104E700050954095309521953F4F4F4F5F4F089586
:104E800090958095709561957F4F8F4F9F4F0895B6
:104E9000EE0FFF1F0590F491E02D0994FB01DC015A
:104EA00004C08D910190801921F441505040C8F701
:104EB000881B990B0895FB01DC0102C001900D9243
:0C4EC00041505040D8F70895F894FFCFFF
:104ECC00FFFFFFFF80817E7E050000000000478011
:104EDC00817EFA0800000000000000000C80817E3A
:104EEC00FD0800000000000000000CFFFFFF0008A0
:104EFC00080808000000FF000000010000007E0010
:104F0C00005600007E01016619000000C0A80500D3
:104F1C000000010100000000000500781E000019CF
:104F2C00A00000F0410000803F4A4BFFFFFFFFFF55
:104F3C00FF000000009602F6012302E30254023245
:104F4C0002460200000000FF05D2055F08A805CB51
:104F5C0005B805A90500000000CC090D0A20537501
:104F6C00626E6574204368616E67656420746F3A85
:104F7C002000202E20000D0A41646170746572209F
:104F8C0049503A20000D0A204D6F64756C6520491C
:104F9C00503A200043757272656E7453656E736F70
:104FAC00723A20006E616E00696E66006F76660064
:104FBC00537465657220436F756E74733A20005399
:104FCC00776974636820427974653A2000202D2D2E
:104FDC002D2D2D2D2D2D2D20004572726F72203D03
:104FEC00203000434D5053313420414444524553FA
:104FFC00733A20307800434D50533134204F6B2E90
:10500C000D0A004572726F72203D203400434D50E2
:10501C0053206E6F7420436F6E6E656374656420ED
:10502C006F7220466F756E640D0A000D0A43686539
:10503C00636B696E6720666F7220424E4F30385832
:10504C00206F6E2000424E4F30385820414444525D
:10505C004553733A20307800424E4F303858204F29
:10506C006B2E0D0A005265706F7274204944203A01
:10507C00203078005265706F727420696E7465729E
:10508C0076616C203A2000206D7300424E4F303810
:10509C0030206E6F74206465746563746564206180
:1050AC007420676976656E204932432061646472AE
:1050BC006573732E00424E4F303858206E6F74203B
:1050CC00436F6E6E6563746564206F7220466F75F6
:1050DC006E64005F49505F3A2000475761793A206F
:1050EC00004167494F3A20000D0A536574757020D2
:1050FC00636F6D706C6574652C2077616974696E73
:10510C006720666F722041674F70656E4750530081
:10511C00424E4F30387820696E6974206661696C34
:06512C007321210D0A00B1
:00000001FF
