:100000000C946E010C9496010C9496010C9496013C
:100010000C9496010C9496010C9496010C94960104
:100020000C9496010C9496010C9496010C949601F4
:100030000C9496010C9496010C9496010C949601E4
:100040000C9480100C9496010C944E100C94281073
:100050000C9496010C9496010C9496010C949601C4
:100060000C94CA100C949601084AD73B3BCE016E03
:1000700084BCBFFDC12F3D6C74319ABD56833DDAFF
:100080003D00C77F11BED9E4BB4C3E916BAAAABE0E
:10009000000000803F07634236B79BD8A71A396833
:1000A0005618AEBAAB558C1D3CB7CC5763BD6DED41
:1000B000FD753EF6177231BF000000803F0800005A
:1000C00000BE922449123EABAAAA2ABECDCCCC4C8B
:1000D0003E00000080BEABAAAAAA3E00000000BFFE
:1000E000000000803F0000000000084178D3BB43BF
:1000F00087D1133D190E3CC3BD4282AD2B3E68EC47
:100100008276BED98FE1A93E4C80EFFFBE01C4FFCD
:100110007F3F00000000000045000082000040001A
:100120002000010800060400010000000024002750
:10013000002A0000000000250028002B000000001D
:10014000002300260029000404040404040404021B
:100150000202020202030303030303010204081064
:100160002040800102040810200102040810200031
:100170000000080002010000030407000000000066
:100180000000002053572056657273696F6E20502F
:10019000617463683A2030780020535720427569B3
:1001A0006C64204E756D6265723A20307800205381
:1001B000572050617274204E756D6265723A20301E
:1001C00078002053572056657273696F6E204D6911
:1001D0006E6F723A203078005357205665727369FB
:1001E0006F6E204D616A6F723A2030780046616907
:1001F0006C656420746F206163636573732045745C
:100200006865726E657420636F6E74726F6C6C6576
:1002100072004779726F2D766563746F7200576153
:100220006B652D7265706F72740053656E736F72BB
:100230002D7265706F727400436F6E74726F6C0014
:1002400045786563757461626C6500436F6D6D61BF
:100250006E6400204368616E6E656C3A00204C65E8
:100260006E6774683A00205B436F6E74696E7565E3
:1002700064207061636B65745D2000300020002095
:10028000426F64793A00300020004865616465720D
:100290003A00300020004865616465723A005350AE
:1002A0004920494E542074696D656F757400535030
:1002B000492057616974004932432074696D656F44
:1002C0007574004D452043616C207265706F7274C7
:1002D00020666F756E6421002100E91111241FBE94
:1002E000CFEFD8E0DEBFCDBF12E0A0E0B1E0E2E9A1
:1002F000FEE302C005900D92AC39B107D9F726E0B4
:10030000ACE9B2E001C01D92AC36B207E1F711E0F2
:10031000CEE6D1E004C02197FE010E94341FCD3605
:10032000D107C9F70E945F120C94471F0C9400007C
:10033000CF93DF93209142042223C1F0FC0120815E
:100340002223A1F0C2E4D4E0AEE3B4E09C012C5F30
:100350003F4F899141919D918427892339F4E21778
:10036000F307B9F781E0DF91CF91089580E0FBCFEB
:100370008091460490914704891B990B0895089534
:100380000895EF92FF920F931F93CF93DF938C0109
:100390007B01D0E0C0E0F701EC0FFD1F6491662304
:1003A00061F0D801ED91FC910190F081E02DC80140
:1003B0000995892B11F02196EECFCE01DF91CF91D7
:1003C0001F910F91FF90EF900895AF92BF92CF923F
:1003D000DF92EF92FF920F931F93CF93DF936C0105
:1003E0007B018B01040F151FEB015E01AE18BF08E6
:1003F000C017D10759F06991D601ED91FC91019098
:10040000F081E02DC6010995892B79F7C501DF91AF
:10041000CF911F910F91FF90EF90DF90CF90BF9001
:10042000AF900895FC01538D448D252F30E0842F2B
:1004300090E0821B930B541710F0CF96089501970C
:100440000895FC01918D828D981761F0A28DAE0FF9
:10045000BF2FB11D5D968C91928D9F5F9F73928F80
:1004600090E008958FEF9FEF0895FC01918D828DAC
:10047000981731F0828DE80FF11D858D90E0089579
:100480008FEF9FEF0895FC01918D228D892F90E0D1
:10049000805C9F4F821B91098F739927089588E98B
:1004A00094E00E94430221E0892B09F420E0822F8E
:1004B000089580E090E0892B29F00E944F0281117D
:1004C0000C9400000895FC01A48DA80FB92FB11D54
:1004D000A35ABF4F2C91848D90E001968F7399277A
:1004E000848FA689B7892C93A089B1898C91837058
:1004F00080648C93938D848D981306C00288F38951
:10050000E02D80818F7D80830895EF92FF920F937D
:100510001F93CF93DF93EC0181E0888F9B8D8C8DAF
:1005200098131AC0E889F989808185FF15C09FB7A3
:10053000F894EE89FF896083E889F9898081837066
:10054000806480839FBF81E090E0DF91CF911F9115
:100550000F91FF90EF900895F62E0B8D10E00F5F36
:100560001F4F0F731127E02E8C8D8E110CC00FB60C
:1005700007FCFACFE889F989808185FFF5CFCE01A4
:100580000E946302F1CFEB8DEC0FFD2FF11DE35ABA
:10059000FF4FF0829FB7F8940B8FEA89FB89808127
:1005A0008062CFCFCF93DF93EC01888D8823B9F0A1
:1005B000AA89BB89E889F9898C9185FD03C080816E
:1005C00086FD0DC00FB607FCF7CF8C9185FFF2CFEB
:1005D000808185FFEDCFCE010E946302E9CFDF91DC
:1005E000CF910895833081F028F4813099F08230E2
:1005F000A9F008958730A9F08830C9F08430B1F4AB
:10060000809180008F7D03C0809180008F778093E0
:100610008000089584B58F7784BD089584B58F7D5B
:10062000FBCF8091B0008F778093B00008958091C8
:10063000B0008F7DF9CFCF93DF93282F30E0F90101
:10064000E159FE4F8491F901E55AFE4FD491F90129
:10065000E95BFE4FC491CC23A1F081110E94F2020C
:10066000EC2FF0E0EE0FFF1FE35CFE4FA591B4917D
:10067000EC91ED2381E090E009F480E0DF91CF91EF
:10068000089580E090E0FACF1F93CF93DF93282F57
:1006900030E0F901E159FE4F8491F901E55AFE4F2E
:1006A000D491F901E95BFE4FC491CC23A9F0162F38
:1006B00081110E94F202EC2FF0E0EE0FFF1FED5CC3
:1006C000FE4FA591B4918FB7F894EC91111108C029
:1006D000D095DE23DC938FBFDF91CF911F910895DA
:1006E000DE2BF8CFCF93DF9390E0FC01E55AFE4F6D
:1006F0002491895B9E4FFC0184918823D1F090E086
:10070000880F991FFC01E75DFE4FA591B491FC0194
:10071000ED5CFE4FC591D49161110EC09FB7F89466
:100720008C91E22FE0958E238C932881E223E8833D
:100730009FBFDF91CF9108958FB7F894EC91E22B92
:10074000EC938FBFF6CF3FB7F8948091020390915E
:100750000303A0910403B091050326B5A89B05C02F
:100760002F3F19F00196A11DB11D3FBFBA2FA92F30
:10077000982F8827BC01CD01620F711D811D911D2D
:1007800042E0660F771F881F991F4A95D1F7089599
:100790008F929F92AF92BF92CF92DF92EF92FF9291
:1007A0004B015C010E94A3036B017C010E94A30327
:1007B0006C197D098E099F09683E7340810591057A
:1007C000A8F321E0821A9108A108B10888EEC80EAA
:1007D00083E0D81EE11CF11C81149104A104B10432
:1007E00029F7FF90EF90DF90CF90BF90AF909F9050
:1007F0008F9008952091DE02260F3327331F213278
:100800003105ECF420919204FC0190E080E024306A
:1008100069F082E00895A091DE022191AC0142547A
:100820005D4FA40FB52FB11D2C930196861798F339
:100830008091DE02680F6093DE0280E0089581E01F
:1008400008951092920481E08093710410926C04D8
:1008500061E082E10E94440361E083E10E9444037D
:10086000E9EBF0E080818E7F808380818D7F8083C3
:1008700088E48093B80085E48093BC000895CF930A
:10088000DF9391E09093BD028823B9F0C091B80046
:10089000D091BA008091BC008A7B8093BC0060E05C
:1008A00082E10E94440360E083E10E9444030E94CD
:1008B0002104D093BA00C093B800DF91CF9108957E
:1008C000CF92DF92EF92FF920F931F93CF93DF931C
:1008D000D82FC62F613208F098C00E94A3036B0185
:1008E0007C018091920481116BC081E0809392041D
:1008F000809371049FEF9093700410926F049C0F8B
:1009000090936E0480936D0480916D04DD0FD82B5D
:10091000D0936D0480916C04813009F078C01092FE
:100920006C040E94A3036B017C0180916D04809391
:10093000BB008091940490919504A0919604B0918D
:100940009704892B8A2B8B2BA1F00E94A303009183
:1009500094041091950420919604309197046C1999
:100960007D098E099F09061717072807390708F41C
:1009700048C08091BC0083FDD8CF85EC8093BC003B
:100980000E94A3036B017C0180919204813009F4E1
:1009900040C080916F048C1710F4C0916F04ECE498
:1009A000F4E0A2E7B4E080E08C1355C08C2FDF9117
:1009B000CF911F910F91FF90EF90DF90CF9008950E
:1009C0008091940490919504A0919604B09197041D
:1009D000892B8A2B8B2B09F484CF0E94A3030091CF
:1009E00094041091950420919604309197046C1909
:1009F0007D098E099F09061717072807390708F090
:100A000070CF809193040E943F04C0E0CFCF85EE69
:100A1000B5CF8091940490919504A0919604B091E3
:100A20009704892B8A2B8B2B09F4AECF0E94A3034A
:100A300000919404109195042091960430919704AC
:100A40006C197D098E099F090617170728073907B2
:100A500008F09ACFD6CF91919D938F5FA5CF08953F
:100A6000E091470480914604E81730F4F0E0EE5836
:100A7000FB4F808190E008958FEF9FEF0895909154
:100A80004704809146042FEF3FEF981748F4E92F71
:100A9000F0E0EE58FB4F208130E09F5F90934704D9
:100AA000C9010895CF92DF92EF92FF920F931F93A7
:100AB000CF93DF937C01CB018A0120914B04222349
:100AC00089F0EB016B01C40ED51ECC15DD0569F074
:100AD0006991D701ED91FC910190F081E02DC70162
:100AE0000995F3CF642F0E94FA03C801DF91CF91DB
:100AF0001F910F91FF90EF90DF90CF900895CF93CB
:100B0000DF931F92CDB7DEB7698320914B04222378
:100B1000F9F020914804203258F021E030E0FC0147
:100B20003383228390E080E00F90DF91CF9108958E
:100B300080914904E82FF0E0E356FD4F99819083BE
:100B40008F5F809349048093480481E090E0ECCF6C
:100B500061E0CE0101960E94FA03F7CFCF92DF92B7
:100B6000EF92FF920F931F93CF93DF93D09148049E
:100B700081E0D13208F09CC0C0914A040E94A303D6
:100B80006B017C018091920481116CC082E08093A2
:100B9000920481E0809371048FEF8093700410922F
:100BA0006F04D0936E04ADE9B2E0ECE4F4E080E0D1
:100BB000D8138DC010926D0480916D04CC0FC82B9A
:100BC000C0936D0480916C04813009F084C0109250
:100BD0006C040E94A3036B017C0180916D048093DF
:100BE000BB008091940490919504A0919604B091DB
:100BF0009704892B8A2B8B2BA1F00E94A3030091D1
:100C000094041091950420919604309197046C19E6
:100C10007D098E099F09061717072807390708F469
:100C200042C08091BC0083FDD8CF85EC8093BC008E
:100C30000E94A3036B017C0180919204823009F42D
:100C40004CC0809170048F3F09F469C0809170049A
:100C5000803209F466C080917004803309F463C067
:100C600084E026C08091940490919504A09196040C
:100C7000B0919704892B8A2B8B2B09F483CF0E9488
:100C8000A30300919404109195042091960430914F
:100C900097046C197D098E099F0906171707280705
:100CA000390708F06FCF809193040E943F0485E0DC
:100CB000109249041092480410924B04DF91CF9196
:100CC0001F910F91FF90EF90DF90CF9008959D912D
:100CD00091938F5F6DCF85EEA9CF80919404909111
:100CE0009504A0919604B0919704892B8A2B8B2BA5
:100CF00009F4A2CF0E94A3030091940410919504DB
:100D000020919604309197046C197D098E099F09F2
:100D1000061717072807390708F08ECFC4CF80E0E1
:100D2000C7CF82E0C5CF83E0C3CF0F931F93CF938C
:100D3000DF9370E0635A7C4F2130A9F48A01075F8A
:100D40001F4F30E020E0EB01FA01E230F10578F0CE
:100D5000A991B991BA27AB27BA270A0F1B1F211DEA
:100D6000311D3297F2CF00E010E09801ECCFFA018C
:100D7000EE7F6E0F7F1F4E175F0769F0FB0140810A
:100D800050E070E060E0762F652F542F4427040F69
:100D9000151F261F371FA901662777274115510503
:100DA0006105710519F022273327F1CF00951095C1
:100DB000E82FF0E0E35AFC4F10830183DF91CF91DD
:100DC0001F910F9108958EBD0DB407FEFDCF0895BC
:100DD00061E080910A030E94440378940895F89496
:100DE00060E080910A030C9444030F931F93CF9308
:100DF000DF93EC018B010E94EF062097B9F08AE3A4
:100E00000E94E3061EBCF801CE01019739F00DB433
:100E100007FEFDCF2EB51EBC2193F7CF2197C00F43
:100E2000D11F0DB407FEFDCF8EB58883DF91CF9122
:100E30001F910F910C94E8061F93CF93DF93182F07
:100E4000C62FD42F0E94EF068C2F8F71812B0E940A
:100E5000E3068D2F0E94E306DF91CF911F910C9442
:100E6000E806CF93C82FC07680919C028C1799F02A
:100E700043E06FE180EA0E941C07C0939C024C2F64
:100E800050E085E0559547958A95E1F76FE180E858
:100E9000CF910C941C07CF910895CF93DF93C82F67
:100EA000D62F0E9431074D2F6C2F80E4DF91CF9118
:100EB0000C941C07CF93DF93C82FD72F0E944D07A8
:100EC0006D2F81E08C0FDF91CF910C944D07CF9364
:100ED000C82F0E9431070E94EF068C2F8F710E944D
:100EE000E30680E00E94E306C7FF03C080E00E94A3
:100EF000E306CEB50E94E8068C2FCF910895CF93DC
:100F0000DF93EC0140E86FE180E80E941C0740E8B5
:100F10006FE180EA0E941C074AE06CE180EA0E94CF
:100F20001C0760E07CE082E00E945A07BE01745F0B
:100F300086E00E945A0740E060E08AE70E941C07B2
:100F40000E94EF062097B1F08AE70E94E3068091A5
:100F50005D038EBDEEE5F3E0C35ADC4FEC17FD07F1
:100F600031F081910DB407FEFDCF8EBDF7CF0DB4EA
:100F700007FEFDCF0E94E80648E06FE180E80E948E
:100F80001C07D0E0C0E08CE10E9467078A7029F45A
:100F90002196C83E83E0D807B1F78CE10E9467072D
:100FA00081FD03C0C83ED34039F448E06FE180EAD8
:100FB000DF91CF910C941C07DF91CF9108950F938F
:100FC0001F93CF93DF938C01CDE5D3E04C96988BA4
:100FD0008CE1800F898B188E198E80E48C8B1D8A92
:100FE0008E8B20E044E150E06EE088E10E9495069F
:100FF000C80108969EA388E0800F8FA3A801405FD8
:101000005F4F21E06AE188E20E949506C8018A9656
:10101000DF91CF911F910F910C947F0790E080E0BA
:10102000089508958EBD00000DB407FEFDCF8EB566
:1010300008958CBD9DBD0895DC01ED91FC9101905A
:10104000F081E02D09940F931F93FC0100E012E161
:101050002AE730E090E0401751076207730740F439
:1010600036952795179507959F5F9630A1F797E0DE
:10107000292F286B269520839095917091831F913D
:101080000F910895CF92DF92EF92FF92CF93C62FE8
:10109000BC01990F880B990B0E94FB1B6B017C0113
:1010A0006C2F70E0719561957109072E000C880B0B
:1010B000990B0E94FB1B9B01AC0160E070E080E09B
:1010C00090E40E944C1D9B01AC01C701B6010E9437
:1010D000DF1CCF91FF90EF90DF90CF900895FF92AB
:1010E0000F931F93CF93DF9307E311E0C4E0D0E0A9
:1010F000F801F1908F01CE010E94571AF81621F0E5
:101100006F2DCE010E945F1A2196C730D10581F75D
:1011100087E391E0DF91CF911F910F91FF900895A8
:10112000DC0196E0FB0101900D929A95E1F708959C
:10113000CF93DF93EB0144E050E0BC0189E793E0FB
:101140000E943A1F892B49F463E773E0CE010E94A5
:10115000900881E0DF91CF91089580E0FBCFBC0142
:101160008DE593E00E9490086EE173E083E693E0E2
:101170000C949008DC0194E0FB0101900D929A958B
:10118000E1F70895FB0101900020E9F73197AF01E5
:10119000461B570BDC01ED91FC910280F381E02DA1
:1011A00009948F929F92AF92BF92EF92FF920F930A
:1011B0001F93CF93DF93CDB7DEB7A1970FB6F89407
:1011C000DEBF0FBECDBF7C01FA01CB0119A22230D8
:1011D00008F42AE08E010F5D1F4F822E912CB12C56
:1011E000A12CBF01A50194010E94F31EF901CA01BF
:1011F0006A300CF5605DD8016E938D01232B242B92
:10120000252B79F790E080E0109721F0BD01C70110
:101210000E94C208A1960FB6F894DEBF0FBECDBFE4
:10122000DF91CF911F910F91FF90EF90BF90AF9002
:101230009F908F900895695CDECF242F462F50E059
:1012400070E060E00C94D1088F929F92AF92BF92B1
:10125000CF92DF92EF92FF920F931F93CF93DF9382
:101260007C01EB016C0182E0C80ED11C4701E5E076
:101270008E0E911C10E000E0F60161916F014AE0D2
:1012800050E0CE010E941D095C01E881F9810190C6
:10129000F081E02D6EE2CE0109958A0D9B1D080FAD
:1012A000191FC814D90441F74AE050E0F7016581DD
:1012B000CE010E941D09800F911FDF91CF911F91D8
:1012C0000F91FF90EF90DF90CF90BF90AF909F90E5
:1012D0008F9008956CE671E00C94C208CF93DF9371
:1012E000BC0188E994E00E94C208EC0188E994E01E
:1012F0000E946A098C0F9D1FDF91CF910895CF93B3
:10130000DF9340E150E0682F88E994E00E941D09D6
:10131000EC0188E994E00E946A098C0F9D1FDF911F
:10132000CF9108950F931F93CF93DF93EC010E9409
:10133000C1018C01CE010E946A09800F911FDF91CB
:10134000CF911F910F9108951F93CF93DF93E09159
:101350004105F09142054091490560914705709122
:101360004805209146058091460590914705A0913A
:101370004805B09149058093340690933506A093B3
:101380003606B093370690914C05D0914E0580916A
:101390004A05309143053530B1F590914505322F1E
:1013A000292F309321062093200670932306609303
:1013B0002206982F842F90932506809324068091EF
:1013C0004B0590914C0590932706809326068091BB
:1013D0004D0590914E0590932D0680932C0680919B
:1013E0004F059091500590932F0680932E06809183
:1013F0005105909152059093310680933006DF910C
:10140000CF911F910895FF773497C0914F05937046
:1014100060914E0570914F054091500550915105D6
:101420002091520530915305EF30F105FCF0A09169
:101430005405B09155057197DCF0E0915605F09197
:1014400057058130C1F4892F90E09093070680936F
:1014500006067093010660930006509303064093BE
:1014600002063093050620930406C9CFB0E0A0E041
:10147000F0E0E0E0E6CF843099F4892F90E090939B
:101480000F0680930E06709309066093080650932A
:101490000B0640930A0630930D0620930C06AFCF3F
:1014A000823099F4892F90E0909317068093160666
:1014B0007093110660931006509313064093120622
:1014C00030931506209314069ACF833099F4892F10
:1014D00090E090931F0680931E0670931906609308
:1014E000180650931B0640931A0630931D0620934E
:1014F0001C0685CF853031F0883021F018ED180FAB
:101500001230D8F4892F90E090932B0680932A060E
:101510007093210660932006509323064093220681
:101520003093250620932406B0932706A093260621
:10153000F0932906E093280662CF813129F4309395
:101540003306209332065BCF833119F4D0933806EB
:1015500056CF8E3199F4C0933906A0E5B5E090E0FE
:1015600080E02D91E0913A06F0913B06E80FF91FDB
:101570002083019689309105A1F741CF843169F428
:101580007093470660934606509349064093480679
:1015900030934B0620934A0632CF853169F470931D
:1015A0004D0660934C0650934F0640934E06309381
:1015B00051062093500623CF863169F47093530669
:1015C0006093520650935506409354063093570645
:1015D0002093560614CF813F09F011CF8091F50575
:1015E000882341F068ED72E08091F3059091F40555
:1015F0000E94920980914C05873009F000CF8091BC
:10160000F505882341F063EC72E08091F305909139
:10161000F4050E94920980914F0580933C06EFCE1D
:10162000CF93C4E68091F0059091F105DC01ED9136
:10163000FC910084F185E02D099518161906BCF07F
:1016400061E070E080E090E00E94C803C15051F773
:101650008091F505882349F067EB72E08091F305EE
:101660009091F4050E94920980E0CF91089581E065
:10167000FCCFCF92DF92EF92FF920F931F93CF9305
:10168000DF9300D0CDB7DEB7082FF62E14E0160F8B
:101690008091F0059091F105009709F073C02DE756
:1016A000E22E8091FE050E941B03892B21F180917F
:1016B000F505882341F06EEA72E08091F305909180
:1016C000F4050E94920961E070E080E090E00E94E1
:1016D000C803EA94E110E5CF9091F505992309F448
:1016E00045C06EE972E08091F3059091F4050E9487
:1016F000920990E03BC04091F8055091F905609146
:10170000FA057091FB05CE0101960E94230889819C
:101710009A810E94190860E08091FC050E944403B0
:10172000812F0E94120880E00E941208802F0E94E0
:101730001208A02FB0E0AB53BA4F8C9191E0980FF4
:101740009C930E94120895E4C92E95E0D92E10E0D2
:10175000D6018D916D010E9412081F5FF112F8CF22
:1017600061E08091FC050E94440391E0892F0F9075
:101770000F90DF91CF911F910F91FF90EF90DF902D
:10178000CF9008952091F20531E030934B042093DF
:101790004A041092490410924804612F70E00E949C
:1017A0001C0870E060E08091F0059091F1050E94C6
:1017B0001C088091F0059091F105DC01ED91FC9100
:1017C0000190F081E02D602F09958091F0059091B6
:1017D000F105DC01ED91FC910190F081E02DA02F4D
:1017E000B0E0AB53BA4F6C9121E0260F2C930995D2
:1017F00085E4C82E85E0D82E10E08091F005909108
:10180000F105F60161916F01DC01ED91FC91019010
:10181000F081E02D09951F5FF112EFCF8091F00567
:101820009091F1050E94AE0591E0882309F49ECFC6
:1018300060CF8F929F92BF92CF92DF92EF92FF92F2
:101840000F931F93CF93DF9300D0CDB7DEB7809176
:10185000F0059091F105892B09F067C18091FE0593
:101860000E941B03019709F46BC04091F805509149
:10187000F9056091FA057091FB05CE0101960E9471
:10188000230889819A810E94190860E08091FC05F3
:101890000E94440380E00E941208082F80E00E940A
:1018A0001208182F80E00E941208F82E80E00E9493
:1018B00012080093410510934205F092430580936E
:1018C0004405C8019F770097E9F58091F5058823C5
:1018D000B9F166E972E08091F3059091F4050E94F8
:1018E000C10101E415E055E4E52E55E0F52E64E96B
:1018F00072E08091F3059091F4050E94C101D80136
:101900008D918D01803140F462E972E08091F305A0
:101910009091F4050E94C10140E150E0F801319737
:1019200060818091F3059091F4050E941D09E016F5
:10193000F106E9F68091F3059091F4050E946A0999
:10194000F12C22C08C0104501109F12CE12CE0167D
:10195000F10678F48FEF0E941208B0E8EB16F1045C
:1019600020F4F701EF5BFA4F8483EFEFEE1AFE0AE3
:10197000EECF61E08091FC050E944403F090F505F4
:10198000F11011C0FF24F3948F2D0F900F90DF9171
:10199000CF911F910F91FF90EF90DF90CF90BF906C
:1019A0009F908F90089500914105109142056AE83B
:1019B00072E08091F3059091F4050E94C10141E429
:1019C000C42E45E0D42E68E872E08091F305909132
:1019D000F4050E94C101D6018D916D01803140F462
:1019E00066E872E08091F3059091F4050E94C101D0
:1019F00040E150E0F601319760818091F3059091CC
:101A0000F4050E941D09B5E4CB16B5E0DB06D9F656
:101A10003CEFB32EB00EE8E2EB1510F428E2B22E44
:101A20006FE772E08091F3059091F4050E94C10187
:101A300095E4C92E95E0D92EE12C8091F305909183
:101A4000F405BE1401F16DE772E00E94C101460188
:101A5000D6018C91803140F46BE772E08091F30500
:101A60009091F4050E94C101BFEFCB1ADB0A40E15F
:101A700050E0F40160818091F3059091F4050E949B
:101A80001D09E394DACF17FF05C066E672E00E94F5
:101A900092091F776DE572E08091F3059091F4054E
:101AA0000E94C101A80170E060E02AE08091F30586
:101AB0009091F4050E94D10863E572E08091F305EE
:101AC0009091F4050E94C101609143058091F30556
:101AD0009091F40561110BC06BE472E00E94C101AA
:101AE0008091F3059091F4050E946A094DCF613011
:101AF00019F460E472E0F2CF623019F468E372E046
:101B0000EDCF633019F46AE272E0E8CF643019F483
:101B10006EE172E0E3CF653019F462E172E0DECF8E
:101B20004AE050E00E941D09DBCF64E08091F2059D
:101B30000E94600410924704809346040E94100B98
:101B4000882309F4FDCE8091F0059091F105DC0128
:101B5000ED91FC910284F385E02D0995F82E80919A
:101B6000F0059091F105DC01ED91FC910284F38583
:101B7000E02D0995E82E8091F0059091F105DC01AA
:101B8000ED91FC910284F385E02D0995182F809149
:101B9000F0059091F105DC01ED91FC910284F38553
:101BA000E02D0995F0924105E0924205109343051E
:101BB0008093440500E01E2D0F291F7701151105A4
:101BC00009F4BECE04501109D12CC12C0115110508
:101BD00009F4D8CE78010D31110518F08CE1E82E0A
:101BE000F12C64E06E0D8091F2050E946004109269
:101BF0004704809346040E94100B882309F4C2CE48
:101C00008091F0059091F105DC01ED91FC91028449
:101C1000F385E02D09958091F0059091F105DC01A7
:101C2000ED91FC910284F385E02D09958091F005FA
:101C30009091F105DC01ED91FC910284F385E02D9A
:101C400009958091F0059091F105DC01ED91FC91F1
:101C50000284F385E02D0995B12CBE141F04C0F455
:101C60008091F0059091F105DC01ED91FC910284E9
:101C7000F385E02D0995B0E8CB16D10438F4F601D0
:101C8000EF5BFA4F8483F60131966F01B394E5CF91
:101C90000E191F099BCFCF938091FE058F3F49F40A
:101CA0000E94190CC82F811109C0C0E08C2FCF9160
:101CB00008950E941B03019799F7F7CF8091430580
:101CC000833039F4809145058B3F79F70E94A40950
:101CD000EDCF8230A1F580914505813FC9F4809117
:101CE0004705873019F780914A0580933C0680911B
:101CF0004B0580933D0680914C0580933E06809174
:101D00004D0580933F0680914E0580934006CECFCF
:101D10008C3F61F6809146058093410680914A058B
:101D200090914B05A0914C05B0914D0580934206D2
:101D300090934306A0934406B0934506B7CF8530F1
:101D400009F0B3CFC3CF0F931F93CF93DF93D62F59
:101D5000C72FBC0188E994E00E94C2080D2F1C2FF8
:101D6000C0E0F80161918F014AE050E088E994E019
:101D70000E941D09C33029F06EE288E994E00E94B8
:101D80008502CF5FC43069F788E994E0DF91CF9195
:101D90001F910F910C946A0985ED8093BC0080918E
:101DA000940490919504A0919604B091970407969D
:101DB000A11DB11D23E0B695A795979587952A9506
:101DC000D1F72091BC0024FD03C010929204089525
:101DD00040919404509195046091960470919704F9
:101DE000452B462B472B69F30097A105B10541F020
:101DF0002AE22A95F1F700C00197A109B109E1CFC4
:101E0000809193040C943F040F931F93CF938C0104
:101E10008CE391E00E94AF08EDE5F3E088E0848771
:101E2000C6E0C58748E050E061E271E08BE693E0F0
:101E30000E944E1AEDE7F3E0DF011D92CA95E9F723
:101E40006EE173E083E793E00E949008B80183E8B5
:101E500093E00E94BA0862E474E089E793E00E948C
:101E6000BA088AE290E0CF911F910F910C947F07FE
:101E7000EF92FF920F931F93CF93DF93182F092FA9
:101E8000EB01F42EE52ECB010E949801882309F482
:101E900052C081E593E00E94AF08BE018BE793E05A
:101EA0000E94BA0862E474E087E793E00E94BA08EF
:101EB0008881807F803E91F088819981AA81BB8151
:101EC0008F3F9F4FAF4FBF4F49F044E050E0BE01FE
:101ED00084E293E00E943A1F892B31F46CE371E0B5
:101EE0008DE593E00E94900888E08093690310924A
:101EF0006A0349E050E068E171E08BE693E00E94FC
:101F00004E1A10926D0381E180937403E092810375
:101F1000F092820300937F03109380031092830357
:101F20001092850310928603DF91CF911F910F913C
:101F3000FF90EF90089587E593E0ADCFFF920F9368
:101F40001F93CF93DF93F901D081D03809F07AC085
:101F5000C181C13809F076C082818F3709F072C023
:101F60008381883CD1F44FE057E261E271E081E087
:101F700094E10E94380F87E0E4E0F1E0A7E8B3E0E5
:101F800001900D928A95E1F787E090E0DF91CF9183
:101F90001F910F91FF900C94DF078A3CA9F5848173
:101FA000833009F04FC085818A3C09F04BC086819F
:101FB0008A3C09F047C0F090370100913801109138
:101FC00039014FE057E260E071E081E094E10E9466
:101FD000380FD0938703C093880389E780938903E0
:101FE0009BEC90938A0394E090938B03F0928C0384
:101FF00000938D0310938E0380938F0387E180936A
:1020000090038AE090E0C2CF893CE1F4848185307E
:10201000C9F48581893CB1F48681893C99F4878132
:1020200080933701808580933801818580933901C1
:102030000E946F08F0E0E0E0DF91CF911F910F91D7
:10204000FF900994DF91CF911F910F91FF90089518
:102050001F920F920FB60F9211242F933F934F931D
:102060005F936F937F938F939F93AF93BF93EF9300
:10207000FF9388E994E00E946302FF91EF91BF9182
:10208000AF919F918F917F916F915F914F913F9110
:102090002F910F900FBE0F901F9018951F920F92C7
:1020A0000FB60F9211242F938F939F93EF93FF936B
:1020B000E091A804F091A9048081E091AE04F09130
:1020C000AF0482FD1BC090818091B1048F5F8F733C
:1020D0002091B204821741F0E091B104F0E0E8569B
:1020E000FB4F958F8093B104FF91EF919F918F915A
:1020F0002F910F900FBE0F901F9018958081F4CFF5
:102100001F920F920FB60F9211242F933F938F932C
:102110009F93AF93BF938091150390911603A09165
:102120001703B09118033091010323E0230F2D37DB
:1021300058F50196A11DB11D20930103809315034D
:1021400090931603A0931703B09318038091020392
:1021500090910303A0910403B09105030196A11D82
:10216000B11D8093020390930303A0930403B093E3
:102170000503BF91AF919F918F913F912F910F9048
:102180000FBE0F901F90189526E8230F0296A11DF1
:10219000B11DD2CF1F920F920FB60F9211242F9321
:1021A0003F934F935F936F937F938F939F93AF93DF
:1021B000BF93EF93FF938091B900887F803609F435
:1021C0004AC0F0F5883209F4A7C018F5803109F447
:1021D0009BC0B8F4882309F4F9C0883009F494C08E
:1021E000FF91EF91BF91AF919F918F917F916F91EF
:1021F0005F914F913F912F910F900FBE0F901F90C5
:102200001895883109F488C0803251F780937004A2
:1022100014C0803409F49DC040F48033B9F388338E
:10222000F9F68093700485ECB0C0803509F485C060
:10223000883509F496C0883499F60E94CC0ED0CF28
:10224000883909F48CC038F5883729F050F488367D
:1022500011F0803729F683E08093920410920003F6
:1022600057C0883809F47BC0803919F0803809F0EC
:10227000B7CF80910003803208F071C0E091000375
:1022800081E08E0F809300038091BB00F0E0E0526C
:10229000FD4F80833DC0803B39F0E0F4803A09F483
:1022A00079C0883A09F09CCF84E080939204109220
:1022B000DF021092DE02E0910803F0910903099514
:1022C0008091DE0281110FC081E08093DE021092C6
:1022D000BE0209C0803C09F4A6CF883C09F4A3CF14
:1022E000883B09F07DCFE091DF0281E08E0F809383
:1022F000DF02F0E0E254FD4F80818093BB009091BB
:10230000DF028091DE0229C080916D048093BB00C2
:1023100085EC8093BC0064CF90916F0480916E0433
:10232000981758F5E0916F0481E08E0F80936F0449
:10233000F0E0E45BFB4F8081E9CFE0916F0481E046
:102340008E0F80936F048091BB00F0E0E45BFB4F45
:10235000808390916F0480916E049817C8F285E88D
:10236000D8CFE0916F0481E08E0F80936F0480914D
:10237000BB00F0E0E45BFB4F80838091710481112E
:102380005CCF81E080936C0484EA8093BC0010925F
:10239000920426CF85EC8093BC0010929204809129
:1023A0000003803230F4E0910003F0E0E052FD4F92
:1023B00010826091000370E0E0910603F091070342
:1023C00080EE92E00995109200030ACF10927004FB
:1023D00034CFE8E9F4E01382128288EE93E0A0E0C3
:1023E000B0E084839583A683B78326E431E031830C
:1023F000208325EC30E03587248724EC30E03787D4
:10240000268720EC30E0318B208B21EC30E0338BC1
:10241000228B22EC30E0358B248B26EC30E0378B9E
:10242000268B118E128E138E148EE5E3F5E0138247
:10243000128284839583A683B78388E591E0918394
:102440008083E6E6F6E08AE691E09183808312825B
:10245000138214821582E5ECF5E086E0DF011D921F
:102460008A95E9F71092CB051092F5058EE090E081
:1024700090935906809358068CE090E090935B0609
:1024800080935A0688E090E090935D0680935C0606
:1024900090935F0680935E0689E090E090936106DA
:1024A0008093600684E090E09093630680936206D8
:1024B0008AE090E090936506809364060895CF9338
:1024C000DF93CDB7DEB768970FB6F894DEBF0FBEC7
:1024D000CDBF789484B5826084BD84B5816084BDAD
:1024E00085B5826085BD85B5816085BD80916E00B2
:1024F000816080936E0010928100809181008260E3
:10250000809381008091810081608093810080911F
:1025100080008160809380008091B100846080930E
:10252000B1008091B00081608093B00080917A000A
:10253000846080937A0080917A00826080937A0030
:1025400080917A00816080937A0080917A0080681F
:1025500080937A001092C1001092470410924604B2
:1025600010924904109248040E9421048FEB91E0DC
:10257000909309038093080380EC91E09093070304
:1025800080930603E091A804F091A90482E080837F
:10259000E091A404F091A5041082E091A604F091CA
:1025A000A70483E380831092B004E091AC04F0911F
:1025B000AD0486E08083E091AA04F091AB048081B1
:1025C00080618083E091AA04F091AB0480818860EF
:1025D0008083E091AA04F091AB04808180688083BD
:1025E000E091AA04F091AB0480818F7D808390E01C
:1025F00080E00E94571A8093130381E090E00E94CC
:10260000571A80931403809113039091140381321D
:10261000944509F0DCC184E090E00E94571A809351
:10262000370185E090E00E94571A8093380186E0D8
:1026300090E00E94571A8093390111E010934B04E7
:1026400080E680934A04109249041092480485E37E
:1026500095E00E94AE058111D3C18FE691E00E9402
:102660006E0969E771E088E994E00E94C20820E100
:1026700040E650E060E070E088E994E00E94D10814
:1026800088E994E00E946A098CE891E00E946E0952
:1026900010933D0480913D04811175C10AE311E05E
:1026A000ECE38E2EE1E09E2EFF24F39422242A9464
:1026B000F9EF3F2EACE0EA2EBDEF7B2E88E0682ECE
:1026C00090E9592E2FE5422ED8018D918D018093EE
:1026D00012036DEB71E088E994E00E94C2088091DA
:1026E00012030E947F0980911203F0924B048093A1
:1026F0004A04109249041092480485E395E00E9430
:10270000AE0581118FC18FE691E00E946E0967EDE1
:1027100071E088E994E00E94C208809112030E944F
:102720007F098AEE91E00E946E09809112038093E6
:10273000F20585E395E09093F1058093F0052092F2
:10274000FE05F092450561E081E00E94390B62E3ED
:1027500070E080E090E00E94C8030E94190C811193
:10276000FCCF62E370E080E090E00E94C8030E942A
:10277000190C8111FCCF309245051092460562E09C
:1027800082E00E94390B0E94190C882309F441C190
:1027900080914505883F09F03CC18091F50588236B
:1027A00009F470C068ED71E08091F3059091F40533
:1027B0000E94C10140E150E0609147058091F3051E
:1027C0009091F4050E941D0962EC71E08091F3057F
:1027D0009091F4050E94C10140E150E060914805EC
:1027E0008091F3059091F4050E941D09A090490580
:1027F000B0904A05C0904B05D0904C056EEA71E050
:102800008091F3059091F4050E94C10120E1B60189
:10281000A5018091F3059091F4050E94D108A09044
:102820004D05B0904E05C0904F05D090500569E918
:1028300071E08091F3059091F4050E94C10120E1BF
:10284000B601A5018091F3059091F4050E94D1088D
:10285000C0905105D090520563E871E08091F30576
:102860009091F4050E94C101A090F305B090F40589
:10287000A60170E060E020E1C5010E94D108C50119
:102880000E946A09E092B800709245056092460580
:1028900010924705109248051092490550924A053A
:1028A00040924B05F0924C0510924D0510924E054A
:1028B00010924F051092500510925105109252053A
:1028C00010925305109254051092550561E182E073
:1028D0000E94390B78EEC72E73E0D72EB1E0CB1AE9
:1028E000D10809F45DC50E944B0E8823B9F380918D
:1028F00045058C3F99F7609142067091430680919F
:1029000044069091450620914106283039F46039FB
:102910003FE5730731E08307910591F128EE33E03D
:1029200040E050E00E94151F69017A0165EF71E0F7
:1029300088E994E00E94C208809141060E947F09C4
:1029400064E072E088E994E00E94C2082AE0B701DE
:10295000A601F7FE0DC06DE288E994E00E948502B1
:1029600044275527BA014C195D096E097F092AE0F1
:1029700088E994E00E94D10887E192E00E946E0904
:1029800081E080933C0480E98093B80087E390E085
:10299000C12CD12C7601C394009709F44AC0FC01E4
:1029A00053E0F595E7955A95E1F7E55FFC4F282F41
:1029B0002770B701A60104C0440F551F661F771F7B
:1029C0002A95D2F72081242B20830197E5CF90E030
:1029D00080E00E94571A813229F061E290E080E0A5
:1029E0000E945F1A81E090E00E94571A843529F016
:1029F00064E581E090E00E945F1A0E946F081DCE9E
:102A000087E991E00E946E0981EA91E00E946E09D7
:102A100041CE8BE192E00E946E098016910609F08A
:102A200053CEB1CF87E991E00E946E0985E492E030
:102A3000F2CF6BE171E08EE193E00E94900888ECA8
:102A400090E090931A03809319030CB406FC25C000
:102A500061E08AE00E94720361E08AE00E94440320
:102A600061E08BE00E94720361E08DE00E947203DE
:102A700060E08CE00E94720361E08BE00E944403FE
:102A800060E08BE00E94440360E08DE00E9444031C
:102A900080E58CBD8DB581608DBD8AE080930A0391
:102AA00061E00E9472030E94E8064FEF60E08FEF42
:102AB0000E941C0762E070E080E090E00E94C80382
:102AC0000E94EF068DE10E94E30680E00E94E3068B
:102AD0001EB50E94E806112399F370E060E088E0DB
:102AE0000E945A0770E060E08CE00E945A076FEF86
:102AF0007BE08AE00E945A0760E07CE084E00E946C
:102B00005A076FEF71E186E00E945A0761EB88E394
:102B10000E944D076FE370E388E20E945A0769EF55
:102B200077EF80E30E945A076DE080EC0E944D072A
:102B300060E081EC0E944D0742E362EC80E80E9475
:102B40001C0762E17CE086EC0E945A0762E184EC9B
:102B50000E944D076CED75E08AEC0E945A07609167
:102B60001E0384EE0E944D0760911F0385EE0E94B4
:102B70004D076091200382EE0E944D076091210372
:102B800083EE0E944D076091220380EE0E944D0764
:102B90006091230381EE0E944D0760E184ED0E9465
:102BA0004D0760E071E086ED0E945A078AEE0E94B0
:102BB000670780FDFBCF8FE10E94310740EC6BE19E
:102BC00080E80E941C0744E06FE180E80E941C0737
:102BD00082E70E946707863008F08F5F811106C088
:102BE0006DEE71E088E994E00E949209209137012E
:102BF0002093170190913801909318018091390129
:102C0000809319012093130190931401809315016F
:102C100020932101909322018093230167E171E0C9
:102C200082E494E00E94BA081092360410923504AF
:102C300081E08093370463E171E081E394E00E94D6
:102C4000BA086FE071E08DE294E00E94BA086BE090
:102C500071E08EE394E00E94BA08E2E4F4E02EE32F
:102C600034E044E253E09191D9018D919D0180952A
:102C7000892BDA018D93AD01B4E0E634FB0799F7B7
:102C800062E474E083E692E00E94A30E61E374E0E4
:102C90008AE692E00E94A30E61E271E081E792E091
:102CA0000E94A30E80915003883098F405E0809F25
:102CB000F0011124E85DFC4F2EE93FE031832083D1
:102CC00028EB32E23383228391E094838F5F8093F9
:102CD000500388E792E00E946E093324339440E663
:102CE000242E2FB7F8948091150390911603A0918C
:102CF0001703B09118032FBF409133015091340155
:102D000060913501709136018C019D01041B150BFA
:102D1000260B370BB901A801443651056105710531
:102D200008F47FC08093330190933401A093350160
:102D3000B093360180913D04882309F4D3C03092CA
:102D40004B0420924A04109249041092480462E015
:102D500070E085E395E00E941C0885E395E00E9401
:102D6000AE0562E080E60E94600410924704809302
:102D700046048230F0F385E395E00E943F0580939E
:102D80002B0185E395E00E943F0580932A01309254
:102D90004B0420924A0410924904109248046CE1BA
:102DA00070E085E395E00E941C0885E395E00E94B1
:102DB000AE0562E080E60E946004109247048093B2
:102DC00046048230F0F385E395E00E943F0580934E
:102DD0002D0185E395E00E943F0580932C01E7E2F9
:102DE000F1E090E080E02191820F911D11E0E2334B
:102DF000F107C9F7809332014FE057E261E271E0D9
:102E000081E094E10E94380F8EE0E5E2F1E0A7E86E
:102E1000B3E001900D928A95E1F78EE090E00E9478
:102E2000DF0761E070E080E090E00E94C8038091DD
:102E30001D03882379F060911B0370911C036115B9
:102E4000710509F0C9C16FEF7BE08CE00E945A0761
:102E500010921D0389E30E9467078111C0C1809110
:102E60003704857009F075C280913504909136045D
:102E7000019690933604809335048DE294E00E948D
:102E80009801882371F080912C0481110AC08091EF
:102E90002B04811106C08DE294E00E94040F309251
:102EA0002B0487E294E00E949801882371F08091BE
:102EB000260481110AC080912504811106C087E291
:102EC00094E00E94040F3092250420E030E0232B90
:102ED00009F407CF0E944F02882309F402CF0E9411
:102EE0000000FFCE80913C04882309F478CF0E9433
:102EF0004B0E882309F473CF10915806612F8091EF
:102F00002606909127060E9442082B013C01612F62
:102F100080912006909121060E9442084B015C019D
:102F2000612F80912206909123060E9442086B87B0
:102F30007C878D879E87612F80912406909125063E
:102F40000E9442086F83788789879A87A30192013C
:102F5000C301B2010E94DF1C6B017C01A501940139
:102F6000C501B4010E94DF1C9B01AC01C701B60181
:102F70000E946E1A6B017C012B853C854D855E8518
:102F8000CA01B9010E94DF1C9B01AC01C701B60157
:102F90000E946E1A6B017C012F81388549855A8504
:102FA000CA01B9010E94DF1C9B01AC01C701B60137
:102FB0000E946E1A0E94A21D6B017C01AC019B0154
:102FC000C301B2010E94511B6F87788B898B9A8B4A
:102FD000A7019601C501B4010E94511B2B013C01C0
:102FE000A70196016B857C858D859E850E94511B6E
:102FF0004B015C01A70196016F81788589859A85CF
:103000000E94511B6F83788789879A87A501940155
:10301000C501B4010E94DF1C6B877C878D879E876A
:103020002F81388549855A85CA01B9010E94DF1C64
:103030002B853C854D855E850E946E1A9B01AC01F7
:103040000E946E1A9B01AC0160E070E080E89FE393
:103050000E946D1A6D8B7E8B8F8B988F2F81388598
:1030600049855A856F85788989899A890E94DF1CEC
:103070006B017C01A5019401C301B2010E94DF1C18
:103080009B01AC01C701B6010E946E1A9B01AC0105
:103090000E946E1A2D893E894F89588D0E94ED1A23
:1030A00021EE3EE245E652E40E94DF1C6B017C010A
:1030B000DC01CB01B0588093380490933904A0937D
:1030C0003A04B0933B0420E030E0A901C701B60107
:1030D0000E94D21C1816D4F420E030E044E353E4FC
:1030E000C701B6010E944C1B181684F0A701960177
:1030F00060E070E084EB93E40E946D1A6093380402
:103100007093390480933A0490933B04A301920195
:10311000C301B2010E94DF1C2B853C854D855E8575
:103120000E946E1A9B01AC010E946E1A9B01AC01B9
:1031300060E070E080E89FE30E946D1A6B017C0103
:10314000A30192016F85788989899A890E94DF1C81
:103150002B013C012F81388549855A85C501B40171
:103160000E94DF1C9B01AC01C301B2010E946E1AD8
:103170009B01AC010E946E1AA70196010E94ED1AF4
:103180006B017C0120E030E040E251E460913804C2
:103190007091390480913A0490913B040E94DF1CA5
:1031A0000E94C31B8B0121EE3EE245E652E4C701BB
:1031B000B6010E94DF1C20E030E040E251E40E94B2
:1031C000DF1C0E94C31B00932A0110932B01609304
:1031D0002C0170932D0103CE6150710936CE6091A0
:1031E0001B0370911C0380E00E945A07BE016F5FB1
:1031F0007F4F86E090E00E94F50689819A81909346
:103200001C0380931B038D819E818C010078112704
:1032100087FF12C08B819C81049700911903109144
:103220001A03015011098017910708F48C016DE50C
:1032300073E0C8010E94F506F801E35AFC4F1082C2
:1032400030921D0340E46EE180E80E941C070115E6
:10325000110509F404CE0932110508F436CE809127
:103260006903883009F031CE80916A03863009F015
:103270009AC044E050E062E474E083E893E00E9486
:103280003A1F892B09F021CE80917203813029F5F4
:1032900083E693E00E94AF081092710382E080936E
:1032A000720363E773E08DE793E00E9490086EE19C
:1032B00073E083E793E00E94900869E773E083E896
:1032C00093E00E94BA0862E474E089E793E00E9408
:1032D000BA088AE290E00E947F078091370483FF5A
:1032E0000DC010917203123049F467E573E081E379
:1032F00094E00E94980881111093370480912C0467
:10330000811110C080912B04882361F061E573E086
:103310008DE294E00E949808882321F030922C04DA
:1033200010922B04809126048111CFCD8091250429
:10333000882309F4CACD61E573E087E294E00E9436
:103340009808882309F4C1CD3092260410922504F0
:10335000BCCD8091350490913604892B09F084CD41
:1033600061E184ED0E944D0761E082ED0E944D070E
:103370008AEE0E94670780FDFBCF60E082ED0E942D
:103380004D0789ED0E94670782FF6ECD81E394E0CF
:103390000E94040F8091370488608093370464CDC5
:1033A00087E892E038CB0932110509F48ECD8111FE
:1033B0008CCD80916B03853409F087CD44E050E0DB
:1033C00062E474E08BE793E00E943A1F892BA9F036
:1033D00044E050E064E273E08BE793E00E943A1F20
:1033E000892B59F044E050E06CE371E08BE793E007
:1033F0000E943A1F892B09F068CD809150038823E1
:1034000009F463CD80917403813109F05ECD38E217
:10341000E32E33E0F32ED12CC12C809150038C1578
:103420001D0409F00CF451CDD70112962C9112977E
:1034300013969C911397809181039B8B1C8AEB8937
:10344000FC898E171F0619F58091820382131FC015
:1034500014962C9114972223D1F040918403485064
:10346000550B20918303022F10E0102F0027040F2B
:10347000151F40917F0350918003542745275427FF
:10348000ED91FC9127E833E067E773E00995FFEFE2
:10349000CF1ADF0A05E0E00EF11CBFCFFB01DC0113
:1034A00002C005900D9241505040D8F70895F99907
:1034B000FECF92BD81BDF89A992780B50895262F39
:1034C000F999FECF1FBA92BD81BD20BD0FB6F89409
:1034D000FA9AF99A0FBE019608955058BB27AA2769
:1034E0000E94851A0C94981C0E948A1C38F00E9435
:1034F000911C20F039F49F3F19F426F40C94601CC1
:103500000EF4E095E7FB0C945A1CE92F0E94A91CCD
:1035100058F3BA17620773078407950720F079F408
:10352000A6F50C94CB1C0EF4E0950B2EBA2FA02D13
:103530000B01B90190010C01CA01A0011124FF2760
:10354000591B99F0593F50F4503E68F11A16F0405B
:10355000A22F232F342F4427585FF3CF469537955A
:103560002795A795F0405395C9F77EF41F16BA0B1F
:10357000620B730B840BBAF09150A1F0FF0FBB1FCD
:10358000661F771F881FC2F70EC0BA0F621F731F16
:10359000841F48F4879577956795B795F7959E3F73
:1035A00008F0B0CF9395880F08F09927EE0F979504
:1035B000879508950E948A1C60F080E891E009F4E4
:1035C0009EEF0E94911C28F040E851E071F45EEFFC
:1035D0000CC00C94601C0C94CB1CE92FE0780E946A
:1035E000A91C40F3092E052AB1F32617370748070F
:1035F000590738F00E2E07F8E02569F0E025E06461
:103600000AC0EF6307F8009407FADB01B9019D01D6
:10361000DC01CA01AD01EF930E94681B0E94981C57
:103620000E941D1B5F91552339F02BED3FE049E4CB
:1036300050FD49EC0C946E1A0895DF93DD27B92FE5
:10364000BF7740E85FE31616170648075B0718F4D4
:10365000D92F0E94D71C9F938F937F936F930E94C3
:10366000E21DE8E6F0E00E94631C0E94981C2F9186
:103670003F914F915F910E94F21CDD2351F09058D1
:10368000A2EA2AED3FE049EC5FE3D0785D270E9493
:10369000851ADF910C94981C0E94361C08F481E076
:1036A00008950E94651B0C94981C0E94911C58F070
:1036B0000E948A1C40F029F45F3F29F00C945A1CA8
:1036C00051110C94CC1C0C94601C0E94A91C68F332
:1036D0009923B1F3552391F3951B550BBB27AA27CB
:1036E00062177307840738F09F5F5F4F220F331F05
:1036F000441FAA1FA9F335D00E2E3AF0E0E832D0CD
:1037000091505040E695001CCAF72BD0FE2F29D0CF
:10371000660F771F881FBB1F261737074807AB07A1
:10372000B0E809F0BB0B802DBF01FF2793585F4F16
:103730003AF09E3F510578F00C945A1C0C94CC1C26
:103740005F3FE4F3983ED4F3869577956795B795F8
:10375000F7959F5FC9F7880F911D9695879597F903
:103760000895E1E0660F771F881FBB1F621773077C
:103770008407BA0720F0621B730B840BBA0BEE1F91
:1037800088F7E09508950E94CA1B6894B1110C94C3
:10379000CC1C08950E94B11C88F09F5798F0B92F57
:1037A0009927B751B0F0E1F0660F771F881F991F76
:1037B0001AF0BA95C9F714C0B13091F00E94CB1C31
:1037C000B1E008950C94CB1C672F782F8827B85F41
:1037D00039F0B93FCCF3869577956795B395D9F7CE
:1037E0003EF490958095709561957F4F8F4F9F4FD8
:1037F0000895E89409C097FB3EF4909580957095E4
:1038000061957F4F8F4F9F4F9923A9F0F92F96E92C
:10381000BB279395F695879577956795B795F111A1
:10382000F8CFFAF4BB0F11F460FF1BC06F5F7F4F3E
:103830008F4F9F4F16C0882311F096E911C0772350
:1038400021F09EE8872F762F05C0662371F096E859
:10385000862F70E060E02AF09A95660F771F881F28
:10386000DAF7880F9695879597F90895990F0008CC
:10387000550FAA0BE0E8FEEF16161706E807F90742
:10388000C0F012161306E407F50798F0621B730BDD
:10389000840B950B39F40A2661F0232B242B252B5E
:1038A00021F408950A2609F4A140A6958FEF811D01
:1038B000811D089597F99F6780E870E060E00895A2
:1038C0009FEF80EC0895DF93CF931F930F93FF92A8
:1038D000EF92DF927B018C01689406C0DA2EEF0133
:1038E0000E94F21CFE01E894A59125913591459125
:1038F0005591A6F3EF010E94851AFE019701A801D8
:10390000DA9469F7DF90EF90FF900F911F91CF91BC
:10391000DF91089500240A94161617061806090662
:10392000089500240A941216130614060506089535
:10393000092E0394000C11F4882352F0BB0F40F4BD
:10394000BF2B11F460FF04C06F5F7F4F8F4F9F4FFD
:10395000089557FD9058440F551F59F05F3F71F07F
:103960004795880F97FB991F61F09F3F79F08795E6
:103970000895121613061406551FF2CF4695F1DF6F
:1039800008C0161617061806991FF1CF86957105FF
:10399000610508940895E894BB2766277727CB0133
:1039A00097F908950E94361C08F48FEF08959B0143
:1039B000AC0160E070E080E89FE30C94511B0E9432
:1039C000F21C0C94981C0E948A1C38F00E94911CD6
:1039D00020F0952311F00C945A1C0C94601C1124B7
:1039E0000C94CC1C0E94A91C70F3959FC1F3950FF9
:1039F00050E0551F629FF001729FBB27F00DB11D73
:103A0000639FAA27F00DB11DAA1F649F6627B00D02
:103A1000A11D661F829F2227B00DA11D621F739FEB
:103A2000B00DA11D621F839FA00D611D221F749FF9
:103A30003327A00D611D231F849F600D211D822F40
:103A4000762F6A2F11249F5750409AF0F1F0882367
:103A50004AF0EE0FFF1FBB1F661F771F881F915094
:103A60005040A9F79E3F510580F00C945A1C0C94CD
:103A7000CC1C5F3FE4F3983ED4F386957795679529
:103A8000B795F795E7959F5FC1F7FE2B880F911DBE
:103A90009695879597F90895FA01EE0FFF1F3096D6
:103AA00021053105A1F16115710561F48038BFE38D
:103AB0009B0749F168949038810561F08038BFEF29
:103AC0009B0741F099234AF5FF3FE10531052105A8
:103AD00019F1E8940894E795D901AA2329F4AB2FAA
:103AE000BE2FF85FD0F310C0FF5F70F4A695E0F72B
:103AF000F73950F019F0FF3A38F49F779F930DD0C3
:103B00000F9007FC9058089546F00C94601C60E0FC
:103B100070E080E89FE308954FE79F775F934F93AE
:103B20003F932F930E94771E2F913F914F915F916A
:103B30000E94DF1C0C94EE1D19F416F40C94601C0A
:103B40000C94201E0E94B11CB8F39923C9F3B6F35C
:103B50009F57550B87FF0E942E1E0024A0E640EAC7
:103B6000900180585695979528F4805C660F771FD2
:103B7000881F20F026173707480730F4621B730BA5
:103B8000840B202931294A2BA695179407942025C8
:103B900031254A2758F7660F771F881F20F0261710
:103BA0003707480730F4620B730B840B200D311D6F
:103BB000411DA09581F7B901842F9158880F9695E2
:103BC000879508959B01AC010C94DF1C29F416F035
:103BD0000C945A1C0C94CB1C0C94601C0E94B11CBD
:103BE000A8F39638A0F707F80F92E8942BE33AEA87
:103BF00048EB5FE70E94F51C0F920F920F924DB7B2
:103C00005EB70F920E94BF1EE5E9F0E00E94631CC0
:103C10004F915F91EF91FF91E595EE1FFF1F49F0E6
:103C2000FE57E0684427EE0F441FFA95E1F74195EF
:103C3000550B0E94391E0F9007FE0C94D71C089557
:103C40009F3F31F0915020F4879577956795B79510
:103C5000880F911D9695879597F90895915050403A
:103C6000660F771F881FD2F708950C945A1C0C9486
:103C7000201E0E94B11CD8F39923C9F3940F511D43
:103C8000A3F39150504094F059F0882332F0660F1E
:103C9000771F881F91505040C1F79E3F51052CF768
:103CA000880F911D9695879597F908955F3FACF021
:103CB000983E9CF0BB27869577956795B79508F455
:103CC000B1609395C1F7BB0F58F711F460FFE8CFCF
:103CD0006F5F7F4F8F4F9F4FE3CF0C94CC1C16F03C
:103CE0000C94201E0C94601C68940C945A1C0E9426
:103CF000B11CA8F39923C1F3AEF3DF93CF931F93C5
:103D00000F93FF92C92FDD2788232AF02197660F92
:103D1000771F881FDAF720E030E040E85FEB9FE391
:103D2000883920F0803E38F021968F770E946E1AF5
:103D3000EDEBF0E004C00E946E1AEAEEF0E00E94A3
:103D4000631C8B01BE01EC01FB2E6F577109759549
:103D5000771F880B990B0E94FB1B28E132E741E398
:103D60005FE30E94F21CAF2D9801AE01FF900F910E
:103D70001F91CF91DF910E94851A0C94981CFA0133
:103D8000DC01AA0FBB1F9B01AC01BF5728F42227FF
:103D900033274427507820C0B75190F4AB2F00242C
:103DA000469537952795011CA395D2F3002071F015
:103DB000220F331F441FB395DAF30ED00C946D1A03
:103DC00061307105A0E88A07B94630F49B01AC0167
:103DD0006627772788279078309621F020833183D3
:103DE000428353830895A1E21A2EAA1BBB1BFD0137
:103DF0000DC0AA1FBB1FEE1FFF1FA217B307E407CA
:103E0000F50720F0A21BB30BE40BF50B661F771F21
:103E1000881F991F1A9469F7609570958095909501
:103E20009B01AC01BD01CF010895052E97FB1EF447
:103E300000940E942C1F57FD07D00E94F31E07FC20
:103E400003D04EF40C942C1F50954095309521953D
:103E50003F4F4F4F5F4F08959095809570956195B6
:103E60007F4F8F4F9F4F0895EE0FFF1F0590F491E6
:103E7000E02D0994FB01DC0104C08D9101908019B3
:103E800021F441505040C8F7881B990B0895F894CD
:023E9000FFCF62
:103E9200FFFFFFFF80817979010147FFFFFF0008E3
:103EA2000808080000000100000079000056000028
:103EB20079000000FF808179D30800000000000033
:103EC20000000F64000000C0A8054A4BFFFFFFFF7F
:103ED200FFFF000000008502E5011202D202430248
:103EE20021023502000000007F0552050E082F0551
:103EF200B8013F0530050000000024090D0A004505
:103F020072726F72203D203000434D505331342085
:103F1200414444524553733A20307800434D505344
:103F22003134204F6B2E004572726F72203D203467
:103F320000434D5053206E6F7420436F6E6E656365
:103F4200746564206F7220466F756E64000D0A43BB
:103F52006865636B696E6720666F7220424E4F30F0
:103F62003858206F6E2000424E4F3038582041445E
:103F720044524553733A20307800424E4F303858FD
:103F8200204F6B2E005265706F7274204944203AA4
:103F9200203078005265706F727420696E74657299
:103FA20076616C203A2000206D7300424E4F30380B
:103FB20030206E6F7420646574656374656420617B
:103FC2007420676976656E204932432061646472A9
:103FD2006573732E00424E4F303858206E6F742036
:103FE200436F6E6E6563746564206F7220466F75F1
:103FF2006E64005F49505F3A2000475761793A206A
:10400200004167494F3A2000536574757020636F11
:104012006D706C65746500424E4F30387820696E61
:0C4022006974206661696C732121000044
:00000001FF
