:100000000C9478000C94A0000C94A0000C94A00018
:100010000C94A0000C94A0000C94A0000C94A000E0
:100020000C94A0000C94A0000C94A0000C94A000D0
:100030000C94A0000C94A0000C94A0000C94A000C0
:100040000C948D080C94A0000C945B080C9435085B
:100050000C94A0000C94A0000C94A0000C94A000A0
:100060000C94D7080C94A0004500008200004000CA
:100070002000010800060400010000000024002701
:10008000002A0000000000250028002B00040404C2
:100090000404040404020202020202030303030331
:1000A000030102040810204080010204081020010E
:1000B00002040810200000000800020100000304F0
:1000C0000700000000000000004661696C656420C4
:1000D000746F206163636573732045746865726E25
:1000E000657420636F6E74726F6C6C657200F209D8
:1000F00011241FBECFEFD8E0DEBFCDBF11E0A0E0DE
:10010000B1E0E6E6F2E202C005900D92A83BB1072D
:10011000D9F724E0A8EBB1E001C01D92AC32B207E0
:10012000E1F710E0C8E7D0E004C02197FE010E948B
:100130001E11C737D107C9F70E94290A0C94311143
:100140000C940000CF93DF93209185032223C1F00C
:10015000FC0120812223A1F0C5E8D3E0A1E8B3E0AF
:100160009C012C5F3F4F899141919D918427892368
:1001700039F4E217F307B9F781E0DF91CF910895E1
:1001800080E0FBCFAF92BF92CF92DF92EF92FF92CF
:100190000F931F93CF93DF936C017B018B01040FAF
:1001A000151FEB015E01AE18BF08C017D10759F04B
:1001B0006991D601ED91FC910190F081E02DC6018D
:1001C0000995892B79F7C501DF91CF911F910F9187
:1001D000FF90EF90DF90CF90BF90AF900895FC011B
:1001E000538D448D252F30E0842F90E0821B930B9C
:1001F000541710F0CF96089501970895FC01918D42
:10020000828D981761F0A28DAE0FBF2FB11D5D9644
:100210008C91928D9F5F9F73928F90E008958FEFE6
:100220009FEF0895FC01918D828D981731F0828D9A
:10023000E80FF11D858D90E008958FEF9FEF0895F1
:10024000FC01918D228D892F90E0805C9F4F821B55
:1002500091098F739927089589E893E00E942001FE
:1002600021E0892B09F420E0822F089580E090E0BE
:10027000892B29F00E942C0181110C940000089513
:10028000FC01A48DA80FB92FB11DA35ABF4F2C910B
:10029000848D90E001968F739927848FA689B78902
:1002A0002C93A089B1898C91837080648C93938DF9
:1002B000848D981306C00288F389E02D80818F7D9C
:1002C00080830895EF92FF920F931F93CF93DF9354
:1002D000EC0181E0888F9B8D8C8D98131AC0E88982
:1002E000F989808185FF15C09FB7F894EE89FF8951
:1002F0006083E889F98980818370806480839FBFEF
:1003000081E090E0DF91CF911F910F91FF90EF90EE
:100310000895F62E0B8D10E00F5F1F4F0F731127FE
:10032000E02E8C8D8E110CC00FB607FCFACFE88939
:10033000F989808185FFF5CFCE010E944001F1CF80
:10034000EB8DEC0FFD2FF11DE35AFF4FF0829FB7AD
:10035000F8940B8FEA89FB8980818062CFCFCF939D
:10036000DF93EC01888D8823B9F0AA89BB89E889DD
:10037000F9898C9185FD03C0808186FD0DC00FB683
:1003800007FCF7CF8C9185FFF2CF808185FFEDCF01
:10039000CE010E944001E9CFDF91CF91089590E016
:1003A000FC01EB54FF4F2491FC01EF55FF4F3491BA
:1003B000FC01E357FF4FE491EE23C9F0222339F00B
:1003C000233001F1A8F4213019F1223029F1F0E0B5
:1003D000EE0FFF1FED57FF4FA591B4918FB7F89423
:1003E000EC91611126C030953E233C938FBF089558
:1003F0002730A9F02830C9F0243049F780918000D7
:100400008F7D03C0809180008F7780938000DFCF45
:1004100084B58F7784BDDBCF84B58F7DFBCF809192
:10042000B0008F778093B000D2CF8091B0008F7DE5
:10043000F9CF3E2BDACFCF93DF9390E0FC01EF555D
:10044000FF4F249183579F4FFC0184918823D1F063
:1004500090E0880F991FFC01E758FF4FA591B491D8
:10046000FC01ED57FF4FC591D49161110EC09FB7AC
:10047000F8948C91E22FE0958E238C932881E223CF
:10048000E8839FBFDF91CF9108958FB7F894EC91E7
:10049000E22BEC938FBFF6CF3FB7F89480912B02FD
:1004A00090912C02A0912D02B0912E0226B5A89B0E
:1004B00005C02F3F19F00196A11DB11D3FBFBA2FF6
:1004C000A92F982F8827BC01CD01620F711D811DB6
:1004D000911D42E0660F771F881F991F4A95D1F73B
:1004E00008958F929F92AF92BF92CF92DF92EF9238
:1004F000FF924B015C010E944C026B017C010E9447
:100500004C026C197D098E099F09683E7340810574
:100510009105A8F328EEC20E23E0D21EE11CF11CC7
:100520008A9489288A288B2829F0812C912C5401BF
:100530008394E5CFFF90EF90DF90CF90BF90AF9086
:100540009F908F9008952091E001260F3327331F4D
:1005500021323105ECF420910402FC0190E080E0AE
:10056000243069F082E00895A091E0012191AC016E
:1005700040545E4FA40FB52FB11D2C9301968617E2
:1005800098F38091E001680F6093E00180E00895A6
:1005900081E0089508958FEF9FEF08958FEF9FEF0B
:1005A00008958091B90190E0919581959109089500
:1005B000CF93DF93CB01EA01642F0E94A302CE0107
:1005C000DF91CF910895CF93DF931F92CDB7DEB720
:1005D000698361E0CE0101960E94A30281E090E070
:1005E0000F90DF91CF9108950F931F93CF93DF93D7
:1005F00070E063567D4F2130A9F48A01075F1F4FD9
:1006000030E020E0EB01FA01E230F10578F0A99149
:10061000B991BA27AB27BA270A0F1B1F211D311D1D
:100620003297F2CF00E010E09801ECCFFA01EE7FB4
:100630006E0F7F1F4E175F0769F0FB01408150E08E
:1006400070E060E0762F652F542F4427040F151FAC
:10065000261F371FA9016627772741155105610518
:10066000710519F022273327F1CF00951095E82F57
:10067000F0E0E356FD4F10830183DF91CF911F918E
:100680000F9108958EBD0DB407FEFDCF089561E072
:1006900080912F020E94CF0178940895F89460E031
:1006A00080912F020C94CF010F931F93CF93DF9370
:1006B000EC018B010E944E032097B9F08AE30E945F
:1006C00042031EBCF801CE01019739F00DB407FEBC
:1006D000FDCF2EB51EBC2193F7CF2197C00FD11FA0
:1006E0000DB407FEFDCF8EB58883DF91CF911F91AA
:1006F0000F910C9447031F93CF93DF93182FC62FAE
:10070000D42F0E944E038C2F8F71812B0E944203A5
:100710008D2F0E944203DF91CF911F910C944703CC
:10072000CF93C82FC0768091B8018C1799F043E021
:100730006FE180EA0E947B03C093B8014C2F50E028
:1007400085E0559547958A95E1F76FE180E8CF916F
:100750000C947B03CF910895CF93DF93C82FD62FAE
:100760000E9490034D2F6C2F80E4DF91CF910C9469
:100770007B03CF93DF93C82FD72F0E94AC036D2F3D
:1007800081E08C0FDF91CF910C94AC03CF93C82FF5
:100790000E9490030E944E038C2F8F710E9442038F
:1007A00080E00E944203C7FF03C080E00E94420332
:1007B000CEB50E9447038C2FCF910895CF93DF933E
:1007C000EC0140E86FE180E80E947B0340E86FE1C4
:1007D00080EA0E947B034AE06CE180EA0E947B038E
:1007E00060E07CE082E00E94B903BE01745F86E0B5
:1007F0000E94B90340E060E08AE70E947B030E9408
:100800004E032097B1F08AE70E94420380919D0237
:100810008EBDEEE9F2E0C356DD4FEC17FD0731F077
:1008200081910DB407FEFDCF8EBDF7CF0DB407FE4D
:10083000FDCF0E94470348E06FE180E80E947B0300
:10084000D0E0C0E08CE10E94C6038A7029F42196B2
:10085000C83E83E0D807B1F78CE10E94C60381FD52
:1008600003C0C83ED34039F448E06FE180EADF912D
:10087000CF910C947B03DF91CF9108950F931F9339
:10088000CF93DF938C01CDE9D2E04C96988B8CE12D
:10089000800F898B188E198E80E48C8B1D8A8E8B2D
:1008A00020E044E150E06EE088E10E94F402C801DB
:1008B00008969EA388E0800F8FA3A801405F5F4F3A
:1008C00021E06AE188E20E94F402C8018A96DF9181
:1008D000CF911F910F910C94DE0390E080E008957A
:1008E000DC0196E0FB0101900D929A95E1F70895E5
:1008F000CF93DF93EB0144E050E0BC0189EB92E041
:100900000E942411892B49F463EB72E0CE010E940E
:10091000700481E0DF91CF91089580E0FBCFBC01AE
:100920008DE992E00E9470046EE572E083EA92E045
:100930000C947004DC0194E0FB0101900D929A95F7
:10094000E1F70895FB0101900020E9F73197AF012D
:10095000461B570BDC01ED91FC910280F381E02DE9
:1009600009948F929F92AF92BF92EF92FF920F9352
:100970001F93CF93DF93CDB7DEB7A1970FB6F8944F
:10098000DEBF0FBECDBF7C01FA01CB0119A2223020
:1009900008F42AE08E010F5D1F4F822E912CB12C9E
:1009A000A12CBF01A50194010E94FC10F901CA010C
:1009B0006A300CF5605DD8016E938D01232B242BDA
:1009C000252B79F790E080E0109721F0BD01C70159
:1009D0000E94A204A1960FB6F894DEBF0FBECDBF51
:1009E000DF91CF911F910F91FF90EF90BF90AF904B
:1009F0009F908F900895695CDECF8F929F92AF9207
:100A0000BF92CF92DF92EF92FF920F931F93CF93FB
:100A1000DF937C01EB016C0182E0C80ED11C470121
:100A2000E5E08E0E911C10E000E0F60141916F01AF
:100A300050E070E060E02AE0CE010E94B1045C0169
:100A4000E881F9810190F081E02D6EE2CE010995F7
:100A50008A0D9B1D080F191FC814D90431F7F7011F
:100A6000458150E070E060E02AE0CE010E94B104D0
:100A7000800F911FDF91CF911F910F91FF90EF9009
:100A8000DF90CF90BF90AF909F908F9008950F937D
:100A90001F93CF93DF93D62FC72FBC0189E893E034
:100AA0000E94A2040D2F1C2FC0E0F80141918F017C
:100AB00050E070E060E02AE089E893E00E94B10431
:100AC000C33029F06EE289E893E00E946201CF5FB3
:100AD000C43059F76AE771E089E893E0DF91CF917C
:100AE0001F910F910C94A2041F93CF93DF9385ED78
:100AF0008093BC008091BC019091BD01A091BE018A
:100B0000B091BF010796A11DB11D23E0B695A79531
:100B1000979587952A95D1F72091BC0024FD03C0B5
:100B20001092040252C04091BC015091BD016091ED
:100B3000BE017091BF01452B462B472B69F30097EF
:100B4000A105B10541F02AE22A95F1F700C001970D
:100B5000A109B109E1CF8091BB01C1E0C093BA0105
:100B6000882399F1D091B8001091BA008091BC000F
:100B70008A7B8093BC0060E082E10E94CF0160E04C
:100B800083E10E94CF0110920402C09306021092EA
:100B9000050261E082E10E94CF0161E083E10E94F1
:100BA000CF018091B9008E7F8093B9008091B90008
:100BB0008D7F8093B90088E48093B80085E48093AA
:100BC000BC001093BA00D093B800DF91CF911F9171
:100BD00008950F931F93CF938C018CE591E00E94B1
:100BE0008F04EDE9F2E088E08487C6E0C58748E03D
:100BF00050E061E770E08BEA92E00E94E20FEDEBDB
:100C0000F2E0DF011D92CA95E9F76EE572E083EB31
:100C100092E00E947004B80183EC92E00E949A0472
:100C200065E873E089EB92E00E949A048AE290E022
:100C3000CF911F910F910C94DE03EF92FF920F93CF
:100C40001F93CF93DF93182F092FEB01F42EE52E7E
:100C5000CB010E94A200882309F452C081E992E0EE
:100C60000E948F04BE018BEB92E00E949A0465E81B
:100C700073E087EB92E00E949A048881807F803E37
:100C800091F088819981AA81BB818F3F9F4FAF4F9F
:100C9000BF4F49F044E050E0BE0184E692E00E947C
:100CA0002411892B31F46CE571E08DE992E00E940A
:100CB000700488E08093A9021092AA0249E050E0F3
:100CC00068E670E08BEA92E00E94E20F1092AD02BB
:100CD00081E18093B402E092C102F092C2020093DB
:100CE000BF021093C0021092C3021092C50210926C
:100CF000C602DF91CF911F910F91FF90EF90089561
:100D000087E992E0ADCFFF920F931F93CF93DF93CC
:100D1000EC01F62E08811981C8010E94EB0FF8162C
:100D200021F06F2DC8010E94F30FCE01DF91CF910A
:100D30001F910F91FF900895EF92FF920F931F93D1
:100D4000CF93DF9300D0CDB7DEB784E5E82E81E006
:100D5000F82E06E010E01A830983F70161917F0104
:100D6000CE0101960E9483060F5F1F4F0E301105C2
:100D700091F784E591E00F900F90DF91CF911F9153
:100D80000F91FF90EF900895EF92FF920F931F93B2
:100D9000CF93DF9300D0CDB7DEB78CE3E82E81E0B0
:100DA000F82E04E110E01A830983F70161917F01B5
:100DB000CE0101960E9483060F5F1F4F0C32110572
:100DC00091F78CE391E00F900F90DF91CF911F91FD
:100DD0000F91FF90EF9008950F931F93CF93DF93A0
:100DE00000D0CDB7DEB782E390E09A83898309E330
:100DF00011E0F8016081CE0101960E94830683E331
:100E000090E09A838983F8016181CE0101960E9466
:100E1000830684E390E09A838983F8016281CE019E
:100E200001960E948306C8010F900F90DF91CF9129
:100E30001F910F910895EF92FF920F931F93CF93FD
:100E4000DF93E9018881803899F58981813881F5BE
:100E50008A818F3769F5FB018B818F3E81F56E8129
:100E600070E090E080E00E94011060935502709362
:100E7000560280935702909358028F8180937D038E
:100E8000288520933D029B8590937F038C858093DA
:100E90007E0330915701332349F0209520933D0282
:100EA000909590937F03809580937E0310923401F8
:100EB000DF91CF911F910F91FF90EF900895883CA3
:100EC00091F58F81813061F480917E0390917F0351
:100ED0009F5F90937F038F5F80937E031092340116
:100EE00080917F038093090180917E0380930A01A2
:100EF0004FE057E262E271E083E094E10E941D0658
:100F000088E0E4E0F1E0A7ECB2E001900D928A9570
:100F1000E1F788E090E0DF91CF911F910F91FF9072
:100F2000EF900C943E048E3E31F58D8180935401F8
:100F30008E81809355018F8180935601888580FF33
:100F400017C081E0809357018985809358018A8575
:100F5000809359018B8580935A018C8580935B0126
:100F6000DF91CF911F910F91FF90EF900C949C0611
:100F700010925701E9CF893C01F58C81853009F049
:100F800097CF8D81893C09F093CF8E81893C09F000
:100F90008FCF8F8180933901888580933A0189852D
:100FA00080933B010E94EC06F0E0E0E0DF91CF91FE
:100FB0001F910F91FF90EF9009948A3C09F040C077
:100FC0008C81833009F074CF8D818A3C09F070CF19
:100FD0008E818A3C09F06CCFE0903901F0903A01A3
:100FE00000913B011081D181C2814FE057E260E066
:100FF00071E083E094E10E941D0680E88093C702BF
:1010000081E88093C8028BE78093C9029BEC9093A0
:10101000CA0297E09093CB02E092CC02F092CD020C
:101020000093CE028093CF021093D002D093D102CE
:10103000C093D20287E18093D3028DE090E06BCF22
:101040008C3E09F035CFF9013596ACE3B1E06D96F1
:1010500081918D93CE17DF07D9F7DF91CF911F9143
:101060000F91FF90EF900C94C4061F920F920FB651
:101070000F9211242F933F934F935F936F937F931E
:101080008F939F93AF93BF93EF93FF9389E893E080
:101090000E944001FF91EF91BF91AF919F918F917D
:1010A0007F916F915F914F913F912F910F900FBE64
:1010B0000F901F9018951F920F920FB60F92112448
:1010C0002F938F939F93EF93FF93E0919903F09168
:1010D0009A038081E0919F03F091A00382FD1BC0E1
:1010E00090818091A2038F5F8F732091A303821759
:1010F00041F0E091A203F0E0E757FC4F958F809319
:10110000A203FF91EF919F918F912F910F900FBEAE
:101110000F901F9018958081F4CF1F920F920FB6F9
:101120000F9211242F933F938F939F93AF93BF936D
:101130008091390290913A02A0913B02B0913C0219
:1011400030912A0223E0230F2D3758F50196A11D77
:10115000B11D20932A028093390290933A02A09302
:101160003B02B0933C0280912B0290912C02A09103
:101170002D02B0912E020196A11DB11D80932B026C
:1011800090932C02A0932D02B0932E02BF91AF91A9
:101190009F918F913F912F910F900FBE0F901F90B5
:1011A000189526E8230F0296A11DB11DD2CF1F92DC
:1011B0000F920FB60F9211242F933F934F935F938B
:1011C0006F937F938F939F93AF93BF93EF93FF930F
:1011D0008091B900887F803609F44AC0F0F58832E2
:1011E00009F4A5C018F5803109F499C0B8F4882332
:1011F00009F4F5C0883009F492C0FF91EF91BF91D6
:10120000AF919F918F917F916F915F914F913F919E
:101210002F910F900FBE0F901F901895883109F4F1
:1012200086C0803251F78093030214C0803409F4E1
:101230009BC040F48033B9F38833F9F680930302FE
:1012400085ECAEC0803509F483C0883509F494C0BC
:10125000883499F60E947405D0CF883909F48AC081
:1012600038F5883729F050F4883611F0803729F6A0
:1012700083E0809304021092020255C0883809F47A
:1012800079C0803919F0803809F0B7CF8091020217
:10129000803208F06FC0E091020281E08E0F8093EF
:1012A00002028091BB00F0E0EE51FE4F80833BC014
:1012B000803B39F0D0F4803A09F477C0883A09F0DD
:1012C0009CCF84E0809304021092E1011092E0012F
:1012D000F0E0E0E009958091E00181110FC081E02C
:1012E0008093E0011092C00109C0803C09F4A8CFAE
:1012F000883C09F4A5CF883B09F07FCFE091E1015C
:1013000081E08E0F8093E101F0E0E054FE4F808198
:101310008093BB009091E1018091E00129C0809110
:1013200029028093BB0085EC8093BC0066CF90912E
:10133000280280912702981758F5E091280281E051
:101340008E0F80932802F0E0E95FFD4F8081E9CFA6
:10135000E091280281E08E0F809328028091BB00EB
:10136000F0E0E95FFD4F8083909128028091270291
:101370009817C8F285E8D8CFE091280281E08E0F57
:10138000809328028091BB00F0E0E95FFD4F8083ED
:101390008091060281115ECF81E08093050284EA8C
:1013A0008093BC001092040228CF85EC8093BC008F
:1013B0001092040280910202803230F4E091020225
:1013C000F0E0EE51FE4F10826091020270E082EE7A
:1013D00091E0F0E0E0E00995109202020ECF109249
:1013E000030238CFE9E8F3E01382128288EE93E03B
:1013F000A0E0B0E084839583A683B78386E691E07E
:101400009183808385EC90E09587848784EC90E0DD
:101410009787868780EC90E0918B808B81EC90E0C1
:10142000938B828B82EC90E0958B848B86EC90E0A2
:10143000978B868B118E128E138E148EE6E2F4E05B
:1014400088E791E09183808312821382148215824F
:101450000895CF93DF9300D000D000D0CDB7DEB792
:10146000789484B5826084BD84B5816084BD85B57F
:10147000826085BD85B5816085BD80916E0081608B
:1014800080936E0010928100809181008260809331
:101490008100809181008160809381008091800033
:1014A0008160809380008091B10084608093B1005E
:1014B0008091B00081608093B00080917A00846058
:1014C00080937A0080917A00826080937A00809184
:1014D0007A00816080937A0080917A00806880939E
:1014E0007A001092C100E0919903F0919A0382E092
:1014F0008083E0919503F09196031082E091970329
:10150000F091980383E380831092A103E0919D03FF
:10151000F0919E0386E08083E0919B03F0919C0311
:10152000808180618083E0919B03F0919C038081A6
:1015300088608083E0919B03F0919C0380818068A8
:101540008083E0919B03F0919C0380818F7D808359
:1015500090E080E00E94EB0F8093370281E090E002
:101560000E94EB0F809338028091370290913802ED
:1015700085329445B9F11A82198265E2CE0101964D
:101580000E94830681E090E09A83898364E5CE011E
:1015900001960E9483060E949C060E94C4060E9437
:1015A000EC0687E390E0C12CD12C7601C394009720
:1015B00009F44DC0FC0173E0F595E7957A95E1F7E4
:1015C000E05DFD4F282F2770B701A60104C0440F2E
:1015D000551F661F771F2A95D2F72081242B208361
:1015E0000197E5CFA4E5EA2EA1E0FA2E06E010E08F
:1015F000C8010E94EB0FD7018D937D010F5F1F4F34
:101600000E301105A9F7FCE3EF2EF1E0FF2E04E107
:1016100010E0C8010E94EB0FF70181937F010F5F7B
:101620001F4F0C321105A9F782E390E00E94EB0FE7
:101630008093390183E390E00E94EB0F80933A019D
:1016400084E390E00E94EB0F80933B01AACF6CE112
:1016500071E08EE592E00E94700488EC90E0909337
:101660005A02809359020CB406FC25C061E08AE05E
:101670000E941B0261E08AE00E94CF0161E08BE0E2
:101680000E941B0261E08DE00E941B0260E08CE082
:101690000E941B0261E08BE00E94CF0160E08BE0C2
:1016A0000E94CF0160E08DE00E94CF0180E58CBDFB
:1016B0008DB581608DBD8AE080932F0261E00E942C
:1016C0001B020E9447034FEF60E08FEF0E947B03F5
:1016D00062E070E080E090E00E9471020E944E03A0
:1016E0008DE10E94420380E00E9442031EB50E94E9
:1016F0004703112399F370E060E088E00E94B9038A
:1017000070E060E08CE00E94B9036FEF7BE08AE05C
:101710000E94B90360E07CE084E00E94B9036FEFAF
:1017200071E186E00E94B90361EB88E30E94AC039B
:101730006FE370E388E20E94B90369EF77EF80E31B
:101740000E94B9036DE080EC0E94AC0360E081EC84
:101750000E94AC0342E362EC80E80E947B0362E1FA
:101760007CE086EC0E94B90362E184EC0E94AC0349
:101770006CED75E08AEC0E94B90360915E0284EE24
:101780000E94AC0360915F0285EE0E94AC03609101
:10179000600282EE0E94AC036091610283EE0E94BF
:1017A000AC036091620280EE0E94AC036091630220
:1017B00081EE0E94AC0360E184ED0E94AC0360E026
:1017C00071E086ED0E94B9038AEE0E94C60380FD97
:1017D000FBCF8FE10E94900340EC6BE180E80E9418
:1017E0007B0344E06FE180E80E947B0382E70E9474
:1017F000C603863008F08F5F811114C009EC10E039
:10180000F8016491662341F089E893E00E94620147
:101810000F5F1F4F892BA1F76AE771E089E893E01A
:101820000E94A204209139012093180190913A015D
:101830009093190180913B0180931A012093140128
:101840009093150180931601209322019093230118
:101850008093240168E171E085E893E00E949A0496
:10186000109276031092750381E08093770364E110
:1018700071E081E793E00E949A0460E171E08DE6F7
:1018800093E00E949A046CE071E081E893E00E948A
:101890009A04E5E8F3E021E833E064E672E049E821
:1018A00053E09191D9018D919D018095892BDB01A8
:1018B0008D93BD014E175F07A1F765E873E08DE7D3
:1018C00091E00E94470561E773E084E891E00E949F
:1018D000470562E271E08BE891E00E944705809144
:1018E0009002883098F4B5E08B9FF0011124E859FC
:1018F000FD4F2BE137E03183208328EB32E2338345
:10190000228391E094838F5F8093900261E084E072
:101910000E941B0261E085E00E941B0261E086E0FC
:101920000E941B0261E087E00E941B0261E088E0E8
:101930000E941B0261E089E00E941B0262E971E0E3
:1019400089E893E00E94A2046AE771E089E893E0E5
:101950000E94A20440E0842E40E0942EFF24F394E1
:10196000EE24EA9454E1552E62E0462E2FB7F89407
:101970008091390290913A02A0913B02B0913C02D1
:101980002FBF409135015091360160913701709120
:1019900038018C019D01041B150B260B370BB90177
:1019A000A801483C51056105710508F430C18093D8
:1019B000350190933601A0933701B093380180919F
:1019C00034018B3FB8F48F5F8093340180918003A2
:1019D00091E0980F90938003853188F089E893E037
:1019E0000E9420011816190644F489E893E00E9429
:1019F000FE00F4CF50923401E9CF10928003909111
:101A0000340120915701953138F0222309F45FC148
:101A1000E0927F03E0927E0380917D033FEF380FD9
:101A200040917C03841799F0323088F480937C03D2
:101A300010927B0310927A03823009F44DC14091D9
:101A40005501842F880F880F840F80937B0380912A
:101A50007A03882329F0815080937A0310927B03C4
:101A600080917B03882319F0815080937B0332306F
:101A700010F49B3030F010927B0310927A03109296
:101A80007C0390917B0380917A03222309F430C177
:101A900010927903911129C1109278038111F0926B
:101AA00079032DE63CE147E650E4609155027091E0
:101AB000560280915702909158020E943E10609306
:101AC00055027093560280935702909358024091AA
:101AD0007F0350E0EEE3F2E090E080E09A01082E10
:101AE00002C0359527950A94E2F72170219301965B
:101AF0008830910599F740917E0350E0E6E4F2E0EA
:101B000090E080E09A01082E02C0359527950A944E
:101B1000E2F72170219301968830910599F7809121
:101B2000780380934E028091790380934F028091D5
:101B30003D02982F9170909350028695817080930A
:101B4000510210925202E0913C01EE2339F0F0E094
:101B5000E35CFD4F608184E00E94CF01E0913D0194
:101B6000EE2339F0F0E0E35CFD4F608185E00E94F8
:101B7000CF01E0913E01EE2339F0F0E0E35CFD4F50
:101B8000608186E00E94CF01E0913F01EE2339F0B1
:101B9000F0E0E35CFD4F608187E00E94CF01E091BF
:101BA0004001EE2339F0F0E0E35CFD4F608188E016
:101BB0000E94CF01E0914101EE2339F0F0E0E35CB7
:101BC000FD4F608189E00E94CF01E8E2F1E090E002
:101BD00080E022E03191830F911D2F5F2D30D1F7EE
:101BE000809333014FE057E262E271E083E094E1D9
:101BF0000E941D068EE0E6E2F1E0A7ECB2E0019063
:101C00000D928A95E1F78EE090E00E943E0461E03B
:101C100070E080E090E00E94710280915D02882374
:101C200079F060915B0270915C026115710509F0B9
:101C30006EC06FEF7BE08CE00E94B90310925D02F2
:101C400089E30E94C603811165C080917703857086
:101C500009F019C1809175039091760301969093D4
:101C60007603809375038DE693E00E94A20088239B
:101C700071F080916C0381110AC080916B03811116
:101C800006C08DE693E00E94E905F0926B0387E6BB
:101C900093E00E94A200882371F080916603811175
:101CA0000AC080916503811106C087E693E00E9417
:101CB000E905F09265038114910409F457CE0E945E
:101CC0002C01882309F452CE0E9400004FCE1092BE
:101CD0007F0310927E03A0CE40915401842F880F81
:101CE000880F840F80937A03B2CEF0927803D6CE19
:101CF000F0927903911108C0F0927803882309F4D7
:101D0000D0CE10927903CDCE10927803F7CF6150E8
:101D1000710991CF60915B0270915C0280E00E943A
:101D2000B903BE016F5F7F4F86E090E00E945403CD
:101D300089819A8190935C0280935B028D819E8160
:101D40008C010078112787FF12C08B819C8104973A
:101D50000091590210915A02015011098017910700
:101D600008F48C016DE972E0C8010E945403F80187
:101D7000E356FD4F1082F0925D0240E46EE180E890
:101D80000E947B030115110509F45FCF093211058B
:101D900008F491CF8091A902883009F08CCF80910E
:101DA000AA02863009F096C044E050E065E873E08E
:101DB00083EC92E00E942411892B09F07CCF809162
:101DC000B202813021F583EA92E00E948F041092E2
:101DD000B1024092B20263EB72E08DEB92E00E949E
:101DE00070046EE572E083EB92E00E94700469EB90
:101DF00072E083EC92E00E949A0465E873E089EB5C
:101E000092E00E949A048AE290E00E94DE038091B0
:101E1000770383FF0DC01091B202123049F467E9D5
:101E200072E081E793E00E947804811110937703B8
:101E300080916C03811110C080916B03882361F045
:101E400061E972E08DE693E00E947804882321F036
:101E5000F0926C0310926B038091660381112BCF7B
:101E600080916503882309F426CF61E972E087E653
:101E700093E00E947804882309F41DCFF092660352
:101E80001092650318CF8091750390917603892B8A
:101E900009F0E0CE61E184ED0E94AC0361E082EDE7
:101EA0000E94AC038AEE0E94C60380FDFBCF60E077
:101EB00082ED0E94AC0389ED0E94C60382FFCACE68
:101EC00081E793E00E94E905809177038860809321
:101ED0007703C0CE0932110509F4EDCE8111EBCEA6
:101EE0008091AB02853409F0E6CE44E050E065E82D
:101EF00073E08BEB92E00E942411892BA9F044E05F
:101F000050E064E672E08BEB92E00E942411892B92
:101F100059F044E050E06CE571E08BEB92E00E94F8
:101F20002411892B09F0C7CE80919002882309F4EF
:101F3000C2CE8091B402813109F0BDCE38E6C32E05
:101F400032E0D32E712C612C8091900286151704FB
:101F500009F00CF4B0CED60112962C91129713967C
:101F60009C9113978091C102A92EB12C8A151B0454
:101F700011F58091C20282131EC014962C91149701
:101F80002223C9F00091C30210E0102F00272091F6
:101F9000C4022850330B020F131F4091BF0250910F
:101FA000C002542745275427ED91FC9127EC32E0DD
:101FB00067EB72E00995BFEF6B1A7B0AE5E0CE0E86
:101FC000D11CC2CFFB01DC0102C005900D92415033
:101FD0005040D8F70895F999FECF92BD81BDF89A87
:101FE000992780B50895262FF999FECF1FBA92BD83
:101FF00081BD20BD0FB6F894FA9AF99A0FBE0196EA
:102000000895E89409C097FB3EF4909580957095EB
:1020100061957F4F8F4F9F4F9923A9F0F92F96E934
:10202000BB279395F695879577956795B795F111A9
:10203000F8CFFAF4BB0F11F460FF1BC06F5F7F4F46
:102040008F4F9F4F16C0882311F096E911C0772358
:1020500021F09EE8872F762F05C0662371F096E861
:10206000862F70E060E02AF09A95660F771F881F30
:10207000DAF7880F9695879597F908950E94511081
:102080000C94C2100E94B41038F00E94BB1020F0D3
:10209000952311F00C94AB100C94B11011240C94F6
:1020A000F6100E94D31070F3959FC1F3950F50E086
:1020B000551F629FF001729FBB27F00DB11D639FFA
:1020C000AA27F00DB11DAA1F649F6627B00DA11DA0
:1020D000661F829F2227B00DA11D621F739FB00D46
:1020E000A11D621F839FA00D611D221F749F3327B6
:1020F000A00D611D231F849F600D211D822F762F4F
:102100006A2F11249F5750409AF0F1F088234AF02B
:10211000EE0FFF1FBB1F661F771F881F9150504097
:10212000A9F79E3F510580F00C94AB100C94F6106B
:102130005F3FE4F3983ED4F3869577956795B7951E
:10214000F795E7959F5FC1F7FE2B880F911D969538
:10215000879597F9089597F99F6780E870E060E0A8
:1021600008959FEF80EC089500240A941616170630
:1021700018060906089500240A9412161306140678
:1021800005060895092E0394000C11F4882352F0DB
:10219000BB0F40F4BF2B11F460FF04C06F5F7F4F93
:1021A0008F4F9F4F089557FD9058440F551F59F07A
:1021B0005F3F71F04795880F97FB991F61F09F3F34
:1021C00079F087950895121613061406551FF2CF5D
:1021D0004695F1DF08C0161617061806991FF1CFAD
:1021E00086957105610508940895E894BB276627D4
:1021F0007727CB0197F90895A1E21A2EAA1BBB1BE2
:10220000FD010DC0AA1FBB1FEE1FFF1FA217B307C2
:10221000E407F50720F0A21BB30BE40BF50B661FD8
:10222000771F881F991F1A9469F76095709580959C
:1022300090959B01AC01BD01CF010895EE0FFF1FEA
:102240000590F491E02D0994FB01DC0104C08D910F
:102250000190801921F441505040C8F7881B990B18
:062260000895F894FFCF81
:10226600FFFFFFFF80817B7B02010147FFFFFF002D
:1022760008080808000000010000007B0000560066
:10228600007B000000FF80817FED0801020304004F
:10229600000000CC14C8000000C0A805010203001D
:1022A6000000000000000000000000000000000028
:1022B600000000000204000000000000FFFFFFFF16
:1022C600FFFF000000006201C200EF00AF01200125
:1022D600FE00120100000000FD040D0A005F4950D7
:1022E6005F3A2000475761793A20004167494F3AE3
:1022F6002000536574757020636F6D706C6574652E
:102306002C2077616974696E6720666F7220416759
:082316004F70656E4750530043
:00000001FF
