:0200000460009A
:100000004643464200000156000000000103030081
:1000100000000000000000000000000000000000E0
:1000200000000000000000000000000000000000D0
:1000300000000000000000000000000000000000C0
:1000400000000000010408000000000000000000A3
:100050000000800000000000000000000000000020
:100060000000000000000000000000000000000090
:100070000000000000000000000000000000000080
:10008000EB04180A063204260000000000000000FD
:10009000050404240000000000000000000000002F
:1000A0000000000000000000000000000000000050
:1000B0000604000000000000000000000000000036
:1000C0000000000000000000000000000000000030
:1000D00020041808000000000000000000000000DC
:1000E0000000000000000000000000000000000010
:1000F0000000000000000000000000000000000000
:10010000D8041808000000000000000000000000F3
:100110000204180804200000000000000000000095
:1001200000000000000000000000000000000000CF
:10013000600400000000000000000000000000005B
:1001400000000000000000000000000000000000AF
:10015000000000000000000000000000000000009F
:10016000000000000000000000000000000000008F
:10017000000000000000000000000000000000007F
:10018000000000000000000000000000000000006F
:10019000000000000000000000000000000000005F
:1001A000000000000000000000000000000000004F
:1001B000000000000000000000000000000000003F
:1001C000000100000010000001000000000000001D
:1001D000000001000000000000000000000000001E
:1001E000000000000000000000000000000000000F
:1001F00000000000000000000000000000000000FF
:10020000FFFFFFFFFFFFFFFFFFFFFFFFFFFFFFFFFE
:10021000FFFFFFFFFFFFFFFFFFFFFFFFFFFFFFFFEE
:10100000D100204301140060000000000000000037
:101010002010006000100060000805600000000063
:10102000000000600014050000000000FFFFFFFF4B
:10103000FFFFFFFFFFFFFFFFFFFFFFFFFFFFFFFFC0
:10104000FFFFFFFFFFFFFFFFFFFFFFFFFFFFFFFFB0
:10105000FFFFFFFFFFFFFFFFFFFFFFFFFFFFFFFFA0
:10106000FFFFFFFFFFFFFFFFFFFFFFFFFFFFFFFF90
:101400002DE9F8437C4B7D4A5A647D4A1A644FF4B7
:101410002A029A637B4B9D46BFF34F8FBFF36F8FBA
:1014200020F038FE0822784BC3F85421774B784AD5
:101430009A4210D0774B9A420DD21146013B9B1A2B
:1014400023F003030433714A134452F8040B41F8A8
:10145000040B9A42F9D1704B704A9A4210D0704BEB
:101460009A420DD21146013B9B1A23F00303043329
:10147000694A134452F8040B41F8040B9A42F9D11B
:10148000684B694A9A420BD2131D684AD21A22F05D
:1014900003021A44043B002143F8041B9A42FBD187
:1014A0004FF47002624B1A6000236249624A41F8AD
:1014B00023200133B02BFAD1604B8021604A03F81E
:1014C000011B9342FBD15B4D5E4B1D604E4C4FF0B8
:1014D0008037C4F80471DFF8AC91C4F80091C4F807
:1014E000F470DFF8A481C4F8F080574A136843F41D
:1014F000E0231360554EF36923F07F0343F040036C
:10150000F361736A23F07F0343F0400373623A4B45
:101510004FF0FF329A66DA661A675A6720F0C0FD0C
:101520004B4BAB634B4BEB6363224B4B1A60002579
:1015300004331D600322083B1A60484A03F55163D7
:101540001A60474A136843F080731360454A136872
:1015500043F001031360444B1A68444B1A6020F0B7
:101560005DFFC4F80471C4F80091C4F8F470C4F8C5
:10157000F0803F4821F0D8F8F36E43F44053F3660F
:101580003C4B1D60C3F80851C3F81851C3F82851EB
:10159000C3F8385103F5A0239B6B13F0010F09D159
:1015A000354B364A5A6542F615621A659A6B42F017
:1015B00001029A63304A936843F00113936020F06C
:1015C000DFFD20F00DFD21F0DFF820F057FF20F0C7
:1015D00063FD2B4B1A68132AFCD920F0EBFF284B34
:1015E0001A68B2F5967FFBD320F058FD21F090F8F1
:1015F00021F0D6F830BFFDE700C00A40FFAAAAAA32
:10160000070020000000062000800D4004F3026067
:1016100000000000688B0100707E04600000002064
:10162000C062002020A80020DC88002023A8002021
:1016300088ED00E00060002031E5000000E400E0FB
:10164000A0E400E008ED00E024ED00E000C00F4061
:10165000EDF70000F5F7000014E000E000002020A6
:10166000FCED00E0001000E0041000E0F8A5002010
:101670000046C3230040084000400D400000C05613
:10168000FCA500201B1018200C0D111308B54FF4F9
:101690008C72002121F068F808BD00BF28B108B5A0
:1016A0004FF48C7110F05EFA08BD7047F0B5C02A97
:1016B00008D0B2F5807F08D0802A40F0DA800A2373
:1016C0000360DBE00C230360D8E00E230360D5E069
:1016D00001EB86077D78BC78240444EA052411F8E0
:1016E00026502C43FD7844EA05644EF8044F013639
:1016F000B242EDD802680C2A33D00E2A66D00A2AEC
:1017000040F0BA80614EA830354656F8047BDC685C
:10171000C4F30721294491F828101A687A404A40F6
:1017200005EB146191F8281082EA014255FA84F120
:1017300091F8281082EA0162C4F30741294491F824
:10174000281082EA01221A6159684A405A61996850
:101750004A409A616240DA6110339842D5D1002044
:10176000F0BD4B4EC830351D5C69C4F307222A44D6
:1017700092F828701A6856F8041F4A407A4005EB20
:10178000146191F8281082EA014255FA84F191F827
:10179000281082EA0162C4F30741294491F8281015
:1017A00082EA01229A6159684A40DA6199684A409E
:1017B0001A62D9684A405A6219694A409A6262407C
:1017C000DA6218339842CFD10020F0BD304EE830B5
:1017D000341DDD69C5F30722224492F828701A6887
:1017E00056F8041F4A407A4004EB156191F828101E
:1017F00082EA014254FA85F191F8281082EA0162E6
:10180000C5F30741214491F8281082EA01221A62A7
:1018100059684A405A6299684A409A62D9684A406F
:10182000DA6254FA82F191F828701969794004EB70
:10183000126797F8287081EA0761C2F307272744E7
:1018400097F8287081EA0721C2F30742224492F8F0
:10185000282081EA02421A6359694A405A63996909
:101860004A409A636A40DA6320339842B1D100203B
:10187000F0BD6FF01F00F0BD0020F0BD00F10803C7
:1018800086464EF8043F5209002621E7D027026021
:10189000CC2702602DE9F04FC9B004460D4616462C
:1018A00002A8FFF7F3FE04F10803636032462946FD
:1018B00002A8FFF7FBFE019000286CD1DDF808C0FC
:1018C000C4F800C04FEA0C1A039B03EB0A0753F855
:1018D0000A30A3607B68E360BB68236104F11808E9
:1018E000FB6863610CF1FF3EA7F11009BEF1000F28
:1018F00041DD143F04F114002A4A38E054F8043F53
:1019000052FA83F191F8281002EB810102EB136B7C
:101910009BF828B002EB8B0BD1F82811DBF8286577
:101920007140C3F3072B93449BF828B002EB8B0B59
:10193000DBF828697140C3F30743134493F8283058
:1019400002EB8303D3F8283D594040F8041FA84216
:10195000D4D1103F2846BEF1010E08D1AAF1100AD9
:10196000D0444FEA0C1CCCF1100CE14403E000F130
:1019700010053C46C2E7D9F80030C8F80030D9F865
:101980000430C8F80430D9F80830C8F80830D9F85D
:101990000C30C8F80C3002A8FFF780FE019849B05F
:1019A000BDE8F08FD02702602DE9F04F83B001929F
:1019B00047684D788C78230443EA05240B78234349
:1019C000CC7843EA04633C685C404D798E793304FB
:1019D00043EA05260B793343CE7943EA06637E68F2
:1019E0005E4091F809E08D7A2B0443EA0E250B7ACC
:1019F0002B43CD7A43EA0563BD685D4091F80DC085
:101A000091F80EE04FEA0E4343EA0C2E0B7B4EEAB0
:101A10000303C97B43EA016307F11009F9685940E0
:101A200003684FEA630A0AF1FF3E3869BEF1000F0E
:101A300040F304813037F64BE0B203EB8000006BDB
:101A400057F8202C80EA020C080E03EB8000D0F837
:101A500030048CEA000CC6F3072003EB8000D0F8BA
:101A600030088CEA0000C5F3074C03EB8C0CDCF863
:101A700030CC80EA0C005FFA86FC03EB8C0CDCF8BF
:101A800030C057F81C2C8CEA020C4FEA146803EBA8
:101A90008808D8F830848CEA080CC5F3072803EBD3
:101AA0008808D8F830888CEA080CC1F3074803EBA3
:101AB0008808D8F8308C8CEA080C5FFA85F803EBBC
:101AC0008808D8F8308057F8182C88EA02084FEABE
:101AD000166B03EB8B0BDBF830B488EA0B08C1F311
:101AE000072B03EB8B0BDBF830B888EA0B08C4F349
:101AF000074B03EB8B0BDBF830BC88EA0B08C9B251
:101B000003EB8101096B57F8142C51402D0E03EBA8
:101B10008505D5F830546940C4F3072403EB8404E9
:101B2000D4F830486140C6F3074603EB8606D6F882
:101B3000304C6140C4B203EB84040E0E03EB860606
:101B4000256BD6F83044654057F8104C6C40CCF308
:101B5000072503EB8505D5F830586C40C8F30745D9
:101B600003EB8505D5F8305C6C405FFA8CF503EB30
:101B700085054FEA106B03EB8B0B2E6BDBF83054B3
:101B80006E4057F80C5C7540C8F3072603EB8606D9
:101B9000D6F830687540C1F3074B03EB8B0BDBF8CD
:101BA000306C6E405FFA88FB03EB8B0B4FEA1C65D1
:101BB00003EB8505DBF830B0D5F830548BEA050B24
:101BC00057F8085C8BEA0505C1F3072B03EB8B0B79
:101BD000DBF830B885EA0B05C0F3074B03EB8B0B42
:101BE000DBF830BC85EA0B05C9B203EB81014FEA93
:101BF000186803EB8808D1F830B0D8F830148BEAB5
:101C0000010857F8041C88EA0101C0F3072003EB20
:101C10008000D0F830084140CCF3074C03EB8C0C2B
:101C2000DCF8300C414057F8200BBEF1010E7FF478
:101C300003AF6FF07843534409EB4319744B5FFAD9
:101C400084FE03EB8E0E0F0E03EB8707DEF830E009
:101C5000D7F830748EEA070E8EEA0000C6F3072725
:101C600003EB8707D7F830787840C5F3074703EBD5
:101C70008707D7F8307C80EA070EF0B203EB8000CC
:101C80004FEA146C03EB8C0C076BDCF83004474014
:101C9000D9F804007840C5F3072703EB8707D7F886
:101CA00030787840C1F3074703EB8707D7F8307CDB
:101CB0004740E8B203EB80004FEA166803EB880860
:101CC000D0F830C0D8F830048CEA000CD9F80800FD
:101CD0008CEA000CC1F3072003EB8000D0F8300839
:101CE0008CEA0000C4F3074C03EB8C0CDCF830CC1E
:101CF00080EA0C00C9B203EB81012D0E03EB8505D0
:101D0000D1F830C0D5F830148CEA0105D9F80C10A0
:101D10006940C4F3072403EB8404D4F830486140DD
:101D2000C6F3074603EB8606D6F8303C5940394BDC
:101D300053FA8EF494F82860D9F81040744003EBFD
:101D4000116595F8286084EA0664C7F307251D44E9
:101D500095F8286084EA0624C0F307451D4495F8E9
:101D6000286084EA064653FA87F494F82850D9F894
:101D700014406C4003EB1E6595F8285084EA056416
:101D8000C0F307251D4495F8285084EA0524C1F3C3
:101D900007451D4495F8285084EA054553FA80F418
:101DA00094F828C0D9F818408CEA040403EB176CA7
:101DB0009CF828C084EA0C64C1F3072C9C449CF86E
:101DC00028C084EA0C24CEF3074C9C449CF828C01D
:101DD00084EA0C4453FA81F191F828C0D9F81C1018
:101DE0008CEA010103EB106090F8280081EA0061A1
:101DF000CEF3072E9E449EF8280081EA0021C7F307
:101E000007471F4497F8283081EA0343019803E00D
:101E1000C8380260D02702600670310A4170310C68
:101E20008170360EC6700571290A4171290C8171C5
:101E30002D0EC5710472210A4172210C8172240E8B
:101E4000C4720373190A4173190C81731B0EC37397
:101E5000002003B0BDE8F08F2DE9F04F83B0019270
:101E600047684C788D782B0443EA04250B782B4384
:101E7000CD7843EA05633D685D404C798E79330443
:101E800043EA04260B793343CE7943EA06637E683E
:101E90005E4091F809E08C7A230443EA0E240B7A21
:101EA0002343CC7A43EA0463BC685C4091F80D801C
:101EB0008B7B1B0443EA08280B7B48EA030391F859
:101EC0000F8043EA086807F11009FB6888EA0308F5
:101ED00003684FEA630A0AF1FF3E3869BEF1000F5A
:101EE00040F308813037F94BE9B203EB8101D1F8B7
:101EF000280157F8201C4140300E03EB8000D0F839
:101F000028054140C8F3072003EB8000D0F82809DA
:101F10004140C4F3074003EB8000D0F8280D48404F
:101F2000F1B203EB8101D1F8281157F81C2C514074
:101F30004FEA146C03EB8C0CDCF828C581EA0C0129
:101F4000C5F3072C03EB8C0CDCF828C981EA0C01E3
:101F5000C8F3074C03EB8C0CDCF828CD81EA0C01AC
:101F60005FFA84FC03EB8C0CDCF828C157F8182CC2
:101F70008CEA020C4FEA186B03EB8B0BDBF828B5ED
:101F80008CEA0B0CC6F3072B03EB8B0BDBF828B9A1
:101F90008CEA0B0CC5F3074B03EB8B0BDBF828BD6E
:101FA0008CEA0B0C5FFA88F803EB8808D8F82881D4
:101FB00057F8142C88EA02082D0E03EB8505D5F896
:101FC000285588EA0508C4F3072403EB8404D4F8F1
:101FD000284988EA0404C6F3074603EB8606D6F8C8
:101FE000285D84EA0508C4B203EB84040E0E03EBFB
:101FF0008606D4F82851D6F82845654057F8104C85
:102000006C40C8F3072503EB8505D5F828697440B3
:10201000CCF3074503EB8505D5F8285D6540CCB2C8
:1020200003EB84044FEA1C6B03EB8B0BD4F82861A1
:10203000DBF82845664057F80C4C7440C0F307267F
:1020400003EB8606D6F828697440C8F3074B03EB08
:102050008B0BDBF8286D66405FFA8CFB03EB8B0B78
:102060004FEA186403EB8404DBF828B1D4F8284560
:102070008BEA040B57F8084C8BEA0404C1F3072BD6
:1020800003EB8B0BDBF828B984EA0B04C0F3074B96
:1020900003EB8B0BDBF828BD84EA0B045FFA88F8AE
:1020A00003EB8808000E03EB8000D8F82881D0F8F5
:1020B000280588EA000857F8040C88EA0000CCF3E9
:1020C000072C03EB8C0CDCF8288980EA0800C1F3AC
:1020D000074103EB8101D1F8281D80EA010857F878
:1020E000200BBEF1010E7FF4FFAE6FF07843534436
:1020F00009EB4319754BE9B203EB8101370E03EB92
:102100008707D1F828E1D7F828158EEA0101414068
:10211000C8F3072003EB8000D0F828094140C4F33E
:10212000074003EB8000D0F8280D81EA000EF1B2E1
:1021300003EB8101200E03EB8000D1F82871D0F869
:1021400028154F40D9F804107940C5F3072003EB58
:102150008000D0F828094140C8F3074003EB800015
:10216000D0F8287D4F40E1B203EB81014FEA186CB3
:1021700003EB8C0CD1F82801DCF828154840D9F87D
:1021800008104140C6F3072003EB8000D0F828096F
:102190004140C5F3074003EB8000D0F8280D4140D3
:1021A0005FFA88F803EB88082D0E03EB8505D8F855
:1021B00028C1D5F828058CEA0005D9F80C0068403C
:1021C000C4F3072403EB8404D4F828496040C6F321
:1021D000074603EB8606D6F8283D58403C4B53FA99
:1021E0008EF414F8C86CD9F81040744003EB1765EE
:1021F00015F8C86C84EA0664C0F307251D4415F879
:10220000C86C84EA0624C1F307451D4415F8C86C60
:1022100084EA064653FA87F414F8C85CD9F81440E7
:102220006C4003EB116515F8C85C84EA0564CEF3D5
:1022300007251D4415F8C85C84EA0524C0F307454A
:102240001D4415F8C85C84EA054553FA81F414F876
:10225000C8CCD9F818408CEA040403EB106C1CF8C5
:10226000C8CC84EA0C64C7F3072C9C441CF8C8CC87
:1022700084EA0C24CEF3074C9C441CF8C8CC84EAB6
:102280000C4453FA80F010F8C8CCD9F81C008CEA42
:10229000000003EB1E6E1EF8C8EC80EA0E60C1F36E
:1022A0000721194411F8C81C80EA0121C7F3074728
:1022B0001F4417F8C83C81EA034301980670310AAD
:1022C0004170310C8170360E04E000BFD0270260EF
:1022D000C0490260C6700571290A4171290C8171DB
:1022E0002D0EC5710472210A4172210C8172240ED7
:1022F000C4720373190A4173190C81731B0EC373E3
:10230000002003B0BDE8F08F10B51446012904D1B8
:102310001A462146FFF748FB10BD1A462146FFF733
:102320009BFD10BD2DE9F04784B0DDF830800D9C99
:1023300012F00F0F58D10746894616461D4621B1A7
:10234000002A54D008F1FF3849E0002A51D04FF05C
:102350000009EE46D8F80000D8F80410D8F8082094
:10236000D8F80C30AEE80F002346424649463846BE
:10237000FFF7CAFF631E691E04F10F0E13F8010F69
:1023800011F8012F42401A707345F7D1EE46BEE8AE
:102390000F0028606960AA60EB6008F11008103433
:1023A000103ED6D1002027E018F8010F11F8013FA8
:1023B000434002F8013FD045F6D123462246494624
:1023C0003846FFF7A1FF20686168A268E3682860CB
:1023D0006960AA60EB601034D046103E0BD0691ED5
:1023E000621E08F1100ADFE76FF0210004E0002010
:1023F00002E0002000E0002004B0BDE8F08700BF4C
:102400002DE9F84F81469A460A9EDDF82C800C9FF4
:102410001C6809B1C2B92EE06AB315464FF0010B32
:102420002CB93346324659464846FFF76DFF18F837
:10243000012B335D534007F8013B3255013404F062
:102440000F04013DECD116E0013F15464FF0010BA2
:102450002CB93346324659464846FFF755FF325DA0
:1024600018F8013B534007F8013F3355013404F09D
:102470000F04013DECD1CAF800400020BDE8F88F00
:10248000002A43D02DE9F04F87B016461C468946F6
:102490008246119B03F10108109F01374FF0010B99
:1024A00001AD20686168A268E3680FC52346224633
:1024B00059465046FFF728FFB9F1000F08D117F829
:1024C000012C8DF814202378534008F8013C0AE0D1
:1024D000227817F8013C534008F8013CB9F1010F8C
:1024E00008BF8DF8143006AB53F8130D59689A687D
:1024F000DB6820606160A260E36008F101080137D9
:10250000013ECDD1002007B0BDE8F08F002070471C
:102510002DE9F04F83B0DDF830900D9E0E9F1468CA
:102520000F2C2FD8984692460D46019031B34FF0AC
:10253000010BBCB94B46424659460198FFF7E4FEF1
:1025400098F80F300133DBB288F80F3053B908F137
:102550000F02414612F8013D0133DBB213700BB993
:102560009142F7D119F8042016F8013B534007F8BF
:10257000013B013404F00F04013DDAD1CAF80040F8
:10258000002001E06FF0200003B0BDE8F08F00BF35
:1025900008B5FFF709FA08BD08B5FFF75DFC08BDEF
:1025A0002DE9F04FFBB083462022002172A820F0D5
:1025B000DBF80BA8FFF76AF84FF00008DFF8849209
:1025C00009F1A80A4FEA6807BC1CA40108F001063B
:1025D000BBF1000F08D0944A944B002E08BF1A4656
:1025E0002146934820F0B4F80023629363936493E8
:1025F000659356B9224672A90BA8FFF74BF9054619
:1026000009F1780303EB071707E0224672A90BA82C
:10261000FFF74CF805460AEB071715F1230F05D114
:10262000C02C03D1834820F0C3F81EE0002D40F0F9
:10263000D18142F2107462AB1A4631460BA8FFF703
:1026400063FE0546002840F0C581013CF3D110220D
:10265000394662A820F074F8002840F0A981BBF147
:10266000000F02D0744820F0A3F808F10108B8F177
:10267000060FA7D1BBF1000F02D00A2020F058F8B6
:102680004FF00009DFF8BCA10AF5847305934FEA07
:10269000690808F10204A40109F00107BBF1000F69
:1026A00008D0614A614B002F08BF1A462146634893
:1026B00020F04EF800235E935F93609361935A93EA
:1026C0005B935C935D93629363936493659357B953
:1026D000224672A90BA8FFF7DDF805460AF1D803D8
:1026E00003EB081808E0224672A90BA8FEF7DEFFEC
:1026F0000546059B03EB081815F1230F05D1C02CE7
:1027000003D14C4820F054F832E0002D40F06281B3
:1027100042F2107407AE77B10DF5B47E9EE80F005B
:1027200086E80F0062AD95E80F008EE80F0096E88E
:102730000F0085E80F0062AB019300935EAB10229F
:1027400039460BA8FFF7EEFD0546002840F0428110
:10275000013CE0D11022414662A81FF0F1FF0028A1
:1027600040F02881BBF1000F02D0334820F020F860
:1027700009F10109B9F1060F89D1BBF1000F02D0AF
:102780000A201FF0D5FF0027DFF8B89009F5A47ADA
:102790005D467C1004F102084FEA881807F0010634
:1027A00045B1214A214B002E08BF1A464146244814
:1027B0001FF0CEFF0DF5BC7E09F59C730FCB8EE8A4
:1027C0000F004FEAD8020AEB441172A81FF0C8FFAD
:1027D00000235993424672A90BA8FEF767FF0346F0
:1027E00010F1230F06D1B8F1C00F03D111481FF02B
:1027F000DFFF5BE0002B40F0E4802EBB09EB84148C
:102800000DF5C47E04F5D4740FCCAEE80F000FCCE8
:10281000AEE80F000FCCAEE80F0094E80F008EE892
:102820000F0009F1380427E0341300203013002092
:10283000381300205013002058130020601300208C
:1028400078130020C04902600DF5C47E09F1380CF0
:10285000BCE80F00AEE80F00BCE80F00AEE80F00C8
:10286000BCE80F00AEE80F009CE80F008EE80F00F8
:1028700009F5D47303EB841462AB029301935EAB4E
:10288000009359AB402231460BA8FFF7B9FD002851
:1028900040F09A804022214662A81FF051FF002894
:1028A00040F08A8015B152481FF082FF0137062F91
:1028B0007FF46FAFAB4615B10A201FF039FF002639
:1028C0004C4F07F5267A4FEA660806F00105BBF182
:1028D000000F07D04849494B002D08BF194648480A
:1028E0001FF036FF4FEA08143B1903F51A730DF574
:1028F000AA7E0FCB8EE80F000DF5E47E0AEB0403F1
:102900000FCB8EE80F0000235993802271460BA84D
:10291000FEF7CCFE00285AD107EB8803D3F8C84253
:102920008DB907F535734FEA480505EB08012246D6
:1029300003EB011162A81FF013FF07F5597345441B
:1029400003EB051810E007F559734FEA480505EB4E
:102950000801224603EB011162A81FF001FF07F5F1
:102960003573A84403EB081862AB0293019351AB93
:10297000009355AB59AA21460BA8FFF7C9FD814624
:1029800038BB2246414662A81FF0DAFEB8B9BBF157
:10299000000F02D016481FF00BFF0136062E92D111
:1029A0004D46BBF1000F1CD00A201FF0C1FE18E0FD
:1029B00001250FE001250DE0AB4601250AE00125C8
:1029C00008E0AB461D4605E0AB46054602E005467D
:1029D00000E005462DB1BBF1000F02D009481FF001
:1029E000E7FE0BA8FEF75AFE28467BB0BDE8F08F45
:1029F00058130020C0490260341300203013002017
:102A000090130020A813002030B50368CD1A002DC4
:102A10004BDD1C7814F0800F04D15C1C04601B7823
:102A2000136039E004F07F04013C032C40D8DFE858
:102A300004F0020A1523012D3DDD5B781360036865
:102A40000233036028E0022D38DD5C789B7843EA8E
:102A5000042313600368033303601DE0032D30DD9E
:102A60005D789C78240244EA0544DB781C431460BA
:102A70000368043303600FE0042D25DD5D789C7846
:102A8000240444EA05651C792C43DB7844EA0323DB
:102A900013600368053303600368C91A13688B4227
:102AA0008CBF6FF05F00002030BD6FF05F0030BD65
:102AB0006FF0630030BD6FF05F0030BD6FF05F00FE
:102AC00030BD6FF05F0030BD6FF05F0030BD00BF04
:102AD00038B504680D1B002D07DD25789D4207D110
:102AE00001340460FFF790FF38BD6FF05F0038BD20
:102AF0006FF0610038BD00BF30B583B004461546A5
:102B0000012301AAFFF7E4FF60B9019B012B0AD161
:102B100023681B78003318BF01232B60236801331F
:102B2000236002E001E06FF0630003B030BD00BF3E
:102B300030B583B004461546022301AAFFF7C8FF4B
:102B4000E0B9019B5A1E032A19D8216891F9001097
:102B5000002917DB002129600192B3B12A6823689C
:102B60001B7843EA02232B60236801332360019B17
:102B70005A1E0192002BF1D1002007E006E06FF011
:102B8000630003E06FF0630000E0002003B030BD9D
:102B900070B505460E4614460323FFF799FFB0B9FA
:102BA0002368ABB1013B23602B681B782371072B93
:102BB00011D82B6801332B60A3602A682368134463
:102BC0002B609E4214BF6FF06500002070BD70BD89
:102BD0006FF05F0070BD6FF0630070BD38B50546E3
:102BE00014460323FFF774FF70B923685A1E22604E
:102BF000012B0AD92B685A1C2A601B78002B0CBFAA
:102C000000206FF0670038BD38BD6FF0670038BD39
:102C10002DE9F04782B004460E4615461F46302384
:102C200001AAFFF755FF78BB2268019B13449E421F
:102C30002BD14FF0100A4FF0010917E01B782B60E1
:102C40003B46424631462046FFF742FF00BB236821
:102C5000AB6022686B68134423609E4208D95146DA
:102C600048461FF089FDE86098B1054605F1040863
:102C700023689E42E2D80023EB6023689E4214BF83
:102C80006FF06500002006E005E06FF0650002E0EF
:102C900001E06FF0690002B0BDE8F08730B583B0A5
:102CA00004461546022301AAFFF712FF48B9019A0C
:102CB0002168284601F0F6F82268019B134423603E
:102CC000FFE703B030BD00BFF0B583B004460D464A
:102CD00017461E46302301AAFFF7FAFE002836D118
:102CE0002368ED1A002D33DD1B783A4642F8043B89
:102CF0002568019B1D44062329462046FFF7E8FE70
:102D000048BB2368BB6021687A688B1823609D42AA
:102D100005D10C2130460EF025FF00201CE08B5C15
:102D2000324642F8043B236801332360294620469B
:102D3000FFF76AFE80B92368B360226873681344A2
:102D400023609D4214BF6FF06500002004E003E0A3
:102D50006FF05F0000E0FFE703B0F0BD00B585B0A5
:102D6000002301930293039301ABFFF7ADFF50B92A
:102D7000019B052B00D03BB9029B002B14BF6FF0C9
:102D80006700002002E001E06FF0670005B05DF829
:102D900004FB00BF70B50E461546044658B1636883
:102DA000AB4205D12A463146A0681FF0C9FC10B1DC
:102DB000A469002CF3D1204670BD00BF60B110B5EE
:102DC000044680681FF0E8FC60691FF0E5FC2021E4
:102DD00020460EF0C7FE10BD704700BF38B505464F
:102DE000046854B1A3692B602046FFF7E7FF204633
:102DF0001FF0D2FC2C68002CF4D138BD7F2A09D8F2
:102E00000368591A002971DD591E016003F8012C6D
:102E100001207047FF2A0FD80368591A012968DD7D
:102E2000591E016003F8012C03685A1E02608122BA
:102E300003F8012C02207047B2F5803F15D20368D9
:102E4000591A022958DD591E016003F8012C036844
:102E5000591E0160120A03F8012C03685A1E026011
:102E6000822203F8012C03207047B2F1807F1BD22D
:102E70000368591A032942DD591E016003F8012C29
:102E80000368591E0160110A03F8011C0368591EEA
:102E90000160120C03F8012C03685A1E02608322A1
:102EA00003F8012C042070470368591A042929DD0E
:102EB000591E016003F8012C0368591E0160110AB4
:102EC00003F8011C0368591E0160110C03F8011C72
:102ED0000368591E0160120E03F8012C03685A1E84
:102EE0000260842203F8012C052070476FF06B000C
:102EF00070476FF06B0070476FF06B0070476FF0BA
:102F00006B0070476FF06B00704700BF0368591A81
:102F1000002905DD591E016003F8012C01207047CE
:102F20006FF06B00704700BF38B505688D420CD359
:102F30006C1A9C420CD31C4611460346281B186091
:102F400022461FF00DFC204638BD6FF06B0038BDE7
:102F50006FF06B0038BD00BFF8B505460E4617464A
:102F6000104600F099FF2968B1422CD304468B1B10
:102F700098422BD8091A29600246384600F0C6FF4D
:102F800038BB3B68012B0DD12B6893F90020002A38
:102F900008DA9A1B002A1DDD5A1E2A60002203F857
:102FA000012C0134224631462846FFF727FF00282E
:102FB00012DB0444022231462846FFF7A7FF00280F
:102FC0000ADB2044F8BD6FF06B00F8BD6FF06B00BA
:102FD000F8BDF8BD6FF06B00F8BD00BF70B50546D9
:102FE0000E460022FFF70AFF041E08DB05223146C9
:102FF0002846FFF78BFF002802DB204470BD2046E7
:1030000070BD00BF70B505460E46FFF78DFF041E6C
:1030100010DB224631462846FFF7F0FE00280ADB87
:103020000444062231462846FFF770FF002802DBE1
:10303000204470BD204670BD2DE9F04105460E4686
:1030400017469846069C24B9FFF7C8FF002819DBED
:10305000044643463A4631462846FFF7D3FF002848
:1030600010DB0444224631462846FFF7C7FE0028FD
:1030700008DB0444302231462846FFF747FF00288A
:10308000A8BF0019BDE8F08170B503685C1A002C78
:1030900019DD0D460446591E0160003218BF012299
:1030A000524203F8012C01222946FFF7A7FE00280F
:1030B0000BDB461C012229462046FFF727FF00288C
:1030C00003DB304470BD6FF06B0070BD70B50368FA
:1030D0005C1A002C28DD5C1E046003F8012C002A19
:1030E0000EDD036893F90020002A0BDA5A1A002A31
:1030F0001DDD5A1E0260002203F8012C022602E0A8
:10310000012600E001260D4604463246FFF776FE12
:1031100000280EDB0644022229462046FFF7F6FE71
:10312000002806DB304470BD6FF06B0070BD6FF09F
:103130006B0070BD70B505460E46FFF7F5FE041E28
:1031400010DB224631462846FFF758FE00280ADBEE
:103150000444132231462846FFF7D8FE002802DB3C
:10316000204470BD204670BD70B505460E46FFF781
:10317000DBFE041E10DB224631462846FFF73EFEEA
:1031800000280ADB0444162231462846FFF7BEFE1B
:10319000002802DB204470BD204670BD2DE9F843B5
:1031A00013F0070418BF012404EBD30405688D4213
:1031B00026D3884604F10109691A494524D31E46DD
:1031C00011460746281B386022461FF0C9FA3A68A4
:1031D000531E3B60C6EBC40302F8013C4A4641461D
:1031E0003846FFF70BFE002810DB814403224146DE
:1031F0003846FFF78BFE002808DB4844BDE8F8831B
:103200006FF06B00BDE8F8836FF06B00BDE8F883EA
:1032100070B505460E46FFF787FE041E10DB2246FA
:1032200031462846FFF7EAFD00280ADB0444042261
:1032300031462846FFF76AFE002802DB204470BDB5
:10324000204670BD2DE9F0470746894690461E4648
:10325000089D0068FFF79EFD68BB202101201FF03C
:103260008BFA044600283ED0C0F804804146012075
:103270001FF082FA8246A06028B920461FF08CFA1F
:103280000020BDE8F087424649461FF069FA2561F3
:10329000294601201FF070FA606140B950461FF0C6
:1032A0007BFA20461FF078FA0020BDE8F0873B68E3
:1032B000A3613C600EE0044603699D420AD9294699
:1032C00001201FF059FA074680B160691FF064FAC7
:1032D000676125616EB12A46314660691FF040FA88
:1032E0002046BDE8F0870020BDE8F0870020BDE85B
:1032F000F0872046BDE8F0872DE9F04FDDF82490F7
:10330000B9F1000F03D100201060BDE8F08F484CE8
:10331000A4FB094C4FEA5C0C0CEB4C04A1450CBF20
:1033200064460CF10104B4F1804F06D34FF0FF3333
:1033300013606FF02900BDE8F08FA400013408B1DC
:103340008C4204D914606FF02900BDE8F08F1CEBAB
:103350004C0C30D0DD1C041D4FF0000E354F2B46B9
:1033600015F803AC15F8021C15F8016CA0464FEADD
:103370009A0B17F80BB004F804BC4FEA0A1A0AEBD0
:10338000111A0AF03F0A17F80AA004F803AC8900E2
:1033900001EB961101F03F01795C04F8021C06F084
:1033A0003F06B95D04F8011C0EF1030E0335043429
:1033B000F445D4D802E080464FF0000EF1451ED906
:1033C00019780EF1010EF14521D95B78194C8D0861
:1033D000655D88F80050090101EB131101F03F0110
:1033E000615C88F8011008F103019B0003F03C03C5
:1033F000E35C88F8023001F101083D230B70C0EB5B
:1034000008001060002088F80000BDE8F08F094B2C
:103410008C081C5D88F80040090101F030015B5CFC
:1034200088F8013008F103013D2388F80230E2E713
:10343000ABAAAAAAB44D02602DE9F04F91469E4670
:10344000099B002B3FD153E00134E11BA34209D972
:1034500015F8016F202EF7D004E03C46514601E0FC
:103460003C465146A34240D01D1B012D0AD91EF8EF
:1034700004500D2D06D10EEB040676780A2E40F08E
:10348000B8801CE01EF804500A2D18D0002940F026
:1034900098803D2D03D10132022A04D995E015F020
:1034A000800F40F09680454495F840507F2D00F005
:1034B000948012B13F2D40F294800CF1010C671CF6
:1034C000BB4207D810E08B4600229446174692462E
:1034D000DFF82C81BB42C0D90EEB07051EF8074070
:1034E000202CBDD13C46AFE73B46BCF1000F04D1D8
:1034F0000020C9F80000BDE8F08F0CF0070404EBD1
:103500004404640007344FEADC0C0CEB4C0CC2EBB7
:103510004C0C0CEBD40220B15A4502D83BB984467E
:1035200048E0C9F800206FF02900BDE8F08F71462F
:103530007344844600274FF0030E3D46DFF8C080F9
:103540002E4E11F8014BA4F10A02D2B2162A04D869
:1035500026FA02F212F0010F2AD1444494F84020D6
:10356000402A08BFAEF1010E02F03F0242EA87177F
:103570000135042D1CD1BEF1000F15D03A0C8CF88A
:103580000020BEF1010F02D80CF1010204E00CF1A1
:1035900002023C0A8CF80140BEF1020F06D902F18A
:1035A000010C1770002503E0002501E0944600257A
:1035B0009942C6D1C0EB0C00C9F800000020BDE85C
:1035C000F08F6FF02B00BDE8F08F6FF02B00BDE89F
:1035D000F08F6FF02B00BDE8F08F6FF02B00BDE88F
:1035E000F08F6FF02B00BDE8F08F6FF02B00BDE87F
:1035F000F08F00293FF453AFF7E700BF0900400008
:10360000B44D026010B5A4B00446002834D036484A
:103610001FF09EF840230093344B23AA802103A877
:10362000FFF76AFE002844D031481FF0C1F801209E
:1036300057E064B32F481FF08BF8582300932E4BAC
:1036400023AA802103A8FFF7F7FE002841D02848CD
:103650001FF0AEF8012044E024B128481FF0A8F87C
:1036600000203EE000203CE001203AE0012038E06C
:10367000012036E0012034E0402300931B4B23AAB5
:10368000802103A8FFF738FE0028EDD109E0582378
:103690000093194B23AA802103A8FFF7CDFE80B128
:1036A000E4E7582203A914481FF04AF80028C0D0C4
:1036B000DEE7582203A910481FF042F80028B3D1D2
:1036C000B7E7402203A909481FF03AF80028D1D1F2
:1036D000C2E7402203A905481FF032F80028BBD0FA
:1036E000B5E724B010BD00BFB0130020744E0260D7
:1036F000A8130020CC130020B44E0260EC1300206D
:10370000A2F13003DBB2092B8CBFFF23A2F13003FF
:103710000360A2F14103DBB2052B02D8A2F137030B
:103720000360A2F16103DBB2052B01D8573A0260B6
:1037300003688B422CBF6FF005000020704700BF6C
:1037400058B3F0B584460439144600231D46276853
:10375000F81A206051F8046FB0422CBF4FF0000EF1
:103760004FF0010E9F422CBF73460EF10103801BE8
:1037700044F8040B0135AC45E9D102EB8C020BB9DE
:10378000F0BD03461168994234BF01200020A1EB2F
:10379000030342F8043BF4D3F0BD7047F0B587B0A3
:1037A0008646039102920193002305930F2840F26D
:1037B000D080844603980299059A019B50F8044BE7
:1037C0004FF000050E68E3FB0425B71845F1000231
:1037D00041F8047B50F8044B4FF000050E68E3FB02
:1037E0000425B71845F1000241F8047B50F8044B5A
:1037F0004FF000050E68E3FB0425B71845F1000201
:1038000041F8047B50F8044B4FF000050E68E3FBD1
:103810000425B71845F1000241F8047B50F8044B29
:103820004FF000050E68E3FB0425B71845F10002D0
:1038300041F8047B50F8044B4FF000050E68E3FBA1
:103840000425B71845F1000241F8047B50F8044BF9
:103850004FF000050E68E3FB0425B71845F10002A0
:1038600041F8047B50F8044B4FF000050E68E3FB71
:103870000425B71845F1000241F8047B50F8044BC9
:103880004FF000050E68E3FB0425B71845F1000270
:1038900041F8047B50F8044B4FF000050E68E3FB41
:1038A0000425B71845F1000241F8047B50F8044B99
:1038B0004FF000050E68E3FB0425B71845F1000240
:1038C00041F8047B50F8044B4FF000050E68E3FB11
:1038D0000425B71845F1000241F8047B50F8044B69
:1038E0004FF000050E68E3FB0425B71845F1000210
:1038F00041F8047B50F8044B4FF000050E68E3FBE1
:103900000425B71845F1000241F8047B50F8044B38
:103910004FF000050E68E3FB0425B71845F10002DF
:1039200041F8047B50F8044B4FF000050E68E3FBB0
:103930000425B71845F1000241F8047B0592029175
:103940000390ACF1100CBCF10F0F3FF633AF0EF04B
:103950000F0EBEF1070F6ED9F44603980299059A2F
:10396000019B50F8044B4FF000050E68E3FB042563
:10397000B71845F1000241F8047B50F8044B4FF0B2
:1039800000050E68E3FB0425B71845F1000241F875
:10399000047B50F8044B4FF000050E68E3FB042550
:1039A000B71845F1000241F8047B50F8044B4FF082
:1039B00000050E68E3FB0425B71845F1000241F845
:1039C000047B50F8044B4FF000050E68E3FB042520
:1039D000B71845F1000241F8047B50F8044B4FF052
:1039E00000050E68E3FB0425B71845F1000241F815
:1039F000047B50F8044B4FF000050E68E3FB0425F0
:103A0000B71845F1000241F8047B50F8044B4FF021
:103A100000050E68E3FB0425B71845F1000241F8E4
:103A2000047B059202910390ACF1080CBCF1070FE6
:103A300093D80EF0070EBEF1000F15D0039802992F
:103A4000059A019B50F8044B4FF000050E68E3FB0C
:103A50000425B71845F1000241F8047B0592029154
:103A60000390BEF1010EE9D1029A1168059B0B4447
:103A70001360029B53F8041B059A914234BF012244
:103A8000002205920293EFD307B0F0BD20B10122CE
:103A90000260002242608260704700BF80B110B5B2
:103AA0000446806830B1616889000EF05BF8A06858
:103AB0001EF072FE0123236000236360A36010BD2B
:103AC000704700BF42F21073994220D82DE9F041AF
:103AD0004668B1421ED90C460546042120461EF018
:103AE0004BFE8046C8B1AF685FB1B600324639467A
:103AF0001EF036FE314638460EF034F8A8681EF047
:103B00004BFE6C60C5F808800020BDE8F0816FF0C6
:103B10000F0070470020BDE8F0816FF00F00BDE896
:103B2000F08100BF2DE9F041054646688E4203D87A
:103B3000FFF7C8FFBDE8F081731E0BD080689A00C4
:103B400050F8234034B9024402E052F8040D08B999
:103B5000013BFAD10133994238BF19460C46042182
:103B600020461EF009FE804690B1AF6857B1A20012
:103B700039461EF0F5FDB10038460DF0F3FFA86898
:103B80001EF00AFE6C60C5F808800020BDE8F081D8
:103B90006FF00F00BDE8F081884231D070B50E465D
:103BA0000546896819B9FFF779FF002070BD736871
:103BB000013B0AD09A0051F8230030B90A4402E0D0
:103BC00052F8044D0CB9013BFAD15C1C33682B60F0
:103BD0006A68944205D921462846FFF773FF40B131
:103BE00010E0121BA8689200002100EB84001EF078
:103BF000BBFDA200B168A8681EF0B2FD002070BD38
:103C00000020704770BD00BF30B484B003460C463E
:103C100001AD006859689A6807C520686168A268A4
:103C2000186059609A6001AB07CB20606160A260A8
:103C300004B030BC704700BFF8B504460E461546C8
:103C40004968FFF73FFF074678BB6A422A43C2F341
:103C5000C012C2F1010E2368316801FB02F103FBBF
:103C60000E13236073688BB10023A568B16851F807
:103C7000230055F8231001FB0EF100FB021145F85B
:103C80002310013371689942EFD800E00023626885
:103C90009A420AD99A00A06881580EFB01F181501E
:103CA0000133043261689942F5D83846F8BD00BF47
:103CB00088423FD0F8B516460D4604464968FFF7DE
:103CC00001FF002838D161682846FFF7FBFE002875
:103CD00033D172421643C6F3C0162368C6F10107FA
:103CE0002A6807FB03F102FB061222602A6806FB22
:103CF00003F302FB07332B606368FBB10023A0686A
:103D000050F82320A96851F8231007FB02FE01FB9D
:103D100006E140F82310A86850F8231006FB02F2D1
:103D200001FB072240F82320013362689A42E6D85B
:103D30000020F8BD00207047F8BDF8BD0020F8BD98
:103D400070B504460E460121FFF7BCFE054688B952
:103D5000626892000021A0681EF006FDA36886EA52
:103D6000E672A2EBE6721A60002EB4BF4FF0FF338A
:103D700001232360284670BD4368B1EB431F0AD27C
:103D80004A09836801F01F0053F8223023FA00F03B
:103D900000F0010070470020704700BF012A23D8BF
:103DA000F8B54E0917460C4605464368B1EB431F6C
:103DB00004D3E2B1711CFFF785FED0B904F01F01F6
:103DC000A868012303FA01F250F8263023EA02031F
:103DD00040F82630AB6807FA01F153F8264021433A
:103DE00043F826100020F8BD6FF003007047002054
:103DF000F8BDF8BD0346406810B3F0B49E68043EB9
:103E0000002739460CE0531A24FA03F313F0010F8C
:103E10000DD101329542F6D10137874209D02946AA
:103E200056F8044F14F0010F05D0084607E010467D
:103E300005E0002003E04A1C01F12005E3E7F0BCA7
:103E4000704700BF43682BB310B4591E0BD0826873
:103E50008B0052F8214034B9134402E053F8042D8A
:103E60000AB90139FAD1836853F82100002809DB27
:103E700001234FF08042104205D152080133202B1C
:103E8000F9D100E00023C3EB4113203318465DF85D
:103E9000044B70471846704708B5FFF7D3FF07304B
:103EA000C00808BDF8B504460E46154612F00301D9
:103EB00018BF012101EB920743689F420AD0FFF728
:103EC000EDFD2046FFF7E2FD39462046FFF7FAFDFB
:103ED0008646C0B900212046FFF732FF864690B9DA
:103EE0008DB171198708A66811F8012DC30003F080
:103EF000180302FA03F356F82720134346F8273035
:103F000001308542EED17046F8BD00BFF8B50746D6
:103F10000D461446FFF7C0FFA04217D806462246BA
:103F2000002128461EF020FC9EB12A190023980883
:103F3000B968DC0004F0180551F82040EC4002F8A4
:103F4000014D01339E42F2D10020F8BD6FF0070011
:103F5000F8BD0020F8BD00BFF8B504460F464D0976
:103F600001F01F06FFF76EFF38446368B0EB431F94
:103F70000BD910F01F0118BF012101EB5011204691
:103F8000FFF7A0FD034600283CD1F5B163689D42D0
:103F900010D26FF040421A449200C5EB8577BF0003
:103FA000A168C81980588850013B043A9D42F7D156
:103FB0002B4600E04BB16FF040421A4492000020C3
:103FC000A1688850043A013BFAD1C6B163689D42AA
:103FD00017D2AB000022C6F1200EA068C15801FA2A
:103FE00006F7C750A068C7583A43C250013504339A
:103FF00021FA0EF26168A942EFD8002302E0002303
:1040000000E000231846F8BDF8B54D0943689D420D
:1040100003D801F01F0104D119B10021FFF790FE70
:10402000F8BDDDB19D420CD0AC000023826816596A
:1040300042F82360013304344268521B9A42F5D897
:1040400000E0002342689A4208D99A00002584685B
:10405000A5500133043244689C42F8D8C1B1446889
:10406000C4B16FF0404323449B000022C1F1200EF5
:104070008668F55825FA01F7F7508668F7583A43ED
:10408000F250043B05FA0EF2013CF1D10020F8BDDC
:104090000020F8BD0020F8BD70B44368002B60D04C
:1040A0006FF040441C44856805EB840255F82440B9
:1040B000002C52D103E052F8044D002C4DD1013BAD
:1040C000F9D14A6882B36FF0404515448E6806EB1B
:1040D000850456F82550002D48D103E054F8045DBE
:1040E000002D43D1013AF9D103B345E09A421FD8DC
:1040F0000BB36FF040451D44AA008068841850F847
:1041000025608968881851F82520964215D816D35D
:1041100006E054F8041D50F8042D914212D813D330
:10412000013BF6D100202AE0002028E0002026E014
:104130004FF0FF3023E0002021E001201FE04FF08E
:10414000FF301CE001201AE04FF0FF3017E00120A3
:1041500015E0012013E0012011E04A68002AB2D1E5
:1041600007E04A68002AAED1002008E09A42BDD29A
:10417000EDE7002BBCD0ECE7002BBAD0EBE770BC2E
:10418000704700BF2DE9F04F87B0109C65685468F8
:104190000134A54269D3109CA468002C68D0039315
:1041A000164601928B468246AA00002120461EF048
:1041B000DBFA109B9B681D460493D6F80480DBF85D
:1041C0000430434528BF43460293B8F1000F2CD07A
:1041D00008F101039B00059305EB03090026DAF8BB
:1041E000083053F82670DBF808100B682C6803FBC6
:1041F0000744039B03FB04F43B462A460298FFF75F
:10420000CDFA23462A46019989684046FFF7C6FA47
:1042100045F8047B002349F8043F0136B045DED160
:10422000059B043B049A1A44049208F1010292008F
:104230000499DAF808001EF093FA019C21465046D2
:10424000FFF72AFF002807DBDAF80820A1684046BC
:10425000FFF776FA00200DE0109B9A68DAF8081054
:104260004046FFF76DFA002004E06FF0030001E024
:104270006FF0030007B0BDE8F08F00BF70B4436873
:10428000002B65D06FF040441C44856805EB840228
:1042900055F82440002C57D103E052F8044D002C6F
:1042A00052D1013BF9D14A68002A42D06FF0404513
:1042B00015448E6806EB850456F82550002D4CD128
:1042C00003E054F8045D002D47D1013AF9D193B3CE
:1042D00046E0066847E09A4202D90E68764242E01C
:1042E0000668002E02DD0A68002A26DB0A68002A1A
:1042F00001DD002E23DB2BB36FF040421A44940003
:104300008068051950F8220089680C4451F8222071
:10431000904228D809D206E055F8041D54F8042D1F
:10432000914220D801D276421DE0013BF4D1002613
:1043300019E0002617E0002615E0012613E04FF0F3
:10434000FF3610E000260EE04A68002AAED107E0F2
:104350004A68002AAAD1002605E09A42BBD2B8E7F3
:10436000002BBDD0B5E7304670BC704700B585B0B6
:1043700081EAE173A3EBE17300930029B4BF4FF02E
:10438000FF330123019301230293CDF80CD001A93F
:10439000FFF774FF05B05DF804FB00BF2DE9F8439B
:1043A0000646904207D01446884205D0FFF7F4FB3A
:1043B000814608B157E00C4601233360676887B136
:1043C0006FF040423A44A16801EB820351F8222089
:1043D000002A41D103E053F8042D002A3CD1013FCB
:1043E000F9D100213046FFF76DFB81463BE050F8E4
:1043F000042F0B68E4182CBF01230023144441F858
:10440000044BA24294BF1C465C1C01350A46BD42C7
:10441000EDD344B34FEA85087368AB4206D8691CF4
:104420003046FFF74FFB78B9B26842441368234423
:1044300042F8043BA34234BF0124002405F10105E6
:1044400008F10408E8D30EE081460CE0A0680438C7
:10445000B16800242546CAE739463046FFF732FBEB
:1044600081460028F2D04846BDE8F883F0B585B013
:1044700005460F46144611463846FFF70DFE002844
:1044800030DB01A8FFF702FBAC4206D1214601A8B0
:10449000FFF782FB064600BB01ACAF4205D03946B0
:1044A0002846FFF779FB0646B8B901232B60606800
:1044B00070B16FF040420244A16801EB820351F8F1
:1044C00022202AB902E053F8042D0AB90138FAD1A2
:1044D000AA68A168FFF734F9002601A8FFF7DEFA01
:1044E000304601E06FF0090005B0F0BDF8B50746B1
:1044F0000C4615460E68136803FB06F3002B18DA0A
:1045000011462046FFF7C8FD002808DB2A46214651
:104510003846FFF7ABFF034680B93E600EE0224607
:1045200029463846FFF7A2FF034638B976423E6077
:1045300004E0FFF733FF034600B93E601846F8BDBC
:10454000F8B507460C4615460E68136803FB06F3DC
:10455000002B18DD11462046FFF79EFD002808DBE2
:104560002A4621463846FFF781FF034680B93E6060
:104570000EE0224629463846FFF778FF034638B951
:1045800076423E6004E0FFF709FF034600B93E6053
:104590001846F8BD00B585B082EAE273A3EBE2737A
:1045A0000093002AB4BF4FF0FF330123019301238E
:1045B0000293CDF80CD001AAFFF798FF05B05DF883
:1045C00004FB00BF00B585B082EAE273A3EBE2739F
:1045D0000093002AB4BF4FF0FF330123019301235E
:1045E0000293CDF80CD001AAFFF7AAFF05B05DF841
:1045F00004FB00BF2DE9F04786B006460F46904603
:1046000003A8FFF743FA6846FFF740FABE4207D116
:10461000314603A8FFF7C0FA8246002854D103AF01
:10462000464507D131466846FFF7B6FA824600286C
:104630004AD1E8467D6875B16FF040422A44B968B6
:1046400001EB820351F822202AB902E053F8042D2D
:104650000AB9013DFAD1D8F804407CB16FF040426C
:104660002244D8F8081001EB820351F822202AB91D
:1046700002E053F8042D0AB9013CFAD12919304659
:10468000FFF720FA8246F8B900213046FFF758FBC1
:104690008246C8B994B16FF04049A1444FEA8909F4
:1046A000D8F80830B26853F809304A44B968284647
:1046B000FFF774F8A9F10409013CF1D13A68D8F880
:1046C000003003FB02F333606846FFF7E7F903A805
:1046D000FFF7E4F9504606B0BDE8F08700B585B0B5
:1046E000012301930293CDF80CD0009201AAFFF7A9
:1046F00081FF05B05DF804FB8B1E0E2B00F2968047
:104700002DE9F04F85B08A4690460F46054668462B
:10471000FFF7BCF940461EF03BF80646102F44D187
:10472000B0F1804F80F08580830013F01F0F14BF1D
:104730000121002101EB53112846FFF7C3F98146FF
:1047400000286ED100212846FFF7FAFA814600289A
:1047500067D1002E65D008EB060700244FF0100A41
:10476000012E07D198F800302D2B03D14FF0FF33E5
:104770002B6056E0013E17F8012D514603A8FEF7C5
:10478000BFFF8646002843D1E008AA68A30003F0D3
:104790001C01039B8B4052F820100B4342F8203041
:1047A0000134002EDCD1F1463BE000212846FFF722
:1047B000C7FA8146A8BBA6B300244FF0FF3B34B92B
:1047C00098F800302D2B02D1C5F800B01CE018F885
:1047D0000420394603A8FEF793FFD8B9524629466C
:1047E0006846FFF77BFFB8B92B68012B06D1039A07
:1047F00069462846FFF7CEFE30B10FE0039A6946BE
:104800002846FFF7DFFE58B90134A642D7D108E0A9
:10481000814606E0814604E0814602E0814600E0F0
:1048200081466846FFF73AF9484604E06FF0030016
:1048300070476FF0030005B0BDE8F08F2DE9F04F31
:104840009DB00746884616461D4600211846FFF7CC
:104850008DFD002800F0E38119A8FFF717F916A8CD
:10486000FFF714F913A8FFF711F910A8FFF70EF9D5
:104870000DA8FFF70BF929463046FFF70DFC00287D
:1048800015DA3FB100213846FFF75AFA04460028EE
:1048900040F0B481B8F1000F00F0C48131464046C9
:1048A000FFF77AF90446002840F0A881BBE13146C1
:1048B00019A8FFF771F90446002840F09F812946A6
:1048C00016A8FFF769F90446002840F097810123F4
:1048D000169319937168023113A8FFF7F3F8044691
:1048E000002840F08B81002113A8FFF729FA044625
:1048F000002840F08381022110A8FFF7E3F8044666
:10490000002840F07B8103210DA8FFF7DBF8044667
:10491000002840F0738116A8FFF794FA00F01F00FA
:104920001E2813D8C0F11F030293194619A8FFF7D8
:1049300013FB0446002840F06181029916A8FFF796
:104940000BFB0446002840F0598101E0002302934C
:10495000DDF8689009F1FF330493179A0192013A48
:104960000392C2EB030B4FEA4B1A514616A8FFF70E
:10497000F3FA0446002840F041814FEA8B0B0EE029
:10498000159A52F80B30013342F80B3016AA19A9C8
:104990000846FFF7D5FD0446002840F02F8116A9F0
:1049A00019A8FFF76BFC0028EADA514616A8FFF7B2
:1049B0002BFB0446002840F02181039B9B000593BC
:1049C000043B09936FF040434B44019A9B1A4FEA12
:1049D000830A6FF078434B449B1A5B010193934B1E
:1049E0004B444FEA830B0B90049CCDF81080C5E03C
:1049F0001B990BF104030A93CB58189A0598125887
:104A0000934205D34FF0FF32159B43F80A2021E073
:104A100015985044089051F80B00BAB10793002341
:104A20000693DDE90689434648EA000840464946C0
:104A30001DF082FE03464FF0FF384FF00009894514
:104A400008BF804504D24FF0FF3301E04FF0FF3341
:104A5000089A1360159A52F80A30013342F80A3066
:104A6000ABF104030893DDF82890DDF81080159A67
:104A700052F80A30013B42F80A30002110A8FFF733
:104A80005FF9002840F0A780129A039B1BB1189B86
:104A900009995B5800E000231360189B059A9A5807
:104AA000129B5A60159B53F80A2010A90846FFF77D
:104AB00015FE002840F0918000210DA8FFF740F975
:104AC000002840F08C800F9A012C03D91B9B089979
:104AD0005B5800E0002313600F9A1CB11B9B53F836
:104AE0000B3000E0002353601B9B53F809200F9B01
:104AF0009A600DA910A8FFF7C1FB0028B7DCCDF81C
:104B00001080159B53F80A2016A910A8FFF7E6FDA0
:104B1000002866D1019910A8FFF71EFA002862D17B
:104B200010AA19A90846FFF70BFD00285DD1002146
:104B300019A8FFF71BFC002818DA16A910A8FFF720
:104B40002BF8002853D1019910A8FFF705FA002887
:104B50004FD110AA19A90846FFF7C8FC00284AD16E
:104B6000159A52F80A30013B42F80A30013CAAF18A
:104B7000040A019B203B0193ABF1040B039B9C4275
:104B80003FF636AF0B9CDDF810804FB113A93846C5
:104B9000FFF702F888BB32682B6803FB02F33B6027
:104BA000B8F1000F2AD0029919A8FFF72DFA044690
:104BB00020BB33681CA941F80C3D4046FEF7ECFFD2
:104BC0000446D8B900214046FFF7D0FBB0B9012315
:104BD000C8F8003012E0044610E004460EE0044637
:104BE0000CE004460AE0044608E0044606E00446F9
:104BF00004E0044602E0044600E0044619A8FEF77B
:104C00004DFF16A8FEF74AFF13A8FEF747FF10A8AE
:104C1000FEF744FF0DA8FEF741FF204603E06FF0CA
:104C20000B0000E000201DB0BDE8F08FFEFFFF3F4D
:104C300010B584B083EAE374A4EBE3740094002B12
:104C4000B4BF4FF0FF330123019301230293CDF84A
:104C50000CD001ABFFF7F2FD04B010BD70B50446F7
:104C60000E46154600211046FFF780FB002823DB87
:104C70002B46324621460020FFF7E0FDF8B900261A
:104C800005E02A4621462046FFF730FCC0B93146F0
:104C90002046FFF76BFB0028F3DB05E02A462146A0
:104CA0002046FFF74DFC60B929462046FFF7E6FA9B
:104CB0000028F3DA002070BD6FF0090070BD70BDF0
:104CC00070BD70BD002A36D0F0B51546002A35DB20
:104CD000012A03D1002303601846F0BD022A06D141
:104CE0008B681B6803F0010303600020F0BD4E6871
:104CF000EEB18F6807EB86060023964656F8042D22
:104D0000140C44EA03437446B3FBF5FC05FB1C3367
:104D100092B242EA0343B3FBF5F205FB1233B7420A
:104D2000ECD10A68002A03DA13B1E31A00E0002389
:104D300003600020F0BD6FF00B0070476FF00900BA
:104D4000F0BD00BF8B1E0E2B28D870B582B0164662
:104D50000C4605460A46014601A8FFF7B3FF00BB13
:104D600023462A4600212846FFF762FFD0B90021DA
:104D70002846FFF7FBFA28B1324621462846FFF7BE
:104D8000E1FF80B9019B092B326802F1010131601A
:104D900094BF303337331370002004E06FF003000A
:104DA000704700E0FFE702B070BD00BF2DE9F04D95
:104DB00084B08C1E0E2C7ED81D4690460C460746AD
:104DC000FFF740F8032CC8BF40080F2CC8BF4008AD
:104DD000431C03F0010303301844A84204D90C9B80
:104DE00018606FF0070068E0CDF80C806846FEF7A9
:104DF0004DFE3B68B3F1FF3F04D1039B5A1C039265
:104E00002D221A70102C34D17868002844D06FF00D
:104E100040460644B60000224FF0040ADFF8A4E042
:104E2000274D4FF0010C22E0611EBB684FEAC10B19
:104E30009B5923FA0BF313F0FF0303D112B9044477
:104E4000022C0ED1039C621C03921A111EF8022040
:104E50002270039A541C03942B401EF803301370E5
:104E600062460C460029DFD1043E013814D0544676
:104E7000DAE739466846FEF78FFE0546B0B9009B73
:104E8000B3F1FF3F01D10123009303AA21466846F5
:104E9000FFF758FF054648B9039B5A1C03920025AB
:104EA0001D70039BC8EB03030C9A13606846FEF762
:104EB000F5FD284601E06FF0030004B0BDE8F08D79
:104EC0000F000080EC10002083681B6813F0010FB6
:104ED00017D070B582B005460F4E032421462846F0
:104EE000FFF744FA00280FDD2246294601A8FFF704
:104EF000E9FE58B9019B53B156F8044F002CEDDC84
:104F000007E06FF00D007047012002E001E06FF054
:104F10000D0002B070BD00BF104F02602DE9F04FD0
:104F2000A1B002908B4692461F462A9E0021184649
:104F3000FFF71CFA002840F3A481BB681D6815F038
:104F4000010F00F0A18100215046FFF70FFA002861
:104F5000C0F29D81AC1C640004F008042C440322C0
:104F600004FB05F3C3F1020303FB04F4013AF7D198
:104F70001DA8FEF78BFD1AA8FEF788FD0BA8FEF70B
:104F800085FD302200210EA81DF0EEFB5046FEF7F5
:104F900059FFB0F5287F80F08681EF2800F28581E7
:104FA0004F2800F2848117288CBF032501257FE15B
:104FB000414611A8FEF786FD8146002840F03C815D
:104FC0004FEA48011AA8FEF77DFD8146002840F00F
:104FD0003381DBF800300493B3F1FF3F0CD1594625
:104FE0000BA8FEF7D9FD8146002840F025810DF180
:104FF000800B01234BF8543D0EB1B36803BB012174
:105000001DA8FEF79DFE8146002840F015817968B5
:1050100089011DA8FEF7A0FF8146002840F00C8101
:105020003A461DA90846FFF719FE8146002840F0C0
:10503000038156B11DAB07CB30607160B26004E0F4
:105040001DAB30687168B26807C339465846FFF730
:1050500015F9002809DB3A46594611A8FFF7FEFD6D
:105060008146002840F0E88007E0594611A8FEF785
:1050700093FD8146002840F0DF8063421A46039387
:105080001AAB009313463A461DA911A8FFF77AF808
:105090008146002840F0D0801DA90298FEF77CFDD3
:1050A0008146002840F0C8800123079308930993A4
:1050B00007AB0A931AAB0093039B3A4608A90298E0
:1050C000FFF760F88146002840F0B680DAF80480E7
:1050D0000024A146A3462A962E46254600E0022536
:1050E000B9F1000F0CD1B8F1000F05D10594354688
:1050F0002A9E002C4AD16DE008F1FF384FF02009BC
:1051000009F1FF39DAF8083053F8283023FA09F3A7
:1051100013F001030CBF012200220DB9002ADFD1D8
:10512000012D0BD152B11AAB0093039B3A46029862
:105130000146FFF727F8002873D1D1E70134321B6D
:1051400093404BEA030BA642C9D16EB100241AABBF
:105150000093039B3A4602980146FFF713F8002894
:1051600063D10134A642F2D10BEB4B011AAB009391
:10517000039B3A460EA800EB81010298FFF702F864
:10518000002856D101250024A346A9E74FF00108C5
:1051900008FA05F800241AAB0093039B3A460298DC
:1051A0000146FEF7EFFF8146002845D14FEA4B0B41
:1051B0001BEA080F0AD01AAB0093039B3A4611A9C9
:1051C0000298FEF7DFFF8146002835D10134059BA8
:1051D000A342E0D1012307930893099307AB0A93F5
:1051E0001AAB0093039B3A4608A90298FEF7CAFF40
:1051F0008146049BB3F1FF3F1ED1E8B9DAF80430D1
:10520000D3B1DAF808301B6813F0010F14D04FF057
:10521000FF330298024603603946FFF767F981467B
:105220000AE0354681462A9E06E0354681462A9E9A
:1052300002E0354681462A9E6C1E012303FA04F4DF
:1052400003FA05F5AC420BD204EB44070EAB03EBBB
:1052500087073846FEF722FC01340C37A542F8D800
:1052600011A8FEF71BFC1AA8FEF718FC0BA8FEF706
:1052700015FC0EB1B3686BB91DA8FEF70FFC4846CC
:1052800024E06FF0030021E06FF003001EE06FF0F8
:1052900003001BE0484619E06C1E012303FA04F4E6
:1052A00003FA05F5D0E7062502E0052500E0042510
:1052B000012D28BF01257B6803F1010841460298B2
:1052C000FEF700FC81460028E6D171E621B0BDE87A
:1052D000F08F00BFB1F5007F18D870B5ADF5007D37
:1052E00015460C4606460A4669461846A84705462E
:1052F00028B9224669463046FEF7D4FD05464FF4EC
:10530000007168460CF02EFC284602E06FF00300A6
:1053100070470DF5007D70BD2DE9F04F95B0064644
:105320000F46904611A8FEF7B1FB0EA8FEF7AEFBA4
:105330000BA8FEF7ABFB08A8FEF7A8FB05A8FEF735
:10534000A5FB0122314611A8FFF73CF904460028CD
:1053500040F0D28011A8FEF74DFD814611A90EA89C
:10536000FEF71AFC0446002840F0C68049460EA805
:10537000FEF74AFE0446002840F0BE803046FEF7A5
:1053800061FD40F21353984200F2CA8040F251335B
:10539000984200F2C88040F28923984200F2C68009
:1053A000B0F5AF7F80F0C580F92800F2C580952860
:1053B0008CBF12231B230393C0E0716843463A4617
:1053C000890008A8FFF786FF0446002840F0948073
:1053D00011A908A8FEF752FF00280EDB08A8FEF767
:1053E00031FD044611A8FEF72DFD611C091A08A81D
:1053F000FEF70AFE044600287ED10A9A136843F09D
:105400000303136020254FF0010A716843463A46B2
:10541000890008A8FFF75EFF044600286CD108A8A1
:10542000FEF710FD044611A8FEF70CFD844206D9D4
:10543000211A08A8FEF7E8FD044600285CD1013DCA
:105440006BD011A908A8FEF719FF0028DDDA514634
:1054500008A8FEF78BFF0028D7DD05AB0093334685
:105460000EAA08A90846FFF759FD0446002843D1B3
:1054700011A908A8FEF702FF58B3012108A8FEF7FA
:1054800075FF30B3B9F1010F17D86FF00D0433E099
:1054900008AA11460BA8FFF7ADF808BB32460BA9C6
:1054A00008A8FFF7DBFBE8B9012108A8FEF75EFFBB
:1054B000D0B10135A94501D143E0012511A908A8C2
:1054C000FEF7DCFE0028E3D1012108A8FEF74EFF1D
:1054D00068B10BF1010B039B5B453FF66EAF0BE030
:1054E000044609E0044607E06FF00D0404E06FF0A5
:1054F0000D0401E06FF00D0411A8FEF7CFFA0EA81D
:10550000FEF7CCFA0BA8FEF7C9FA08A8FEF7C6FA10
:1055100005A8FEF7C3FA20461AE06FF00D0017E069
:10552000022303930AE00323039307E00423039376
:1055300004E00823039301E00C2303934FF0000BD6
:105540003BE711A908A8FEF799FE0028C1D0D1E7D2
:1055500015B0BDE8F08F00BF2DE9F0418AB00646D6
:105560000C46154607A8FEF791FA04A8FEF78EFA36
:1055700001A8FEF78BFA214604A8FEF70DFB0446AE
:1055800000286BD1294601A8FEF706FB0446002837
:1055900064D104A8FEF72EFC074601A8FEF72AFCFA
:1055A000874228BF0746394604A8FEF72DFD04466A
:1055B000002853D1394601A8FEF726FD04460028ED
:1055C0004CD1012301930AAD45F8183D4FF0000876
:1055D00033E02846FEF70EFC01462846FEF714FD90
:1055E000044600283AD101A8FEF704FC014601A8B0
:1055F000FEF70AFD044688BB01A92846FEF73EFED9
:1056000000280DDB01AA29462846FEF72FFF044695
:1056100020BB01212846FEF7F7FC044668B11DE0D7
:105620002A4601A90846FEF721FF0446B0B9012128
:1056300001A8FEF7E9FC044680B941462846FEF77A
:1056400095FE0028C5D1394601A8FEF785FC044621
:1056500020B901A93046FEF79FFA044607A8FEF7D5
:105660001DFA04A8FEF71AFA01A8FEF717FA204659
:105670000AB0BDE8F08100BFF0B59DB007460E4608
:10568000154601211046FEF771FE002840F35981AE
:1056900016A8FEF7FBF913A8FEF7F8F910A8FEF715
:1056A000F5F90DA8FEF7F2F919A8FEF7EFF90AA827
:1056B000FEF7ECF907A8FEF7E9F904A8FEF7E6F90A
:1056C00001A8FEF7E3F92A46314619A8FFF744FF7F
:1056D0000446002840F01881012119A8FEF746FE73
:1056E000002840F00F812A46314616A8FFF7B6FA87
:1056F0000446002840F0088116A913A8FEF74CFACA
:105700000446002840F0008129460AA8FEF744FA22
:105710000446002840F0F880294607A8FEF73CFA26
:105720000446002840F0F080012110A8FEF708FB95
:105730000446002840F0E88000210DA8FEF700FB99
:105740000446002840F0E080002104A8FEF7F8FAA3
:105750000446002840F0D880012101A8FEF7F0FAA5
:105760000446002840F0D08033E0012113A8FEF762
:105770004BFC0446002840F0C780129B1B6813F0C6
:10578000010F04D10F9B1B6813F0010F11D00AAA5F
:1057900010A90846FEF7AAFE0446002840F0B4808F
:1057A00016AA0DA90846FEF7CBFE0446002840F0D5
:1057B000AB80012110A8FEF727FC0446002840F02A
:1057C000A38001210DA8FEF71FFC0446002840F02D
:1057D0009B80159B1B6813F0010FC6D001262FE09C
:1057E000314607A8FEF710FC0446002840F08C80E4
:1057F000069B1B6813F0010F04D1039B1B6813F079
:10580000010F0FD00AAA04A90846FEF76FFE04464E
:10581000002879D116AA01A90846FEF791FE044690
:10582000002871D1314604A8FEF7EEFB044600289B
:105830006AD1314601A8FEF7E7FB0446002863D190
:10584000099B1B6813F0010FCAD007A913A8FEF724
:1058500015FD002817DB07AA13A90846FEF770FEFE
:105860000446002850D104AA10A90846FEF768FE95
:105870000446002848D101AA0DA90846FEF760FE9B
:105880000446B0B140E013AA07A90846FEF758FE47
:105890000446002838D110AA04A90846FEF750FE95
:1058A000044688BB0DAA01A90846FEF749FE044636
:1058B00050BB002113A8FEF759FD002889D100260E
:1058C00006E02A4604A90846FEF710FE0446D8B9A9
:1058D000314604A8FEF74AFD0028F2DB06E02A461E
:1058E00004A90846FEF72CFE044668B9294604A818
:1058F000FEF7C4FC0028F2DA04A93846FEF74CF99A
:10590000044601E06FF00D0416A8FEF7C7F813A8CF
:10591000FEF7C4F810A8FEF7C1F80DA8FEF7BEF810
:1059200019A8FEF7BBF80AA8FEF7B8F807A8FEF713
:10593000B5F804A8FEF7B2F801A8FEF7AFF82046C4
:1059400001E06FF003001DB0F0BD00BF30B585B0C1
:105950000C46154601230193436802938368039321
:10596000002101A8FEF702FDD8B1012101A8FEF730
:10597000FDFCC8B1022101A8FEF7F8FC0346A8B15E
:1059800001A8FFF7A1FA034620B1012814BF03467E
:1059900000230BE02A46214601A8FFF7BDFC034681
:1059A00004E06FF00D0301E06FF00D03184605B041
:1059B00030BD00BF2DE9F04F87B0CE1E40F6FD751B
:1059C000AE4200F2A080009393468A46044602A8A5
:1059D000FEF75CF81AF01F0918BF4FF0010909EB38
:1059E0005A194FEA8906A6F104084FEA4919CAEB89
:1059F00009030193464F109B009A31462046FFF75A
:105A000069FC0546002879D1A36853F80830BB42E9
:105A1000F1D9CA4506D201992046FEF7F5FA0546A6
:105A200000286BD1A268136843F001031360BBF137
:105A3000000F09D1109A00992046FFF787FF05460D
:105A400010F10E0FD7D059E0A268136843F002039B
:105A500013600322214605A8FFF734F90546002804
:105A60004CD1059B43B9082221462046FEF792FD02
:105A70000546002842D109E0012B07D10422214626
:105A80002046FEF787FD0546002837D1214602A8AB
:105A9000FEF782F8054688BB012102A8FEF7B4FA9A
:105AA000054658BB0C2706262046FFF70DFA05468B
:105AB00090B902A8FFF708FA054668B9109A00994C
:105AC0002046FFF729FC054630B9109A009902A834
:105AD000FFF722FC054688B115F10E0F0ED13A46AC
:105AE00021462046FEF756FD054638B9324602A942
:105AF0000846FEF74FFD05460028D5D002A8FDF761
:105B0000CDFF284601E06FF0030007B0BDE8F08F3D
:105B100033F304B52DE9F04198B0044615A8FDF71C
:105B2000B5FF12A8FDF7B2FF0FA8FDF7AFFF0CA855
:105B3000FDF7ACFF09A8FDF7A9FF06A8FDF7A6FF32
:105B400003A8FDF7A3FF9F4A102115A8FEF7D4FD77
:105B50000546002840F0E5809B4A102112A8FEF778
:105B6000CBFD0546002840F0DC80984A10210FA8A4
:105B7000FEF7C2FD0546002840F0D3800FAA15A904
:105B80000CA8FEF737FD0546002840F0CA80904A71
:105B9000102106A8FEF7B0FD0546002840F0C180A0
:105BA00044B18C481CF0D4FD06A90CA8FEF766FB96
:105BB00040B925E106A90CA8FEF760FB002840F0DB
:105BC000E780F4E084481CF0F3FDDCE0834A102118
:105BD00006A8FEF791FD0546002840F0A280804A05
:105BE000102103A8FEF788FD0546002840F09980A3
:105BF00044B17C481CF0ACFD06A90CA8FEF73EFBA6
:105C000040B917E106A90CA8FEF738FB002840F0C0
:105C1000C18017E170481CF0CBFDB4E0002C00F00F
:105C2000A58071481CF0C4FD002300930FAB12AA9D
:105C300015A90CA8FFF772F90546002840F051811C
:105C400007E144B169481CF083FD06A90CA8FEF7E2
:105C500015FB40B91CE106A90CA8FEF70FFB0028B4
:105C600040F09A800CE15C481CF0A2FD8BE044B14E
:105C70005F481CF06DFD06A90CA8FEF7FFFA40B9BD
:105C800028E106A90CA8FEF7F9FA002840F0868062
:105C900003E051481CF08CFD75E0564E002756F885
:105CA000081C0CA8FEF74CF80546002839D156F818
:105CB000041C09A8FEF744F80546002831D109AABA
:105CC0000CA915A8FFF748FC054650BB316815A87C
:105CD000FEF74CFB30B1002C62D0394646481CF030
:105CE00037FD50E001370C36032FD8D1002C5AD0A5
:105CF0003D481CF05DFD15A8FDF7D0FE12A8FDF78C
:105D0000CDFE0FA8FDF7CAFE0CA8FDF7C7FE09A837
:105D1000FDF7C4FE06A8FDF7C1FE03A8FDF7BEFE11
:105D200020E0003418BF012425B11CB129463348B6
:105D30001CF00EFD15A8FDF7B1FE12A8FDF7AEFE92
:105D40000FA8FDF7ABFE0CA8FDF7A8FE09A8FDF70C
:105D5000A5FE06A8FDF7A2FE03A8FDF79FFE002CF6
:105D600000F0D8800A201CF0E3FCD3E0002300936D
:105D70000FAB12AA15A90CA8FFF7D0F8054600280A
:105D800040F0B38073E0003418BF01240125CDE753
:105D9000012508E0012506E0012504E0012502E0D7
:105DA000012500E00125003418BF0124C2E70FAB34
:105DB00015AA09A90CA8FEF741FD0546002840F0E8
:105DC00094802EE0F413002078140020FC140020AE
:105DD0006015002040160020A81300205C1600204B
:105DE00080160020E016002058130020FC1600202A
:105DF00018170020B8510260341700204417002003
:105E000046481CF0D5FC0FAB15AA09A90CA8FEF753
:105E100015FD0546002864D1D8E6003418BF0124DA
:105E200088E73F4A102106A8FEF766FC05460028D1
:105E3000F3D1D4E603A909A8FEF720FA00287FF4DD
:105E4000E9AEEBE603A909A8FEF718FA0028A9D1E4
:105E5000E4E6344A102106A8FEF74EFC0546002869
:105E60007FF45FAFEEE6003418BF012462E72D4AED
:105E7000102106A8FEF740FC05460028F3D1E0E615
:105E80000FAA15A90CA8FFF7F7FB054668BB0EE0A3
:105E900022481CF08DFC0FAA15A90CA8FFF7ECFBFB
:105EA0000546F0B90CE0003418BF012442E71E4A51
:105EB000102106A8FEF720FC05460028F3D1D6E6FF
:105EC000194A102106A8FEF717FC054600287FF4A2
:105ED00028AFCDE611481CF06BFC14481CF038FCD0
:105EE000DBE6003418BF012420E715A8FDF7D6FD36
:105EF00012A8FDF7D3FD0FA8FDF7D0FD0CA8FDF704
:105F0000CDFD09A8FDF7CAFD06A8FDF7C7FD03A84A
:105F1000FDF7C4FD284618B0BDE8F08158130020F5
:105F20005C1600206C170020CC17002030180020D1
:105F3000F0B404680B686340446849684C401E4EE6
:105F4000C3F30721775C06EB136191F8001156FA51
:105F500083F090F8005245EA0165C3F307433344E8
:105F600093F8001345EA014141EA0720C4F30723EF
:105F7000334493F8005206EB146393F8003356FA57
:105F800084F191F8001141EA0361C4F30744335DE1
:105F900041EA034343EA052380EA336183EA31435C
:105FA00081EA33211068434083EA31231360536848
:105FB00059405160F0BC7047D451026008B54FF4AD
:105FC0008A7200211CF0D0FB08BD00BF28B108B5C3
:105FD0004FF48A710BF0C6FD08BD70472DE9F04FF4
:105FE000C3B006460D469046041D4022002132A84B
:105FF0001CF0BAFB4FF48872002120461CF0B4FB61
:10600000B8F1C00F0CD0B8F5807F09D0B8F1800F7F
:1060100040F0F9810323336010264FF0000B06E0B7
:10602000042333605FEAD8060DD04FF0010B6A1EDF
:106030000DF1C701002312F8010F01F8010F013320
:106040009E42F8D801E04FF0010BB8F1C00F05D027
:10605000084826AE0025A0F580670DE00DF1D703B6
:106060000DF1DF0113F8012FD2431A728B42F9D1DF
:10607000EEE700BFD455026007F5806313F83510D2
:106080004278130443EA0162C3781343827843EAF7
:10609000022326AA42F8353001794279130443EAF3
:1060A0000162C3791343827943EA022373600135A5
:1060B00008300836062DDFD14022002116A81CF03A
:1060C00053FB0DF1C90015AD0DF1E90610F8011CE7
:1060D0000278130443EA016283781343427843EA67
:1060E000022345F8043F0430B042EFD116A91AA8A4
:1060F00051F8043BCA685340CB618142F8D120AAD1
:1061000026A91EA8FFF714FF1EAA28A920A8FFF79A
:106110000FFF1DAD21A8294651F8042F51F8203C4E
:1061200053400B608842F7D120AA2AA91EA8FFF786
:10613000FFFE1EAA2CA920A8FFF7FAFEB8F1800FD7
:1061400011D919A951F8042F0B6953400B628D42E4
:10615000F8D124AA2EA922A8FFF7EAFE22AA30A984
:1061600024A8FFF7E5FE169B0293179B0393189B49
:106170000493199B0593DA464FEA0B19A44E4E443B
:106180000DF1080E70460F25274616F8013B03B3A4
:1061900005F01F03C3F12001029A02FA03F4039AE7
:1061A000CA4062400261039A02FA03F4049ACA40A8
:1061B00062404261049A02FA03F4059ACA406240BE
:1061C0008261059A02FA03F3029C24FA01F14B4022
:1061D000C3610F3510304B2DD7D13C464FEA8A03AF
:1061E00053441B0101938B4D1D4416AB714615F9A9
:1061F000012FB2F1FF3F02D0086844F822000431B9
:106200008B42F4D1B8F1800F46D91A9A02921B9AA8
:1062100003921C9A04921D9A059209F1040C7C4980
:106220008C4475460F2627461CF8012B02B306F056
:106230001F02C2F12000029901FA02F40399C14041
:1062400061402961039901FA02F40499C140614057
:106250006961049901FA02F40599C1406140A9619C
:10626000059901FA02F2029C24FA00F04240EA6128
:106270000F3610354B2ED7D13C46674D019A154449
:10628000714615F9012FB2F1FF3F02D0086844F8BA
:10629000220004318B42F4D11E9A02921F9A03927B
:1062A000209A0492219A059209F108075849CF19BA
:1062B00075460F26F446A64617F8012B02B306F0E2
:1062C0001F02C2F12000029901FA02F40399C140B1
:1062D00061402961039901FA02F40499C1406140C7
:1062E0006961049901FA02F40599C1406140A9610C
:1062F000059901FA02F2029C24FA00F04240EA6198
:106300000F3610354B2ED7D17446E646434D019AD1
:106310001544614615F9012FB2F1FF3F02D008681C
:1063200044F8220004318B42F4D1B8F1800F12D826
:106330004FEA4B025A4492004FEA8A015144384BCB
:1063400003EB8101013902F1200304EB83033432B2
:1063500004EB82004AE0229A0292239A0392249A42
:106360000492259A059209F10C09294D4D4476466F
:106370000F2715F8012B1AB307F01F02C2F12000F6
:10638000029901FA02FC0399C1408CEA01013161D2
:10639000039901FA02FC0499C1408CEA0101716180
:1063A000049901FA02FC0599C1408CEA0101B1612E
:1063B000059901FA02F2029921FA00F04240F261D5
:1063C0000F3710364B2FD4D11649019A0A44114683
:1063D00011F9012FB2F1FF3F03D0DEF8000044F8BD
:1063E00022000EF1040E7345F2D1A1E711F9012F3D
:1063F000B2F1FF3F02D054F822201A6004338342E6
:10640000F4D1002001E06FF0230043B0BDE8F08F2D
:106410000456026023560260375602604B560260F3
:10642000C45602605F560260F0B5C7B004460D4620
:10643000164601A8FFF7C2FD3246294601A8FFF71C
:10644000CDFD054600283BD1019E2660042E14BFD9
:106450000026012602A9B201C0328B188A58626058
:106460005A68A2609A68E26004F11407DA6822614F
:10647000F60006F11602A3F1080E04F11C00103B11
:10648000996840F8081CD96840F8041C0830083B9B
:10649000013AF5D106F1160107EBC10273079E1B05
:1064A000F600B03E0EEB060353F8080C47F8310037
:1064B00053F8041C51605EF8061091605B68D3606D
:1064C00001A8FFF783FD284647B0F0BD2DE9F04154
:1064D00084B01E46D0F80080117953791B0443EA3A
:1064E0000163D1790B43917943EA0121147A537AFC
:1064F0001B0443EA0463D47A2343947A43EA0423D3
:10650000157B547B240444EA056492F80FE044EAC6
:106510000E0492F80EE044EA0E2E15785478240406
:1065200044EA0565D4782C43927844EA0222446810
:1065300062400092826851400191C26853400293C8
:1065400000F11407046984EA0E040394B8F1000F03
:1065500044D03C464546013D02AA21466846FFF725
:10656000E7FC6A4604F1080102A8FFF7E1FC02AA71
:1065700004F110016846FFF7DBFC6A4604F11801DC
:1065800002A8FFF7D5FC02AA04F120016846FFF734
:10659000CFFC6A4604F1280102A8FFF7C9FC1DB927
:1065A00007EB8817103F19E0009B226B03EA0201FA
:1065B000019A82EAF1720192616B0A43534000939F
:1065C000039BE26B43EA0201029A4A400292A16BEA
:1065D0000A4083EAF27303934034BCE73868029BB5
:1065E00058407968039B5940BA68009B5A40FC6840
:1065F000019B6340040E3470040C7470040AB47080
:10660000F070080E3071080C7071080AB071F171E9
:10661000110E3172110C7172110AB172F2721A0EEE
:1066200032731A0C72731A0AB273F373002004B037
:10663000BDE8F0812DE9F04784B0DDF830800D9C95
:1066400012F00F0F58D10746894616461D4621B154
:10665000002A54D008F1FF3849E0002A51D04FF009
:106660000009EE46D8F80000D8F80410D8F8082041
:10667000D8F80C30AEE80F0023464246494638466B
:10668000FFF724FF631E691E04F10F0E13F8010FBC
:1066900011F8012F42401A707345F7D1EE46BEE85B
:1066A0000F0028606960AA60EB6008F110081034E0
:1066B000103ED6D1002027E018F8010F11F8013F55
:1066C000434002F8013FD045F6D1234622464946D1
:1066D0003846FFF7FBFE20686168A268E36828601F
:1066E0006960AA60EB601034D046103E0BD0691E82
:1066F000621E08F1100ADFE76FF0250004E00020B9
:1067000002E0002000E0002004B0BDE8F08700BFF8
:106710002DE9F84F81469A460A9EDDF82C800C9FA1
:106720001C6809B1C2B92EE06AB315464FF0010BDF
:106730002CB93346324659464846FFF7C7FE18F88B
:10674000012B335D534007F8013B3255013404F00F
:106750000F04013DECD116E0013F15464FF0010B4F
:106760002CB93346324659464846FFF7AFFE325DF4
:1067700018F8013B534007F8013F3355013404F04A
:106780000F04013DECD1CAF800400020BDE8F88FAD
:106790002DE9F04F83B001909346DDF830900D9EC7
:1067A0000E9F146841B398460D464FF0010ABCB9DC
:1067B0004B46424651460198FFF788FE98F80F3045
:1067C0000133DBB288F80F3053B908F10F024146AC
:1067D00012F8013D0133DBB213700BB99142F7D1CE
:1067E00019F8042016F8013B534007F8013B013427
:1067F00004F00F04013DDAD1CBF80040002003B0D3
:10680000BDE8F08F2DE9F04FF9B00490202200216F
:1068100070A81BF0A9FF4FF00009DFF808B30BF5D3
:10682000C76A4FEA690409F00107049B4BB1A11C38
:10683000B54BB64A002F18BF1A468901B4481BF061
:1068400087FFA61CF3000593B6010BEB060505F5C3
:1068500093650BF5BB6808EB44180024059A29469C
:1068600070A81BF07DFFCFB9324670A906A8FFF7CC
:10687000DBFD0DF5B87E08EB0403186859689A68CB
:10688000DB68AEE80F000DF5B07E04EB0A03186874
:1068900059689A68DB68AEE80F0018E0324670A9C4
:1068A00006A8FFF79BFB0DF5B87E04EB0A031868FA
:1068B00059689A68DB68AEE80F000DF5B07E08EB0A
:1068C0000403186859689A68DB68AEE80F0060AB8B
:1068D0005CAA394606A8FFF7F9FD102258A960A85E
:1068E0001BF02EFF48B1049B002B00F05B81894810
:1068F0001BF05EFF012305935FE120351034202C4F
:10690000ACD1049B13B184481BF052FF09F101097B
:10691000B9F1060F85D1049B13B10A201BF008FFC3
:106920004FF00009DFF8FCA10AF5EB6B4FEA6905AF
:1069300009F00107049B4BB1A91C734B734A002F4C
:1069400018BF1A46890175481BF002FF5CAE0AF5B4
:10695000CB6494E80F0086E80F0058AE86E80F007D
:10696000AC1C0AF5CD61E20001EB451170A81BF0EB
:10697000F7FE2FB9A20170A906A8FFF755FD04E0A4
:10698000A20170A906A8FFF729FB0AF5D96805EB53
:10699000450508EB0518002458ADB7B90DF5A87EDC
:1069A0005CAE96E80F008EE80F0008EB0403186851
:1069B00059689A68DB680FC658AE04EB0B03186879
:1069C00059689A68DB680FC614E054AE95E80F006A
:1069D00086E80F005CAE04EB0B03186859689A68F0
:1069E000DB680FC62E4608EB0403186859689A68DE
:1069F000DB680FC660AE01965CAB009354AB10220F
:106A0000394606A8FFF716FE1022294630461BF02D
:106A100097FE064648B1049B002B00F0C6803D4817
:106A20001BF0C6FE01230593C7E01034302CB4D10F
:106A3000049B13B138481BF0BBFE09F10109B9F101
:106A4000060F7FF473AF0596049B13B10A201BF069
:106A50006FFE4FF000082D4FDFF8C89009F5F76B77
:106A60004FEA680408F00105049B33B12649002D64
:106A700008BF39462A481BF06BFE260109EB0603C6
:106A800003F5F1630DF59E7E0FCB8EE80F000DF53B
:106A9000E07E0BEB06030FCB8EE80F000023539331
:106AA0008022714606A8FFF799FA002D3CD109EB28
:106AB0008403D3F8E8A760AD09F2F47366003119D6
:106AC000524603EB011128461BF04AFE0295019540
:106AD0004BAB00934FAB53AA514606A8FFF758FEA5
:106AE00009F684013444524601EB041128461BF098
:106AF00027FE002845D0049B002B59D005481BF0E9
:106B000057FE0123059358E0341300203013002072
:106B100050180020A8130020581300206C180020E3
:106B200088180020D451026009EB8403D3F8E86789
:106B300060AD09F684034FEA440A0AEB04013246C9
:106B400003EB011128461BF00BFE029501954BABA0
:106B500000934FAB53AA314606A8FFF719FE09F27E
:106B6000F4715444324601EB041128461BF0E8FD51
:106B700038B1049BFBB113481BF01AFE01230593A7
:106B80001BE0049B13B110481BF012FE08F1010832
:106B9000B8F1060F7FF464AF049B73B10A201BF0B9
:106BA000C7FD0AE00123059307E00123059304E0F4
:106BB0000123059301E001230593059879B0BDE811
:106BC000F08F00BFA8130020581300202DE9F04FCC
:106BD0009BB0089017460593DDF89880279D289E66
:106BE0002A9A022A00F09E818A469E46102A00F2C6
:106BF000998112F00102049240F09781249AD31FE8
:106C0000062B00F29581B8F57F4F00F291819DF837
:106C10009020C2F10F03D8B20690B8F1000F14BF54
:106C2000402300230792C2F10E02D2B2114609920C
:106C30002A9A023A520843EAC2030B438DF85430B1
:106C4000249A71460DF155001BF08AFD069870B12B
